:400000000080002011000000110300001103000080B500AF024A034B1B68136000F07CF9BC760040FA460040080002230000087608000323000010760800042300002876F0
:4000400008000523000030760500062300002070050007230000307005000823000060700500FE230000707020000A220000005120000B220000305110000C220000C0515D
:400080001000FE220000F05180050E220000000080010F22000000068001102200000008800011220000000A000412220000000C800313220000001480011422000000180B
:4000C000000215220000001A800016220000004100021722000000448000182200000047800019220000004800011A220000004980001B220000004C2000FE220000005012
:4001000007001D23000028520C001E230000004F0800FE230000205B0800202300000051800021230000800A800022230000004D800023230000804D800024230000804C9C
:400140008000252300008047800026230000004680002723000080468000282300008019800029230000801780002A230000800980002B230000800780002C230000000B05
:4001800080002D230000800B80002E230000800580002F23000080488000302300000043800031230000804380003223000000428000332300008042800034230000804100
:4001C00080003523000000408000FE23000080400100000001000000010000000048014001000000004800400100000000200140010000000020004010B5054C237833B911
:40020000044B13B10448AFF300800123237010BD8081FF1F00000000381B0000084B10B51BB108480849AFF300800848036803B910BD074B002BFBD0BDE81040184700BF01
:4002400000000000381B00008481FF1F0881FF1F0000000080B588B000AF00237B610023FB770023BB6100233B613B4600221A60043300221A60043300221A600433002297
:400280001A80023300221A70013362B600F02EFF00F046FF00F012FD00F0E4FD00F062FB0020012100F06EFB174800F0A1FB002000F0E8FD00F006FE03467B61BA697B696D
:4002C0001344BB61FB7F0133FB77FB7F082B19D1BB69DB103B610023BB610023FB773B4618460A493A6901F00FF83B69DBB2184600F0B8FF0120002100F044FB3B46184602
:4003000000F076FBD3E700BF3C1B00004C1B000080B400AFFEE700BF80B586B000AF214B7B61214B3B611F4B7B611F4B3B612FE03B691B68FB603B695B68BB603B699B682E
:400340003B6000237B600AE0BB681A1DBA60FA68111DF96012681A607B6804337B607A683B689A42F0D13B69DB683B6000237B6007E0BB681A1DBA6000221A607B68043301
:400380007B607A683B689A42F3D13B6910333B617B695A1E7A61002BCAD100F083FFFFF759FFFEE701000000881C000080B582B000AF174B174A1A60174A174B1B6843F4A3
:4003C0000073136000237B600FE07B68032B04D8124A7B6852F8233000E0114B11497A6841F822307B6801337B607B682F2BECD90D4B1B78DAB20D4B1A700D4B094A1A60EC
:4004000000F002FA0B4B00221A600837BD4680BD0CED00E00004FA0514ED00E000000000110300000080FF1FBC7600400481FF1F08ED00E00081FF1F80B584B000AFF860F7
:40044000B9607A60F868B9687A6800F051FF1037BD4680BD80B483B000AF0346FB71FEE780B483B000AF434B00221A60424B10221A70424B01221A70414B00221A70414B28
:400480004FF4D4721A80404B01221A703F4B03221A703F4B3F4A92B21A803F4B47F608021A803E4B00221A803D4B4FF480421A803C4B09221A703C4B0D221A703B4B1C22A0
:4004C0001A703B4B1F221A70BFF35F8F394B01221A70BFF35F8F00BF2A4B1B889BB2002BFAD100237B600DE07B68DA00324B13441946324A7B6852F823309BB20B807B6804
:4005000001337B607B68342BEED9BFF35F8F294B01221A70BFF35F8F00BF294B1B78DBB203F00103002BF8D100BF264B1B78DBB203F00103002BF8D100BF234B1B78DBB27C
:4005400003F00103002BF8D100BF204B1B78DBB203F00103002BF8D100BF1D4B1B78DBB203F00103002BF8D10C37BD465DF8047B704700BFA081FF1F0076004010700040E4
:4005800019700040007800400278004003780040047800402800000006780040047600400676004029700040397000406970004079700040147000400C780040581B00002E
:4005C000187000402870004038700040687000407870004080B582B000AF4B4B02221A804A4B18221A704A484A490822FFF724FF494B06221A704FF0402308221A70474BDA
:4006000043F213321A80464B05221A70444B1B7843F2C8237B6006E04FF4F07000F0CCFC7B68013B7B607B68002B06D03C4B1B78DBB2DBB25BB2002BEEDB3A4B03221A70BF
:40064000394B3A4A1278D2B21A70394B0C221A80384B41F251221A800023FB7019237B6014E0FB785B00DAB2334B1B78DBB203F00103DBB21343DBB203F00303FB704FF42C
:40068000F07000F099FC7B68013B7B607B68002B02D0FB78032BE4D17B68002B02D10320FFF7D8FE254B4FF480721A80234B07221A70234B00221A70224B48221A701F4B10
:4006C00000221A70204B02221A70204B04221A701F4A1F4B1B78DBB243F00103DBB213701C4A1C4B1B78DBB243F00203DBB21370194A194B1B78DBB263F07F03DBB21370DF
:400700000837BD4680BD00BF8040004082400040004100403C0B004800430040124200401042004000420040A1460040080100492242004020420040254200400440004054
:400740000640004008400040014000400B400040A2430040A1430040A043004080B483B000AF1E4B1B78FB711D4B1B78BB711D4B1B787B711C4AFB7903F00703DBB2137080
:400780001A4AFB791B09DBB21370154ABB7943F00303DBB21370134A7B7943F00303DBB21370134B20221A70124B40221A70124B40221A70114B02221A70114B20221A70C9
:4007C000084A7B791370064ABB7913700D4B66221A700C37BD465DF8047B7047CF010049F8460040F94600406E5800406F5800406D5100400159004003590040205B0040DC
:40080000235B00407658004080B500AF72B6FFF727FE254A244B1B78DBB243F00203DBB21370224A214B1B78DBB243F00203DBB213701F4A1E4B1B78DBB243F04003DBB24A
:4008400013701C4A1B4B1B78DBB243F01003DBB21370194819490822FFF7EEFD184819490822FFF7E9FD184818490822FFF7E4FD174A174B1B78DBB243F00803DBB213702A
:40088000144B01221A70FFF7A5FE124BC1221A70114B01221A70FFF761FF104804490E22FFF7CAFD80BD00BF0350014013500140A0430040C243004022510040240B004812
:4008C000525100402C0B004862510040340B0048224300400048004004000840B043004080B500AF282000F083FB032000F0B6F9052000F07DFB032000F0B0F90F2000F0AC
:4009000077FB032000F0AAF9012000F071FB022000F0A4F9052000F06BFB062000F09EF80E2000F09BF82C2000F098F8082000F095F8012000F092F80C2000F08FF80320B9
:4009400000F08CF8052000F053FB80BD80B500AF0C2000F083F8024B01221A7080BD00BFA881FF1F80B500AF054B1B78002B04D1FFF7B6FF024B01221A70FFF7E7FF80BD26
:40098000A981FF1F80B582B000AF03460A46FB711346BB71FB79032B26D801A252F823F0B1090000BF090000CD090000DB090000BB79803BDBB2184600F050F815E0BB7938
:4009C000403BDBB2184600F049F80EE0BB796C3BDBB2184600F042F807E0BB792C3BDBB2184600F03BF800E000BF0837BD4680BD80B584B000AF78600123FB737B681B78DC
:400A0000BB730BE0BB7B184600F00EF8FB7B7A6813441B78BB73FB7B0133FB73BB7B002BF0D11037BD4680BD80B584B000AF0346FB7100F02DF8FB791B09FB73FB7B184626
:400A400000F0D2F8FB7903F00F03FB73FB7B184600F0CAF81037BD4680BD00BF80B584B000AF0346FB7100F013F8FB791B09FB73FB7B184600F0F2F8FB7903F00F03FB73A6
:400A8000FB7B184600F0EAF81037BD4680BD00BF80B582B000AF4F4A4E4B1B78DBB223F07F03DBB213704C4B1B78DBB223F00F03FB71494AFB7943F00F03DBB21370474B07
:400AC0001B78DBB223F00F03FB71444AFB791370434B1B78DBB223F00F03FB71404AFB7913703C4A3B4B1B78DBB223F02003DBB21370384A374B1B78DBB243F04003DBB267
:400B00001370002000F096FA324A324B1B78DBB243F01003DBB21370012000F08BFA314B1B78FB712B4A2B4B1B78DBB223F01003DBB21370002000F07DFAFB7903F00803D8
:400B4000FB71244A234B1B78DBB243F01003DBB21370012000F06EFA1E4A1E4B1B78DBB223F01003DBB21370FB79002BC9D1194A184B1B78DBB223F04003DBB21370154A33
:400B8000144B1B78DBB223F07F03DBB21370124A114B1B78DBB223F00F03DBB213700F4B1B78DBB223F00F03FB710C4AFB7943F00F03DBB213700A4B1B78DBB223F00F0340
:400BC000FB71074AFB7943F00F03DBB213700837BD4680BD205100402251004023510040245100402151004080B582B000AF0346FB71FFF74DFF184A174B1B78DBB243F04D
:400C00002003DBB21370144A134B1B78DBB223F04003DBB21370104A0F4B1B78DBB223F00F03DBB213700C490B4B1B78DAB2FB791343DBB243F01003DBB20B70012000F0B6
:400C4000F9F9054A044B1B78DBB223F01003DBB213700837BD4680BD2051004080B582B000AF0346FB71144A134B1B78DBB223F06003DBB21370104A0F4B1B78DBB223F04A
:400C80000F03DBB213700C490B4B1B78DAB2FB791343DBB243F01003DBB20B70012000F0C9F9054A044B1B78DBB223F01003DBB213700837BD4680BD2051004080B500AFC8
:400CC000054B1B78002B04D100F008F8024B01221A7000F025F880BDAA81FF1F80B500AF102000F04FF90020072100F0DDF90020084900F0B1F9084A074B1B78DBB243F038
:400D00000603DBB21370082000F084F8034B00221A8080BD790F000001590040C081FF1F80B582B000AF00F04FF90346FB712E4A2D4B1B78DBB243F00103DBB213702B4A6F
:400D40002A4B1B78DBB243F00103DBB21370284A274B1B78DBB243F00203DBB21370254A244B1B78DBB243F00203DBB21370224B1B78BB71BB7943F00203BB71BB7943F0DA
:400D80000103BB711C4ABB7913701C4B18221A701B4A1B4B1B78DBB243F04003DBB21370174A174B1B78DBB223F02003DBB21370144BC8221A70144B02221A70134A134B86
:400DC0001B78DBB243F00803DBB213700A2000F031F90F4B01221A60FB79184600F0F8F80837BD4680BD00BFAB430040BB430040A1430040B143004003590040065900405B
:400E0000055900400059004014460040275B004080E200E080B584B000AF0346FB71FB790A2B07D00C2B02D0082B06D008E0C423FB730BE08423FB7308E04423FB7305E09F
:400E4000C423FB73002000F0C7F800BF044AFB7B1370FB79184600F04FF81037BD4680BD0259004080B400AF054A054B1B78DBB243F00103DBB21370BD465DF8047B7047A6
:400E80000059004080B584B000AF0346FB710C4B1B78DBB203F00103FB73FB7B012B02D0FB79002BF3D0FB7B012B04D1012000F0C1F8034B1B78FB7B18461037BD4680BD9D
:400EC0000159004080B483B000AF094B1B88FB80084B1B889BB29BB2FA88D31A9BB29BB21BB218460C37BD465DF8047B704700BFA05B0040BC81FF1F80B584B000AF034685
:400F0000FB71FB790A2B08D00C2B02D0082B08D00BE04FF48053FB600DE04FF48063FB6009E04FF48073FB6005E00023FB60002000F052F800BF0C4B00221A80FB6842F246
:400F4000107202FB03F303F27263084A82FB03121A44D212DB17D31A054A1360054B00221A801037BD4680BDBE81FF1FEF09E09EB881FF1FBC81FF1F80B400AFBD465DF818
:400F8000047B704780B483B000AF0346FB71094B084A1278D2B2D1B2FA7922F00702D2B20A43D2B2D2B21A700C37BD465DF8047B704700BF064100400230800803D000BFA5
:400FC00001380046FCD17047EFF3108072B6704780F31088704700BF80B483B000AF0346FB7101BE0C37BD465DF8047B704700BF80B582B000AF786008E00C4B1B681846F4
:40100000FFF7DAFF7B68A3F500437B607B68B3F5004FF2D8064B1B687A6802FB03F31846FFF7CAFF0837BD4680BD00BF1881FF1F1081FF1F80B582B000AF0346FB80FB88DD
:40104000044A127802FB03F31846FFF7B5FF0837BD4680BD1481FF1F80B584B000AF03463960FB710F4B1B68FB60FB791F2B02D90020FFF7B1FFFB7903F01F0310339B0007
:40108000FA6813441B68BB60FB7903F01F0310339B00FA6813443A681A60BB6818461037BD4680BD08ED00E080B582B000AF03460A46FB711346BB71BB79072B02D90020BF
:4010C000FFF78AFFFB791F2B02D90020FFF784FFFB7903F01F0303F1604303F56443BA795201D2B21A700837BD4680BD80B400AF094A094B1B78DBB243F00103DBB213707C
:40110000064A064B1B78DBB243F00103DBB21370BD465DF8047B7047A2430040B243004080B500AF054B1B78002B04D100F008F8024B01221A7000F061F880BDAB81FF1F3E
:4011400080B582B000AF284A274B1B78DBB243F00203DBB21370254B1B78DBB223F07003FB71224AFB7943F02003DBB21370204A1F4B1B78DBB223F03003DBB213701C4A95
:401180001B4B1B78DBB243F03003DBB21370184A174B1B78DBB223F00F03DBB21370144A134B1B78DBB243F00F03DBB21370FF2000F048F87F2000F055F8002000F062F854
:4011C0000C4A0C4B1B78DBB243F00103DBB21370094A094B1B78DBB243F00103DBB213700837BD4680BD00BF004F0040024F00400B4F0040A3430040014F004080B400AF3C
:401200000D4A0D4B1B78DBB243F00103DBB213700A4A0A4B1B78DBB243F00103DBB21370074A074B1B78DBB243F00103DBB21370BD465DF8047B7047A3430040B343004094
:40124000004F004080B483B000AF0346FB71044BFA7992B21A800C37BD465DF8047B7047044F004080B483B000AF0346FB71044BFA7992B21A800C37BD465DF8047B7047D4
:40128000064F004080B483B000AF0346FB71044AFB7913700C37BD465DF8047B704700BF034F00400E4B70B51E460E4C0025E41AA410A54204D056F8253098470135F8E702
:4012C00000F0D0FC084B094C1E46E41AA4100025A54204D056F8253098470135F8E770BD701C0000701C0000701C0000781C000010B5431E0A44914204D011F8014B03F82D
:40130000014FF8E710BD00000EB400B54FF402719CB0ADF814106FF00041049107914FF6FF711DABADF81610084953F8042B02900690086802A9019300F064F8029B0022AD
:401340001A701CB05DF804EB03B070477C81FF1F2DE9F0478E688246B3420C469046994640D38A8912F4906F3AD02568096902236F1A656905EB450595FBF3F57B1C4B44BF
:401380009D4238BF1D4653050FD5294600F030FB064698B121693A46FFF7AAFFA38923F4906343F08003A38113E02A4600F076FB064670B95046216900F0D6FA0C23CAF8D6
:4013C0000030A3894FF0FF3043F04003A381BDE8F08726613E4426604E466561ED1BA560B14500D24E4632462068414600F0A0FAA36800209B1BA36023681E442660BDE80E
:40140000F08700002DE9F0439DB003938B8906461C060D4690460CD50B6953B9402100F0E7FA2860286110B90C233360CCE040236B610023099320238DF8293030238DF89C
:401440002A3043461C4613F8012B1AB9B4EB08090FD002E0252AF5D1F8E73046294642464B46FFF775FF013000F0A980099B4B4409932378002B00F0A28000234FF0FF32CC
:4014800004930793059206938DF853301A9304F101084446DFF8489121784846052200F039FA08F10108049B30B1C9EB00000122824013430493ECE7D80644BF20228DF8EA
:4014C0005320190744BF2B228DF8532022782A2A02D0079923460EE0039A0134111D12680391002ABBBF524243F0020307920792B8BF04930AE01C4622780133303A092AE5
:4015000003D80A2000FB0121F5E7079123782E2B1AD163782A2B0AD1039B02341A1D1B680392002BB8BF4FF0FF3305930CE0611C00220C4623780131303B092B03D80A200F
:4015400000FB0232F5E70592DFF8988021784046032200F0DFF938B1049AC8EB00004023834013430493013421781A48062204F101088DF8281000F0CDF988B1164B33B932
:40158000039B073323F007030833039313E003AB0093304604A92A46104BAFF3008007E003AB0093304604A92A460C4B00F092F8421C074603D0099B3B44099341E7AB89FC
:4015C0005B0601D4099801E04FF0FF301DB0BDE8F08300BF381C000000000000511300002E1C0000341C00002DE9F84391461F468A680B6906469342B8BF1346C9F80030FA
:4016000091F843200C46DDF8208012B10133C9F800302368990642BFD9F800300233C9F80030256815F006051CD094F843302268003318BF012392061FD5E118302081F82F
:4016400043005A1C94F845102244023382F8431013E03046394604F119020123C047013007D00135E368D9F800209B1A9D42F0DBDBE74FF0FF30BDE8F8833046394604F132
:401680004302C0470130F4D02268D9F80050E36802F00602042A08BF5D1B2269A3680CBF25EAE57500259342C4BF9B1AED184FF00009A9450ADA3046394604F11A02012347
:4016C000C0470130D5D009F10109F2E70020BDE8F88300002DE9FF410C461746227E98466E2A06460A9B01F1430100F0B08012D8632A23D00AD8002A00F0BD80582A40F039
:40170000CC8084F84520DFF804E257E0642A1ED0692A1CD0C1E0732A00F0B18009D86F2A2ED0702A40F0B980226842F0200222603FE0752A24D0782A3BD0AEE01A6804F1EF
:401740004205111D1960136884F84230A9E020681A6810F0800F02D0101D186008E010F0400F02F10400186002D0B2F9003000E01368002B3EDA2D225B4284F8432039E0A4
:4017800020681A6810F0800F02D0101D186007E010F0400F02F10400186001D0138800E01368227EDFF864E16F2A0CBF08220A221CE07822DFF858E184F8452022681868A6
:4017C00012F0800F00F104051D6003D1550601D5038800E00368D00744BF42F0200222601BB9226822F0200222601022002084F8430002E0DFF814E10A226568002DA8BFF6
:401800002068A560A4BF20F00400206003B965B10D46B3FBF2F002FB10331EF8033005F8013D03460028F4D100E00D46082A0BD12368DA0708D5236962689A42DEBF3023C9
:4018400005F8013C05F1FF35491B21612EE025681A6815F0800F606903D0151D1D60136808E015F0400F02F104051D60136801D0188000E01860002323610D4616E01A6844
:40188000111D1960156800212846626800F042F808B1401B6060636804E004F1420584F8422001232361002384F84330CDF800803046214603AA3B46FFF796FE013002D14C
:4018C0004FF0FF301FE0304639462A462369C0470130F5D023689B0705D4E068039B9842B8BF18460FE00025E368039A9B1A9D42F3DA3046394604F119020123C047013034
:40190000DED00135F0E704B0BDE8F0813F1C0000501C000010B5C9B202449042034605D01C7801308C42F8D1184610BD002010BD814210B501EB020301D3421E0BE09842FF
:40194000FBD28118D21AD34204D013F8014D01F8014DF8E710BD994204D011F8014B02F8014FF8E710BD000030B500293CD051F8042C0B1F1D49002AB8BF9B180A680C46AB
:4019800012B95A600B6030BD93420DD219685818904201BF5A5852181A60426823605A6030BD994203D80A4651680029F9D1146815199D420AD11B682344D0188842136084
:4019C00012D10868034413604B680CE002D90C23036030BD1C681819884201BF08684968001918605960536030BD00BFB081FF1F70B5CC1C24F0030408340C2C38BF0C24C6
:401A0000002C064603DA0C233360002070BD8C42F9D3204A136810461946A1B10A68121B0ED40B2A03D90A608B188C501FE08B420BBF5A684A6802605A6018BF0B4616E0FD
:401A40000B464968E9E7144D2B681BB9304600F04BF828603046214600F046F8421C0346D1D0C51C25F0030585420AD11C6003F10B001A1D20F00700821A0AD051429950ED
:401A800070BD3046E91A00F02FF80130BBD02B46ECE770BDB081FF1FAC81FF1FF8B5074615460E4621B91146BDE8F840FFF7A0BF1AB9FFF759FF2846F8BD00F025F8A8425B
:401AC0000ED238462946FFF793FF044650B131462A46FFF70DFC38463146FFF745FF01E03046F8BD2046F8BD38B5064C002305460846236000F012F8431C02D1236803B121
:401B00002B6038BDC481FF1F51F8040C0028BEBF091851F8043CC01804387047044A05491368002B08BF0B461844106018467047B481FF1FC881FF1F000000004144432072
:401B4000696E70757420766F6C7400002020202025346C64206D5600F0010000E8010000E0010000D8010000D0010000D0010000D0010000D0010000A081FF1FA081FF1F6E
:401B8000A081FF1FA081FF1FA081FF1FA081FF1FA081FF1FA081FF1FA081FF1FA081FF1FA081FF1FA081FF1FA081FF1FA081FF1FA081FF1FA081FF1FA081FF1FA081FF1F35
:401BC000A081FF1F00000048100000481C0000480800004824000048A400004824010048A401004824020048A402004824030048A403004824040048A40400482405004815
:401C0000A405004824060048A406004824070048A407004824080048A408004824090048A4090048240A0048A40A00484300232D302B2000686C4C00656667454647003049
:401C4000313233343536373839414243444546003031323334353637383961626364656600000000F8B500BFF8BC08BC9E4670471D020000AD030000F8B500BFF8BC08BC5E
:401C80009E467047F9010000981C00000881FF1F78000000480000000000000000512502A08C00002400000000005046000000000000000000000000000000000000000016
:401CC0000000000000000000000000002C1C00000000000000000000000000000000000000000000000000000000000000000000000000000000000000000000000000009C
:401D00000000000000000000000000001C81FF1F000000000000000000000000000000000000000000000000000000000000000000000000000000000000000000000000E8
:401D40000000000000000000000000000000000000000000000000000000000000000000000000000000000000000000000000000000000000000000000000000000000063
:401D80000000000000000000000000000000000000000000000000000000000000000000000000000000000000000000000000000000000000000000000000000000000023
:401DC00000000000000000000000000000000000000000000000000000000000000000000000000000000000000000000000000000000000000000000000000000000000E3
:401E000000000000000000000000000000000000000000000000000000000000000000000000000000000000000000000000000000000000000000000000000000000000A2
:020000040003F7
:0200000480007A
:4000000000010000000000000300000000000000000000000000000000004E000000000000000021000000000000000000000000000000000000000000000000000000004D
:400040000000000000000000000000000000000000000000000000000000000002000000000001000000000000000000000000000000000000000000000000000400000475
:40008000000000010000000000000000000000000000000000000000000000000000000000000000000000000000000000000000000000000000000000000000000000003F
:4000C00000000000000000000000000000000000000000000000000000000000000000000000000000000000000000000000000000000000010000000000000000000000FF
:4001000000000000000000000000000000000000000000000000000000000000000000000000000000000000000000000000000000000000020000000000000000000000BD
:40014000000000000000000000000000000000000000000000000000000000000000000000000000000000000000000000000000000000000000000001000000000000007E
:40018000000000000000000000000000000000000000000000000000000000000000000000000000000000000000000000000000000000000200000000000000000000003D
:4001C00000000000000000000000000000000000000000000000000001000000000000000000000000000000000000000000000000000000000000000000000000000000FE
:4002000000000000000000000000000002000000000000000000000000000000000000000000000000000000000000000000000000000000000000000000000000000000BC
:40024000000000000000000000000000000000040000000000000000000000000000000000000000000000000000000000000000000000000000000000000000000000007A
:40028000000000000000000000000000000000000000000000000000000000000000000000000000000000000000000000000000000000000000000000000000000000043A
:4002C00000000000000000000000000000000000000000000000000000000000000000000000000000000000000000000000000000000000000000000000000000000000FE
:4003000000000000000000000000000000000000000000000000000000000000000000000000000000000000000000000000000000000000000000000000000000000000BD
:400340000000000000000000000000000000000000000000000000000000000000000000000000000000000000000800000000000000000000000000000000000000000075
:40038000000000000000000000000000000000000000000000000000000000000000000000000000000000000000000000000000000000000000000000000000000000003D
:4003C00000000000000000000000000000000000000000000000000000000000000000000000000000000000000000000000000000000000000000000000000000000000FD
:40040000000000000000000000000000400000000000000000000000000000000000000000000000000000000000000000000000000000000000000000000000000000007C
:40044000000000000000000000000000000000000000000000000000000000000000000000000000000000000000000000000000000000000000000000000000000000007C
:4004800000000000000000000000000040000000000000000000000000000000000000000000000000000000000000000000000000000000000000000000000000000000FC
:4004C00000000000000000000000000000000000000000000000000100000000000000000000000000000000000000000000000000000000000000000000000000000000FB
:400500000000000000000000000000000000000000002400000000000000000000000000000000000000000000000000000000000000000000000000000000000000000097
:40054000000000000000000000000000000000000000000000000000000000000000000000000000000000000000000000000000000000000000000000000000000000007B
:400580000000000000000000000000000000000000002400000000000000000000000000000000000000000000000000000000000000000000000000000000000000000017
:4005C000000080000000000000000000000000000000000000000000000000000000000000000000000000000000000000000000000000000000000000000000000000007B
:400600000000000000000000000000000000000000000001000000000000000000000000000000000000000000004000000000000000000000000000000000000000000079
:40064000000000000000000000000000000000000000000000000000000000000000000000000000000000000000000000000000000000000000000000000000000000007A
:40068000000000000000000000000000000000000000000000000000000000000000000000000000000000000000000000000000000000000000000000000000000000003A
:4006C00000000000000000000000000000000000000000000000000000000000000000000000000000000000000000000000000000000000000000000000000000000000FA
:4007000000000000000000000000020000000000000000000000000000000000000000000000000000000000000000000000000000000000000000000000000000000000B7
:400740000000000000000000000000000000000000000000000000004000000000000000000000000000000000000000000000000000000000000000000000000000000039
:4007800000000000000000000000000000000000000000000000000000000000000000000000000000000000000000000000000000000000000000000000000040000000F9
:4007C00000000000000000000000000000000000000000000000000000000000000000000000000000000000000000000000000000000000000000000000000000000000F9
:4008000000000000000000000000000000000000000000000000040000000000000000000000000000000000000000000000000000000000000004000000000000000000B0
:400840000000000000000000000000000000002000000000000004000000000000000000000000000000000000001000000000000000000000000000000000000000000044
:4008800020000000000000000000000000000000000020000000000000000000000000000000000000000000000000000000000000000000000000000000000000000000F8
:4008C00000000000000000000000000000000000000000000000000000000000000000000000000000000000000000000000000000000000000000000000000000000002F6
:4009000000000000000000000000000000000000000000000000000000000000000000000000000000000000000000020000000000000000000000000000000000000000B5
:400940000000000000000000000000200000000000000000000000000000000000000000000000000000000000000000000000000000000000000000000040000000000017
:4009800000000000000000000000400000000000000000000000000000000000000000000000000000000000000000000000000000000000000000000000000000000000F7
:4009C00000000000000000000000002000000000000000000000000000000000000000000000000000000000000000000000000000000000000000000000000000000000D7
:400A000000000000000000000000000000000000000000000000000000000000000000000000000000000000000000000000000000000000000000000000000000000000B6
:400A40000000000000000000000000000000000000000000000000200000000000000000000000000000000000000000000000000000000000000000000000000000000056
:400A80000000000000000000000000000000000000000000000000000000000000000000000000000000000000000000000000000000000000000000000000000000000036
:400AC00000000000000000000000000000000000000000000000000000000000000000000000000000000000000000000000000010000000000000000000000000000000E6
:400B0000000000000000000000000000000000000000000000000000000000000000000000000000007F7F0000000000000101000100000000000000000020000300100180
:400B400011001A0100000000000000000000000000000000000000000000000000000000000000000000000000000000000000000000000000000000000000000000000049
:400B80000000000000000000000000000000000000000000000000000000000000000000000000000000000000000000000000000000000000000000000000000000000035
:400BC00000000000000000000000000000000000000000000000000000000000000000000000000000000000000000000000000000000000000000000000000000000000F5
:400C000000000000000000000000000000000000000000000000000000000000000000000000000000000000000000000000000000000000000000000000000000000000B4
:400C40000000000000000000000000000000000000000000000000000000000000000000000000000000000000000000000000000000000000000000000000000000000074
:0200000490006A
:0400000000004005B7
:0200000490105A
:04000000BC90ACAF55
:0200000490303A
:0200000057297E
:0200000490402A
:4000000000000000000000000000000000000000000000000000000000000000000000000000000000000000000000000000000000000000000000000000000000000000C0
:400040000000000000000000000000000000000000000000000000000000000000000000000000000000000000000000000000000000000000000000000000000000000080
:400080000000000000000000000000000000000000000000000000000000000000000000000000000000000000000000000000000000000000000000000000000000000040
:4000C0000000000000000000000000000000000000000000000000000000000000000000000000000000000000000000000000000000000000000000000000000000000000
:0200000490501A
:0C00000000012E12306900012E1C8792B6
:00000001FF