:400000000080002011000000610300006103000080B500AF024A034B1B68136000F0A4F9BC760040FA46004008000223000008760800032300001076080004230000287628
:4000400008000523000030760500062300002070050007230000307005000823000060700500FE230000707020000A220000005130000B22000030511000FE220000C0515B
:4000800080010D220000000080010E220000000280030F22000000048001102200000008800311220000000A800112220000000E800313220000001480011422000000184C
:4000C000000215220000001A800016220000004180001722000000428000182200000043800019220000004480001A220000004580001B220000004800011C22000000492F
:4001000080001D220000004C00011E220000004D2000FE220000005007002023000078520800FE23000078450800222300000051800023230000804C80002423000000475E
:400140008000252300008047800026230000004680002723000080468000282300008045800029230000804480002A230000801980002B230000801780002C23000080090E
:4001800080002D230000800780002E230000800D80002F2300008003800030230000800F8000312300008001800032230000804880003323000080438000342300008042AF
:4001C000800035230000804180003623000000408000FE23000080400100000001000000010000000048014001000000004800400100000000200140010000000020004014
:4002000010B5054C237833B9044B13B10448AFF300800123237010BDC081FF1F00000000B05D0000084B10B51BB108480849AFF300800848036803B910BD074B002BFBD07D
:40024000BDE81040184700BF00000000B05D0000C481FF1F0881FF1F0000000080B596B000AF0023A7F84A3000237B65002387F8533000237B6400233B6462B600200121A8
:4002800000F026FB02F090FE02F0ECFB02F0BEFC00BF00F0BFFC0346002BFAD000F0E0FD002002F0C3FC02F0E1FC0346A7F84A30B7F84A301BB2184602F032FD03467B6414
:4002C0007A6D7B6C13447B6597F85330013387F8533097F85330082B26D10023FB6402E0FB6C0133FB64FB6C104A9342F8DD7B6DDB103B6400237B65002387F853303B4691
:4003000018460B493A6C03F011FD012002F0C8FE0120002102F058FE3B46184602F08AFE3B46184600F006F8BAE700BF9F860100B85D000080B582B000AF786000BF00F0A3
:40034000D5FD0346002BFAD0786803F013FD03469BB27868194600F093FD0837BD4680BD80B400AFFEE700BF80B586B000AF214B7B61214B3B611F4B7B611F4B3B612FE06A
:400380003B691B68FB603B695B68BB603B699B683B6000237B600AE0BB681A1DBA60FA68111DF96012681A607B6804337B607A683B689A42F0D13B69DB683B6000237B6027
:4003C00007E0BB681A1DBA6000221A607B6804337B607A683B689A42F3D13B6910333B617B695A1E7A61002BCAD102F0D3FFFFF735FFFEE7010000000C62000080B582B0C3
:4004000000AF174B174A1A60174A174B1B6843F40073136000237B600FE07B68032B04D8124A7B6852F8233000E0114B11497A6841F822307B6801337B607B682F2BECD9C0
:400440000D4B1B78DAB20D4B1A700D4B094A1A6000F0CEF90B4B00221A600837BD4680BD0CED00E00004FA0514ED00E000000000610300000080FF1FBC7600400481FF1F02
:4004800008ED00E00081FF1F80B584B000AFF860B9607A60F868B9687A6802F0A1FF1037BD4680BD80B483B000AF0346FB71FEE780B483B000AF434B00221A60424B10223A
:4004C0001A70424B01221A70414B00221A70414B4FF4D8721A80404B01221A703F4B03221A703F4B3F4A92B21A803F4B47F608021A803E4B00221A803D4B4FF480421A8014
:400500003C4B09221A703C4B0C221A703B4B1F221A703B4B21221A70BFF35F8F394B01221A70BFF35F8F00BF2A4B1B889BB2002BFAD100237B600DE07B68DA00324B134495
:400540001946324A7B6852F823309BB20B807B6801337B607B68352BEED9BFF35F8F294B01221A70BFF35F8F00BF294B1B78DBB203F00103002BF8D100BF264B1B78DBB25D
:4005800003F00103002BF8D100BF234B1B78DBB203F00103002BF8D100BF204B1B78DBB203F00103002BF8D100BF1D4B1B78DBB203F00103002BF8D10C37BD465DF8047B97
:4005C000704700BFE081FF1F0076004010700040197000400078004002780040037800400478004028000000067800400476004006760040297000403970004069700040A7
:4006000079700040147000400C780040C45D0000187000402870004038700040687000407870004080B582B000AF354835490422FFF72AFF344B06221A70344B52221A701C
:40064000334B344A1278D2B21A70334B40F20B721A80324B41F251221A800023FB7019237B6014E0FB785B00DAB22D4B1B78DBB203F00103DBB21343DBB203F00303FB700C
:400680004FF4F07002F0B4FB7B68013B7B607B68002B02D0FB78032BE4D17B68002B02D10320FFF7FFFE1F4B4FF480721A801D4B07221A701C4B00221A701C4B48221A700D
:4006C000184B00221A701A4B00221A70194B02221A70194B04221A70184A184B1B78DBB243F00103DBB21370154A154B1B78DBB263F07F03DBB213700837BD4680BD00BF86
:4007000000410040B40A00480043004000420040A14600400F01004922420040204200402542004004400040064000400840004009400040014000400B400040A143004075
:40074000A043004080B483B000AF1E4B1B78FB711D4B1B78BB711D4B1B787B711C4AFB7903F00703DBB213701A4AFB791B09DBB21370154ABB7943F00303DBB21370134A9E
:400780007B7943F00303DBB21370134B20221A70124B40221A70124B40221A70114B02221A70114B20221A70084A7B791370064ABB7913700D4B44221A700C37BD465DF85B
:4007C000047B7047CF010049F8460040F94600406E5800406F5800406D5100400159004003590040205B0040235B00407658004080B500AF72B6284A274B1B78DBB243F0A2
:400800000403DBB21370FFF753FE244A234B1B78DBB243F00203DBB21370214A204B1B78DBB243F00203DBB213701E4A1D4B1B78DBB243F04003DBB213701B4A1A4B1B7805
:40084000DBB243F01003DBB21370184818490A22FFF71AFE174818490822FFF715FE174817490822FFF710FE164A164B1B78DBB243F00803DBB21370134B01221A70FFF78A
:40088000D1FE114B81221A70FFF75CFF0F4805490E22FFF7F9FD80BDE84600400350014013500140A0430040C2430040F0510040980A004822510040A40A0048625100407C
:4008C000AC0A00482243004000480040B043004080B582B000AF03460A46FB711346BB71084B1B78002B04D100F00EF8054B01221A70FA79BB791046194600F0CBF80837D3
:40090000BD4680BDE881FF1F80B582B000AF02F077FA0346FB714F4A4E4B1B78DBB243F00103DBB213704C4A4B4B1B78DBB243F00103DBB21370494B01221A70484B02229E
:400940001A70484A474B1B78DBB203F07F03DBB21370002002F08AFA434A434B1B78DBB223F00603DBB21370404A404B1B78DBB223F02003DBB213703B4A3B4B1B78DBB281
:4009800043F00103DBB21370012002F06FFA282002F06CFA364A364B1B78DBB203F07F03DBB21370324A324B1B78DBB223F04003DBB213702C4A2C4B1B78DBB243F002036A
:4009C000DBB21370022002F051FA274A264B1B78DBB243F00403DBB21370264B00221A70254B00221A70FB79184602F00DFA1720224902F04DFA1720072102F071FA15206C
:400A00001F4902F045FA1520072102F069FA18201C4902F03DFA1820072102F061FA0120194902F035FA0120072102F059FA0220164902F02DFA0220072102F051FA032082
:400A4000134902F025FA0320072102F049FA0837BD4680BDA5430040B54300409D60004009600040106000409443004012600040F851004084600040856000405D16000006
:400A8000511600001D0F00004D150000A1150000F515000080B584B000AF03460A46FB711346BB710023FB7306E0FB7B294A0121D154FB7B0133FB73FB7B012BF5D9264B3F
:400AC0004FF400021A60244B4FF080721A60224B02221A60204B04221A601F4B08221A601E4B00221A70BB79002B02D0012B04D007E01B4B02221A7007E0194B03221A70BE
:400B000003E0174B03221A7000BF164AFB791370154B00221A70154B00221A70144B00221A70144B00221A70134B00221A70134B00221A70124B03221A70124B80221A70D4
:400B4000012002F055F9104B04221A701037BD4680BD00BFA082FF1F00E100E09882FF1F096000409982FF1F0B82FF1F0C82FF1F0A82FF1F9E82FF1F0D82FF1F0982FF1F13
:400B800028600040086000401260004080B483B000AF0023FB7106E0FB79144A0121D154FB790133FB71FB79012BF5D9104B00221A70104B00221A700F4B00221A700F4B7F
:400BC00000221A700E4B00221A700E4B00221A700D4B00221A700D4B03221A700C4B80221A700C37BD465DF8047B7047A082FF1F9882FF1F0B82FF1F0C82FF1F0A82FF1F67
:400C00009E82FF1F0D82FF1F0982FF1F286000400860004080B400AF034B1B78DBB21846BD465DF8047B70470B82FF1F90B484B000AF03463960FB711346BB80FB79002B20
:400C400069D0FB79082B66D8FB79013BDBB21B017B737A7B324B1344BB60B988FA79314813465B0013449B000344DB889BB2C3F5007399420BD9FA792A4913465B00134486
:400C80009B000B44DB889BB2C3F50073BB807A7B254B13441C46BB881B0A9BB2D9B2FA79204813465B0013449B000344DB78DBB20B43DBB223707A7B1C4B1344BA88D2B247
:400CC0001A703B68002B0FD00023FB8108E0FB893A6813441A78BB681A70FB890133FB81FA89BB889A42F2D3FA790E4913465B0013449B000B4400225A707A7B0C4B134491
:400D00001846FA79074913465B0013449B000B445B79DBB203701037BD4690BC704700BF886000402882FF1F0C6000400D6000400E60004080B485B000AF0346FB71FB7985
:400D4000002B1ED0FB79082B1BD8FB79013BDBB21B01FB73FA790D4913465B0013449B000B4400225A70FA7B094B13441846FA79064913465B0013449B000B445B79DBB2B9
:400D800003701437BD465DF8047B70472882FF1F0E60004080B582B000AF0023FB71294B1B78DBB2DBB25BB2002B11DA264B1B78DBB2212B00D00AE0244B07221A80234B51
:400DC000234A5A6000F026FA0346FB7100BF34E01C4B1B78DBB2DBB25BB2002B2DDB1A4B1B78DBB2202B02D0222B13D025E0174B07221A80154B164A5A60164B1B78DBB2E9
:400E000043F00103DAB2134B1A7000F085FA0346FB7112E0104B1B78DBB29AB20F4B1A800C4B1B78DBB243F00203DAB2094B1A7000F012FB0346FB7100BFFB79184608379B
:400E4000BD4680BD00600040016000401882FF1F0C81FF1F0482FF1F026000400282FF1F80B500AF044B00221A70044B1B78DBB21846FFF75FFF80BD0482FF1F0082FF1F25
:400E800080B582B000AF78600B467B80154B1B78DBB21946144A0B465B000B449B00134408331B889BB27A889A420FD90D4B1B78DBB219460C4A0B465B000B449B001344C3
:400EC00008331B887B80002001F0A2FF054B1B78DAB27B88104679681A46FFF7A7FE0837BD4680BD0182FF1F2882FF1F80B400AF084B1B78DBB21946074A0B465B000B44DA
:400F00009B0013445B78DBB21846BD465DF8047B704700BF0182FF1F2882FF1F80B582B000AF374B1B78BB71BB7903F01003002B63D00123FB71BB795BB2002B13DABB793F
:400F400003F00F03012B02D00023FB711DE000F061F82C4B1B78DBB2DBB25BB2002B14DA0023FB7111E0BB7903F04003002B02D000F094F809E0BB7903F02003002B02D0BC
:400F800000F0B2F801E00023FB71FB79002B34D01B4B1B78BB71BB795BB2002B2DDB1A4B1B78DAB2194B1B78DBB21343BB71184ABB791370164B1B78DBB2BA799A421CD1CB
:400FC000104B1B78FB710E4B1B78DBB223F07F03BB71BB79002B0AD1094B0A4A1278D2B21A70074B1B78DBB203F00F03FB71054B1B78DBB2FA799A42E2D10837BD4680BD0F
:40100000286000400882FF1F0E82FF1F2482FF1F2960004080B582B000AF1D4B1B78FB711B4AFB7913701A4B1B78FB71FB795BB2002B03DA174AFB79137025E0022000F0D0
:401040004BFA154B1B78DBB203F06003202B08D0402B0BD0002B0ED100F0ECFC0346FB710CE002F04FF90346FB7107E001F0CEFC0346FB7102E00023FB7100BFFB79002B54
:4010800002D1044B03221A700837BD4680BD00BF286000400882FF1F0060004080B500AF104B1B78DBB2062B19D801A252F823F0DF100000DF100000CD100000DF100000E6
:4010C000D3100000DF100000D910000000F0FEF806E000F0B1F903E000F0DAF900E000BF80BD00BF9882FF1F80B500AF124B1B78DBB2062B1DD801A252F823F0331100008B
:401100003311000019110000331100001F110000331100002511000000F0DEF80AE000F02FF907E0032000F0D7F9044B03221A7000E000BF80BD00BF9882FF1F0882FF1F48
:4011400080B483B000AF0023FB712B4B1B78DBB29AB22A4B1B889BB213449AB2274B1A8019E0FB7903F1804303F5C0431A46244B5B681B78DBB21370214B5B680133204AB3
:401180005360FB790133FB711D4B1B889BB2013B9AB21B4B1A801A4B1B889BB2002B02D0FB79072BDDD9144B1B78DBB2082B02D0FB79002B0FD0134B1B78DBB283F07F0365
:4011C000DB43DAB20F4B1A700F4B0F221A700F4B02221A7005E00C4B02221A700B4B02221A70054AFB791370094AFB7913700C37BD465DF8047B70470982FF1F9682FF1F16
:401200001882FF1F0E82FF1F0882FF1F9882FF1F2482FF1F80B582B000AF164B1B889BB2002B02D100F030F81EE0134B02221A70124B00221A7000F06FF9114B1B78DBB240
:401240001B029AB20F4B1B78DBB29BB213439BB2FB80084B1B889BB2FA889A4202D2054AFB881380FFF76CFF012318460837BD4680BD00BF1882FF1F9882FF1F0E82FF1F87
:40128000076000400660004080B400AF0A4B02221A700A4B80221A70094B0F221A70094B00221A70084B00221A7001231846BD465DF8047B704700BF9882FF1F0E82FF1FB7
:4012C0000882FF1F0982FF1F2482FF1F80B500AFFFF736FF80BD00BF80B500AF0A4B1B78DBB29AB2094B1B889BB213449AB2074B1A80074B00221A70012000F0EDF8054B12
:4013000003221A7080BD00BF0982FF1F9682FF1F9882FF1F0882FF1F80B582B000AF124B04221A70114B80221A7000F0F5F8104B1B78DBB21B029AB20E4B1B78DBB29BB211
:4013400013439BB2FB800C4B1B889BB2FA889A4202D2094AFB881380084B0B221A70012318460837BD4680BD9882FF1F0E82FF1F07600040066000401882FF1F0882FF1FCF
:4013800080B483B000AF0023BB71254B1B78DBB203F00F03DBB2023BFB71FB799AB2214B1B889BB213449AB21E4B1A801BE01E4B5A68BB7903F1804303F5C0431B78DBB20F
:4013C0001370194B5B680133174A5360BB790133BB71FB79013BFB71134B1B889BB2013B9AB2114B1A80104B1B889BB2002B02D0FB79002BDBD10D4AFB7913700C4B1B78B4
:40140000DBB283F07F03DB43DAB2094B1A70094B0B221A700C37BD465DF8047B704700BF296000409682FF1F1882FF1F2482FF1F0E82FF1F0882FF1F80B500AF044B0022E1
:401440001A70012000F048F8024B03221A7080BD9882FF1F0882FF1F80B400AF084B06221A70084B06221A70074B80221A70074B00221A7001231846BD465DF8047B7047FF
:401480009882FF1F0882FF1F0E82FF1F2482FF1F80B500AF0C4B1B78DBB2002B0AD00B4A094B1B78DBB263F07F03DBB21370064B00221A70064B00221A70012000F00CF8BD
:4014C000044B03221A7080BD9E82FF1F086000409882FF1F0882FF1F80B483B000AF0346FB710B4B9B68002B0CD0094B9B68FA791A70074B9B68074A128892B25A80044BBF
:4015000000229A600C37BD465DF8047B704700BF1882FF1F9682FF1F80B400AF094B00221A80094B9B68002B07D0074B9B6800221A70054B9B6800225A80BD465DF8047B9E
:40154000704700BF9682FF1F1882FF1F80B400AF104B1B78104B1B7BDBB203F00303012B08D00D4BDB7BDBB283F07F03DB43DAB2094BDA73084B01225A73084A074B1B78C6
:40158000DBB223F00103DBB21370BD465DF8047B704700BF0E6000402882FF1F0B60004080B400AF104B1B78104B1B7EDBB203F00303012B08D00D4BDB7EDBB283F07F0387
:4015C000DB43DAB2094BDA76084B01225A76084A074B1B78DBB223F00203DBB21370BD465DF8047B704700BF1E6000402882FF1F0B60004080B400AF124B1B78124B93F832
:401600002430DBB203F00303012B0AD00E4B93F82730DBB283F07F03DB43DAB20A4B83F82720094B012283F82520084A074B1B78DBB223F00403DBB21370BD465DF8047B50
:40164000704700BF2E6000402882FF1F0B60004080B400AFBD465DF8047B704780B500AFFFF794FA80BD00BF80B582B000AF0023FB716F4B1B78BB716E4B1B78DBB2DBB25A
:401680005BB2002B6DDA6C4B1B78DBB2013B052B65D801A252F823F0F7160000111700003D1700005F1700005F170000B1160000624B1B78DBB2212B0BD100F0CBF8604B9C
:4016C0001B889BB2002B15D0FFF7A4FD0346FB7146E05A4B1B78DBB2222B0BD100F0F8F8574B1B889BB2002B04D0FFF793FD0346FB7135E034E000F033F9514B1B889BB20D
:40170000002B04D0FFF786FD0346FB7128E027E0BB79012B11D84B4B1B78DBB2002B0CD1474B01221A80BB79474A1344444A5360FFF770FD0346FB7112E011E0BB79012B5F
:401740000CD83F4B01221A80BB79404A13443C4A5360FFF75FFD0346FB7101E000E000BF61E0344B1B78DBB2DBB25BB2002B5ADB314B1B78DBB20A2B11D00B2B3FD0092B64
:4017800000D050E000F0ECF82D4B1B889BB2002B04D0FFF7C1FD0346FB7144E043E0BB79012B2BD8274B1B78DBB2002B26D1BB79224A1278D1B2244AD154BB79224AD35C18
:4017C000DAB2BB792249CB5CDBB29A4204D2BB791F4A0021D1540CE0BB791D4AD35CDBB2012B06D9BB79BA7917498A5CD1B2184AD154FFF731FE0346FB7114E013E0BB797B
:40180000012B0FD80F4B1B78DBB2012B0AD8BB790C4A1278D1B20D4AD154FFF71DFE0346FB71FFE700BFFB7918460837BD4680BD04600040006000400160004003600040B6
:401840001882FF1F02600040A882FF1FA082FF1FA482FF1F80B584B000AF194B1B78DBB2013BDBB2184600F021FFF860154B1B78FB72FB7A0233DB00FA681344FB60FB68BB
:401880005B68FB60FB7A104AD35CDBB2DB00FA681344FB60FB685B68FB60FB682033FB60FB685B687B607B681B78DBB29AB2074B1A80064A7B6853601037BD4680BD00BF96
:4018C0000B82FF1F046000401482FF1F1882FF1F80B584B000AF1E4B1B78DBB2013BDBB2184600F0E3FEF8601A4B1B78FB72FB7A0233DB00FA681344FB60FB685B68FB60BD
:40190000FB7A154AD35CDBB2DB00FA681344FB60FB685B68FB60FB681833FB60FB685B687B607B6801331B78DBB21B029AB27B681B78DBB29BB213439BB29AB2074B1A80D2
:401940007B680233054A53601037BD4680BD00BF0B82FF1F046000401482FF1F1882FF1F80B584B000AF2D4B00221A802C4B1B78DBB2013BDBB2184600F098FEF860294BF0
:401980001B78FB72284B1B78BB72BB7A0233DB00FA681344FB60FB685B68FB60BB7A012B38D8BB7A214AD35CDBB2DB00FA681344FB60FB685B68FB60FB7A002B2AD0FB7ACE
:4019C000032B27D8FB7A03F10053013BDB00FA681344FB60164B1B78FB72FB681B78FA7A9A4217D8FB685B687B60FA7A13465B0013449B001A467B6813447B607B685B6807
:401A0000064A53607B681A88044B1A807B689B68024A93601037BD4680BD00BF1882FF1F0B82FF1F03600040046000401482FF1F0260004080B586B000AF0023FB750023FA
:401A40003B619D4B00221A809C4B1B78DBB2DBB25BB2002B80F20681994B1B78DBB20A2B00F2FE8001A252F823F000BFB51B0000611C0000611C0000611C0000611C000035
:401A8000611C0000991A0000611C00002B1C0000611C0000411C00008A4B1B78DBB2012B0ED100F02DFEB860BB685B68824A5360814B12221A80FFF7ADFB0346FB7578E077
:401AC000804B1B78DBB2022B24D17F4B1B78DBB2184600F0EBFDB860BB68002B69D0BB685B68754A5360744B5B6803331B78DBB21B029AB2704B5B6802331B78DBB29BB261
:401B000013439BB29AB26C4B1A80FFF783FB0346FB75A6E06B4B1B78DBB2032B44D10023FB736A4B3B6109E03B691B78FB71FB793A6913443B61FB7B0133FB73624B1B78C9
:401B4000DBB2FA7B9A4204D23B691B78DBB2002BEAD15D4B1B78DBB2EE2B01D15C4B3B61594B1B78DBB2002B0BD0574B1B78DAB2584B1B7C9A4204D1574800F0ADF9564BC5
:401B80003B613B691B78DBB2002B12D03B691B78DBB29AB2484B1A80474A3B695360FFF739FB0346FB755CE001F0ACFB0346FB7557E056E0414B1B78DBB203F00303002BE6
:401BC0001FD0022B00D02FE03B4B02221A80434B1B78DBB203F07F02414913465B0013449B000B449B78DAB23E4B1A703D4B00225A70314B3B4A5A60FFF70CFB0346FB756E
:401C000012E02D4B02221A80374B1B78DAB2354B1A70344B00225A70274B324A5A60FFF7F9FA0346FB7500BF1BE0234B01221A80214B2E4A5A60FFF7EDFA0346FB7510E013
:401C40001D4B01221A80254B1B78DBB21A46284B1344194A5360FFF7DDFA0346FB7500E000BF20E1164B1B78DBB2013B0A2B00F2198101A252F823F0891D0000A51E000062
:401C8000171E0000A51E0000A51C0000A51E0000A51E0000A51E0000F91C0000A51E00004F1D0000084B1B78DAB2124B1A70FFF7D3FB0346FB75F6E01882FF1F00600040DA
:401CC000016000400360004002600040085F00004C600000B05E0000B882FF1F046000402882FF1FEC81FF1F0D82FF1F0B82FF1F1482FF1F9E82FF1F6D4B1B78BB71BB7999
:401D0000002B06D0BB79013BDBB2184600F0CEFCB860BB79002B02D0BB68002B02D1BB79002B13D1634B1B78DBB2BA799A4208D0604ABB791370604B01221A70012000F061
:401D4000D3F9FFF789FB0346FB75ACE0ABE000F021FE0346002B16D0584B1B787B71584A7B791370544B01221A7000F061FB7B797A7954498A5CD1B2534AD154FFF76CFB05
:401D80000346FB758FE08EE0504B1B78DBB203F00303012B22D0012B0DD3022B00D039E0434B1B78DBB2002B04D100F051FD0346FB752FE02EE03E4B1B78DBB2012B0CD125
:401DC000434B1B78DBB223F00203DAB2404B1A70FFF742FB0346FB751CE01BE0374B1B78DBB2012B15D8324B1B78DBB2DB43DBB2324A1278D2B211461046364A125CD2B2ED
:401E00001340DAB2334B5A54FFF726FB0346FB75FFE700BF47E02D4B1B78DBB203F00303012B22D0012B0DD3022B00D039E0204B1B78DBB2002B04D100F09AFC0346FB7560
:401E40002FE02EE01A4B1B78DBB2012B0CD1204B1B78DBB243F00203DAB21D4B1A70FFF7FBFA0346FB751CE01BE0144B1B78DBB2012B15D80E4B1B78DBB2DB43DBB20F4AC6
:401E80001278D2B211461046124A125CD2B21340DAB2104B5A54FFF7DFFA0346FB75FFE700BF00E000BFFB7D18461837BD4680BD026000400B82FF1F0A82FF1F0460004065
:401EC0000C82FF1F1482FF1F9482FF1F006000400D82FF1F9C82FF1F90B488B000AF78600023BB771F4B07F10C040FCB84E80F007B68002B32D07B6822221A707B680133CE
:401F000003221A700223FB7725E0BB7F03F1924303F580731B787B77BB7F0133BB77FB7F7A6813447A7F1209D2B207F120010A4412F8142C1A70FB7F02337A6813447A7FDC
:401F400002F00F0207F120010A4412F8142C1A70FB7F0433FB77FB7F212BD6D92037BD4690BC70479C5E000080B483B000AF0123FB710023BB7197E0BB7903F1804303F5E5
:401F8000C1430C221A70FA794E4913465B0013449B000B445B79DBB2002B18D0FA79494913465B0013449B000B441B79DBB2DBB25BB2002B05DABA79434B13440C221A7063
:401FC0000AE0BA79404B134408221A7004E0BA793D4B134480221A70BA793C4B13441846FA79384913465B0013449B000B4408331B889BB21B0A9BB2DBB20370BA79344B65
:4020000013441846FA792F4913465B0013449B000B4408331B889BB2DBB20370BA792D4B13441846FA79274913465B0013449B000B44DB889BB2DBB20370BA79264B1344FD
:402040001846FA791F4913465B0013449B000B44DB889BB21B0A9BB2DBB20370BA791F4B13441846FA79174913465B0013449B000B44DB889BB2DBB20370BA79184B134459
:402080001846FA790F4913465B0013449B000B44DB889BB21B0A9BB2DBB20370FB790133FB71BB791033BB71BB795BB2002BBFF663AF0C4BFF221A700C37BD465DF8047BDA
:4020C000704700BF2882FF1F0E6000400C6000400D600040866000408760004084600040856000400A60004080B588B000AF0346FB7100237B830023FB7743E0FA7FA2494D
:4021000013465B0013449B000B4400221A70FA7F9D4913465B0013449B000B4400229A70FA7F994913465B0013449B000B4400225A70FA7F944913465B0013449B000B44F7
:402140000022DA70FA7F904913465B0013449B000B4400225A71FA7F8B4913465B0013449B000B44083300221A80FA7F864913465B0013449B000B44083300229A70FB7F68
:402180000133FB77FB7F082BB8D9FB79002B10D000237B770AE07B7F7C4A0021D1547B7F7B4A0021D1547B7F01337B777B7F012BF1D9784B1B78DBB2002B00F03281754B31
:4021C0001B78DBB2013BDBB2184600F06FFA38613B695B68FB60FB6807331B7803F04003002B08D06C4B1B78DBB243F00103DAB2694B1A7007E0684B1B78DBB223F00103D2
:40220000DAB2654B1A703B6908333B613B691B78FB7701237B77ADE03B695B687B610023BB779FE07A7F7B699B7803F07F039A4240F092807A7F544913465B0013449B003B
:402240000B4408331B889AB27B699B889A420BD27A7F7B6998884C4913465B0013449B000B44083302461A807B691B781A46474B9B5CDAB27B695B789A426DD17B69DB788D
:4022800003F00303FB727B699B78DBB25BB2002B26DA7A7F3C4913465B0013449B000B4401225A707A7FFB7A012B01D1072000E00D20354913465B0013449B000B44024641
:4022C0005A717B699B790A2B03D07B699B79022B2CD1FB7A032B29D0304A7B7F137025E07A7F294913465B0013449B000B4400225A707A7FFB7A012B01D1052000E0092073
:40230000214913465B0013449B000B4402465A717B699B790A2B03D07B699B79022B05D1FB7A032B02D01E4A7B7F13707A7F7B699878154913465B0013449B000B4402464E
:402340001A717A7F7B69D8780F4913465B0013449B000B4402461A707B6908337B61BB7F0133BB77BA7FFB7F9A42FFF45BAF7B7F01337B777B7F082B7FF64EAF3B695B6839
:402380007B6100237B7722E02882FF1F1482FF1F9482FF1F0B82FF1F0D82FF1F0182FF1F0082FF1F7B699B7803F07F027B6918781D4913465B0013449B000B440833024624
:4023C0009A707B6908337B617B7F01337B777A7FFB7F9A42E6D300F0A5F90246134B1A600123FB7718E0FA7F0F4913465B0013449B000B447A8BDA80FA7F0B4913465B00CE
:4024000013449B000B4408331B889AB27B8B13447B83FB7F0133FB77FB7F082BE3D9FFF7A3FD2037BD4680BD2882FF1F1082FF1F80B584B000AF914B1B78DBB2002B00F079
:402440001A818E4B1B78DBB2013BDBB2184600F02DF978607B6808337B607B681B78FB707B685B68BB600023FB73FFE0BB681B781A46834B9B5CDAB2BB681B781946814B60
:402480005B5CDBB29A4200F0EB80BB681B781A467B4B9B5CDAB2BB685B789A4240F0E080BB681A78784B1B78DBB29A4240F0D880BB689B7803F07F03BB70BB78013BDBB212
:4024C0001B017B70BB68DB7803F003033B70BB689B78DBB25BB2002B18DABA786B4913465B0013449B000B4401225A70BA783B78012B01D1072000E00D20644913465B008E
:4025000013449B000B4402465A7117E0BA785F4913465B0013449B000B4400225A70BA783B78012B01D1052000E00920574913465B0013449B000B4402465A717A78544B4B
:40254000134401221A70BA78BB6898884F4913465B0013449B000B44083302461A80BA78BB689878494913465B0013449B000B4402461A71BA78BB68D878444913465B0093
:4025800013449B000B4402461A70BA783F4913465B0013449B000B440022DA707A783D4B13441846BA78394913465B0013449B000B4408331B889BB21B0A9BB2DBB2037078
:4025C0007A78354B13441846BA78304913465B0013449B000B4408331B889BB2DBB203707A782E4B13441846BA78284913465B0013449B000B44DB889BB2DBB203707A788F
:40260000274B13441846BA78204913465B0013449B000B44DB889BB21B0A9BB2DBB203707A78204B13441846BA78184913465B0013449B000B44DB889BB2DBB203707A7885
:40264000194B13441846BA78104913465B0013449B000B44DB889BB21B0A9BB2DBB20370BB680833BB60FB7B0133FB73FA7BFB789A42FFF4FBAE1037BD4680BD0B82FF1F7C
:402680001482FF1F9482FF1F046000402882FF1F0E6000400C6000400D6000408660004087600040846000408560004080B485B000AF0346FB71104B1B78DBB20F4ADB00AD
:4026C00013445B68FB60FB680833FB60FB681B78FA799A4202D30023FB6005E0FB79DB00FA6813445B68FB60FB6818461437BD465DF8047B704700BF9982FF1F4460000093
:4027000080B400AF054B1B78DBB2054ADB0013445B681846BD465DF8047B70479982FF1F4460000080B584B000AF104B1B78DBB2013BDBB21846FFF7B9FFB860BB68002B6B
:402740000DD0BB685B681B79FB71FB790233DB00BA681344BB60BB685B68FB6001E00023FB60FB6818461037BD4680BD0B82FF1F80B582B000AF0023FB71324B1B78DBB2A9
:4027800003F07F03BB71BB79013BDBB21B017B71BB79002B51D0BB79082B4ED8BA79B97929480B465B000B449B0003449B78DBB243F00103D8B2244913465B0013449B003F
:4027C0000B4402469A70BA791F4913465B0013449B000B440022DA70BA79B9791A480B465B000B449B0003445B78DBB243F00203D8B2154913465B0013449B000B440246DB
:402800005A70BA79104913465B0013449B000B441B79DBB2DBB25BB2002B05DA7A790B4B13448D221A7004E07A79084B134489221A70FEF711FE0346FB71FB79184608372F
:40284000BD4680BD046000402882FF1F0E60004080B582B000AF0023FB714A4B1B78DBB203F07F03BB71BB79013BDBB21B017B71BB79002B00F08180BB79082B7DD8BA79BF
:40288000B97941480B465B000B449B0003449B78DBB223F00103D8B23B4913465B0013449B000B4402469A70BA79374913465B0013449B000B440022DA707A79334B134498
:4028C00019467A79314B13441B78DBB203F07F03DBB20B70BA79B9792B480B465B000B449B0003445B78DBB223F00203D8B2264913465B0013449B000B4402465A70BA79B6
:40290000214913465B0013449B000B441B79DBB2DBB25BB2002B16DABA791B4913465B0013449B000B445B78DBB2012B05D17A79174B13440C221A701BE07A79144B13446C
:402940000D221A7015E0BA790F4913465B0013449B000B445B78DBB2012B05D17A790C4B134408221A7004E07A79094B134409221A70FEF771FD0346FB71FB791846083712
:40298000BD4680BD046000402882FF1F0C6000400E60004080B584B000AF0123FB73164B1B78BB73154B1B78DBB2013BDBB21846FFF77CFEB860BB685B681B79FB71BA7BFB
:4029C000FB799A4202D2BB7B012B02D90023FB730CE0BB7BBA7B0A498A5CD1B2094AD154BB7B094A1278D1B2054AD154FB7B18461037BD4680BD00BF046000400B82FF1FE7
:402A00001482FF1F9482FF1F0260004080B582B000AF0023FB710F4B1B78DBB2DBB25BB2002B12DA0C4B1B78DBB2012B00D00CE00A4B0B4A5A600A4B1B789AB2074B1A8059
:402A4000FEF7E8FB0346FB7100BFFB7918460837BD4680BD00600040016000401882FF1F6060000080B500AF054B1B78002B04D100F008F8024B01221A7000F025F880BD05
:402A8000F081FF1F80B500AF102000F095F90020072100F025FA0020084900F0F9F9084A074B1B78DBB243F00603DBB213700C2000F084F8034B00221A8080BDAD2D000082
:402AC00001590040B682FF1F80B582B000AF00F097F90346FB712E4A2D4B1B78DBB243F00103DBB213702B4A2A4B1B78DBB243F00103DBB21370284A274B1B78DBB243F0BC
:402B00000103DBB21370254A244B1B78DBB243F00103DBB21370224B1B78BB71BB7943F00203BB71BB7943F00103BB711C4ABB7913701C4B18221A701B4A1B4B1B78DBB2AE
:402B400043F04003DBB21370174A174B1B78DBB223F02003DBB21370144BC8221A70144B02221A70134A134B1B78DBB243F00803DBB213700A2000F079F90F4B01221A601A
:402B8000FB79184600F040F90837BD4680BD00BFAB430040BB430040A1430040B14300400359004006590040055900400059004014460040275B004080E200E080B584B09F
:402BC00000AF0346FB71FB790A2B07D00C2B02D0082B06D008E0C423FB730BE08423FB7308E04423FB7305E0C423FB73002000F00FF900BF044AFB7B1370FB79184600F0CB
:402C00004FF81037BD4680BD0259004080B400AF054A054B1B78DBB243F00103DBB21370BD465DF8047B70470059004080B584B000AF0346FB710C4B1B78DBB203F00103E0
:402C4000FB73FB7B012B02D0FB79002BF3D0FB7B012B04D1012000F009F9034B1B78FB7B18461037BD4680BD0159004080B483B000AF094B1B88FB80084B1B889BB29BB298
:402C8000FA88D31A9BB29BB21BB218460C37BD465DF8047B704700BFA05B0040AC82FF1F80B584B000AF0346FB71FB790A2B08D00C2B02D0082B08D00BE04FF48053FB600B
:402CC0000DE04FF48063FB6009E04FF48073FB6005E00023FB60002000F09AF800BF0C4B00221A80FB6842F2107202FB03F303F6C413084A82FB0312D212DB17D31A064A42
:402D00001360064B00221A801037BD4680BD00BFB482FF1FAD8BDB68B082FF1FAC82FF1F80B485B000AF0346FB801D4B1B889BB2002B09D01A4B1B889BB21AB213469B0015
:402D400013445B00FB6002E0164B1B68FB60164B1B889BB2FA889BB2D31A9BB2FB80B7F9063042F2107202FB03F2B7F90630002B04DDFB68D90F0B445B1004E0FB68D90F9C
:402D80000B445B105B421A44FB6892FBF3F37B817B891BB218461437BD465DF8047B7047B482FF1FB082FF1FB682FF1F80B400AFBD465DF8047B704780B483B000AF0346BA
:402DC000FB71094B084A1278D2B2D1B2FA7922F00702D2B20A43D2B2D2B21A700C37BD465DF8047B704700BF02410040000000000230800803D000BF01380046FCD17047DD
:402E0000EFF3108072B6704780F31088704700BF80B483B000AF0346FB7101BE0C37BD465DF8047B704700BF80B582B000AF786008E00C4B1B681846FFF7DAFF7B68A3F54E
:402E400000437B607B68B3F5004FF2D8064B1B687A6802FB03F31846FFF7CAFF0837BD4680BD00BF2081FF1F1881FF1F80B582B000AF0346FB80FB88044A127802FB03F3EE
:402E80001846FFF7B5FF0837BD4680BD1C81FF1F80B584B000AF03463960FB710F4B1B68FB60FB791F2B02D90020FFF7B1FFFB7903F01F0310339B00FA6813441B68BB6015
:402EC000FB7903F01F0310339B00FA6813443A681A60BB6818461037BD4680BD08ED00E080B582B000AF03460A46FB711346BB71BB79072B02D90020FFF78AFFFB791F2B7B
:402F000002D90020FFF784FFFB7903F01F0303F1604303F56443BA795201D2B21A700837BD4680BD80B500AF2820FFF77DFF032000F0B8F90520FFF777FF032000F0B2F99A
:402F40000F20FFF771FF032000F0ACF90120FFF76BFF022000F0A6F90520FFF765FF062000F09EF80E2000F09BF82C2000F098F8082000F095F8012000F092F80C2000F0CE
:402F80008FF8032000F08CF80520FFF74DFF80BD80B500AF0C2000F083F8024B01221A7080BD00BFF181FF1F80B500AF054B1B78002B04D1FFF7B6FF024B01221A70FFF7EC
:402FC000E7FF80BDF281FF1F80B582B000AF03460A46FB711346BB71FB79032B26D801A252F823F0F52F000003300000113000001F300000BB79803BDBB2184600F050F8E4
:4030000015E0BB79403BDBB2184600F049F80EE0BB796C3BDBB2184600F042F807E0BB792C3BDBB2184600F03BF800E000BF0837BD4680BD80B584B000AF78600123FB73C2
:403040007B681B78BB730BE0BB7B184600F00EF8FB7B7A6813441B78BB73FB7B0133FB73BB7B002BF0D11037BD4680BD80B584B000AF0346FB7100F02DF8FB791B09FB731E
:40308000FB7B184600F0D2F8FB7903F00F03FB73FB7B184600F0CAF81037BD4680BD00BF80B584B000AF0346FB7100F013F8FB791B09FB73FB7B184600F0F4F8FB7903F0EA
:4030C0000F03FB73FB7B184600F0ECF81037BD4680BD00BF80B582B000AF4F4A4E4B1B78DBB223F07F03DBB213704C4B1B78DBB223F00F03FB71494AFB7943F00F03DBB234
:403100001370474B1B78DBB223F00F03FB71444AFB791370434B1B78DBB223F00F03FB71404AFB7913703C4A3B4B1B78DBB223F02003DBB21370384A374B1B78DBB243F0BB
:403140004003DBB213700020FFF790FE324A324B1B78DBB243F01003DBB213700120FFF785FE314B1B78FB712B4A2B4B1B78DBB223F01003DBB213700020FFF777FEFB7994
:4031800003F00803FB71244A234B1B78DBB243F01003DBB213700120FFF768FE1E4A1E4B1B78DBB223F01003DBB21370FB79002BC9D1194A184B1B78DBB223F04003DBB2AD
:4031C0001370154A144B1B78DBB223F07F03DBB21370124A114B1B78DBB223F00F03DBB213700F4B1B78DBB223F00F03FB710C4AFB7943F00F03DBB213700A4B1B78DBB21D
:4032000023F00F03FB71074AFB7943F00F03DBB213700837BD4680BD205100402251004023510040245100402151004080B582B000AF0346FB711A4A194B1B78DBB243F0FF
:403240002003DBB21370164A154B1B78DBB223F04003DBB213700020FFF708FE104A104B1B78DBB223F00F03DBB213700C490C4B1B78DAB2FB791343DBB243F01003DBB2BA
:403280000B700120FFF7F2FD054A054B1B78DBB223F01003DBB213700837BD4680BD00BF2051004080B582B000AF0346FB71144A134B1B78DBB223F06003DBB21370104A22
:4032C0000F4B1B78DBB223F00F03DBB213700C490B4B1B78DAB2FB791343DBB243F01003DBB20B700120FFF7C1FD054A044B1B78DBB223F01003DBB213700837BD4680BD68
:403300002051004080B582B000AF0023FB710023BB711C4B1B78DBB203F00303012B02D0022B04D012E0184B1B78BB710EE0164B1B78DBB203F07F02144913465B0013440A
:403340009B000B4408339B78BB7100BF104B1A68BB7913441B78022B09D0032B02D0012B0AD00AE0FEF780F90346FB7105E0FDF711FD0346FB7100E000BFFB7918460837CA
:40338000BD4680BD00600040046000402882FF1F1082FF1F0E4B70B51E460E4C0025E41AA410A54204D056F8253098470135F8E702F01AFF084B094C1E46E41AA4100025BE
:4033C000A54204D056F8253098470135F8E770BDF4610000F4610000F4610000FC61000010B5431E0A44914204D011F8014B03F8014FF8E710BD03460244934202D003F85A
:40340000011BFAE770472DE9F0471E4688B0149F002BB8BF06F10043129927F02007B6BF1E4600232D23462F1446109DDDF84CA00B7003D0452F03D1013501E0032300E03B
:4034400002238DE8280406AB039307AB04932246334600F021FD472F804602D1119BDB0726D5462F08EB050911D198F80030302B0AD1204631460022002302F031FC18B90F
:40348000C5F10105CAF80050DAF800309944204631460022002302F023FC08B1CDF81C90079B4B4504D25A1C079230221A70F7E74046079B159AC8EB0303136008B0BDE8D1
:4034C000F087034673B50029B8BF494203F8022BB4BF2D222B22092942701ADD0DF1070426460A2291FBF2F502FB1511092D01F1300104F8011D2946F3DC3031651E04F8DF
:40350000011CB5421A460AD215F8012B03F8012BF7E71A463024214402F8024B5970101A02B070BD2DE9F04F91B08B4615461E461A9F044601F06CFAD0F800A0504600F05D
:4035400019FC00230E933B680990073323F0070303F108029BF818803A60D3E90023CBE91223DBE9120100F0B9FB0128DBE9120119D10022002302F0BDFB10B12D238BF86C
:403580004330A04BA04FB8F1470F88BF1F460323CBF81030DBF8003023F00403CBF800304FF00009A1E000F099FBDBF8003048B9964A974FB8F1470F88BF17460322CBF838
:4035C0001020E9E7DBF80420DBE91201571CCDE90A0101D1062209E0B8F1670F02D0B8F1470F05D1002A40F0C7810122CBF80420DBF8042043F480638DE80C00CBF80030EF
:403600000DF1330302930DAB03930EAB059300230693CDF81080DDE90A232046FFF7F3FE08F0DF03472B07460AD10D9BD81C03DBDBF80420934237DDA8F102085FFA88F887
:40364000B8F1650F0D9915D8013942460BF150000D91FFF736FF0E9A81468318012ACBF8103003DCDBF80020D10738D50133CBF8103034E0B8F1660F18D10029DBF8043052
:4036800009DDCBF810101BB9DBF80020D20721D501330B441CE01BB9DBF80020D00701D5023315E0012313E04FF067080D9B0E9A934207DBDBF80020CBF81030D10709D516
:4036C000013305E0002BD4BFC3F1020301231344CBF810300D9B4FF00009CBF858309DF8333013B12D238BF843300096204659460FAA2B4600F05CF9013002D14FF0FF3003
:4037000052E1DBF800305A0505D4204629463A46DBF8103008E1B8F1650F40F2D080DBE912010022002302F0DBFA50B320462946384A0123B0470130E0D00E9B0D9A9A42C6
:4037400009DBDBF80030D80705D4DBF800309F0700F1108107E1204629465246099BB0470130CBD000270E9B013B9F42EDDA204629460BF11A020123B0470130BED0013710
:40378000F1E70D9B002B29DC20462946214A0123B0470130B2D00D9B2BB90E9B1BB9DBF80030D907D1D5204629465246099BB0470130A3D04FF000080D9B20465B4298453E
:4037C000294608DA0BF11A020123B047013095D008F10108F0E73A460E9BA5E0DBF858200E9B9A42A8BF1A46002A914602DC4FF000081CE0204629463A464B46B047013061
:40380000F5D17BE78E6000008A60000096600000926000009A600000204629460BF11A020123B04701303FF469AF08F10108DBF85830B9F1000FB4BF1A46C9EB03029045AB
:40384000EADB07EB03080D9A0E9B9A4210DBDBF80030DA070CD40E9A1744C8EB07030D9FD21B9342A8BF1346002B1F4608DC0EE0204629465246099BB0470130EBD13DE742
:40388000204629464246B04701303FF437AF4FF000080AE0204629460BF11A020123B04701303FF42BAF08F101080D9A0E9B002FA3EB0203A8BFDB1B9845EBDB45E70E9A0B
:4038C000012A01DCDB0736D5204629463A460123B04701303FF412AF204629465246099BB04701303FF40AAFDBE912010022002302F0F6F9E8B90E9B204629467A1C013B2B
:403900001DE0204629460BF11A020123B04701303FF4F4AE01370E9B013B9F42F1DB204629464B460BF15002B04701307FF40DAFE4E60027EFE7204629463A460123B04770
:403940000130ECD1DAE6204629460BF119020123B04701303FF4D2AE0137DBF80C300F9A9B1A9F42EFDBDBF80C000F9B9842B8BF184619E00027F0E743F480638DE80C0094
:40398000CBF800300DF1330302930DAB03930EAB059300230693CDF810802046DDE90A23FFF731FD074640E611B0BDE8F08F00BF2DE9F84391461F468A680B6906469342F3
:4039C000B8BF1346C9F8003091F843200C46DDF8208012B10133C9F800302368990642BFD9F800300233C9F80030256815F006051CD094F843302268003318BF0123920641
:403A00001FD5E118302081F843005A1C94F845102244023382F8431013E03046394604F119020123C047013007D00135E368D9F800209B1A9D42F0DBDBE74FF0FF30BDE8FD
:403A4000F8833046394604F14302C0470130F4D02268D9F80050E36802F00602042A08BF5D1B2269A3680CBF25EAE57500259342C4BF9B1AED184FF00009A9450ADA3046B2
:403A8000394604F11A020123C0470130D5D009F10109F2E70020BDE8F88300002DE9FF410C461746227E98466E2A06460A9B01F1430100F0B08012D8632A23D00AD8002A80
:403AC00000F0BD80582A40F0CC8084F84520DFF804E257E0642A1ED0692A1CD0C1E0732A00F0B18009D86F2A2ED0702A40F0B980226842F0200222603FE0752A24D0782A3D
:403B00003BD0AEE01A6804F14205111D1960136884F84230A9E020681A6810F0800F02D0101D186008E010F0400F02F10400186002D0B2F9003000E01368002B3EDA2D2245
:403B40005B4284F8432039E020681A6810F0800F02D0101D186007E010F0400F02F10400186001D0138800E01368227EDFF864E16F2A0CBF08220A221CE07822DFF858E118
:403B800084F845202268186812F0800F00F104051D6003D1550601D5038800E00368D00744BF42F0200222601BB9226822F0200222601022002084F8430002E0DFF814E1B4
:403BC0000A226568002DA8BF2068A560A4BF20F00400206003B965B10D46B3FBF2F002FB10331EF8033005F8013D03460028F4D100E00D46082A0BD12368DA0708D52369EF
:403C000062689A42DEBF302305F8013C05F1FF35491B21612EE025681A6815F0800F606903D0151D1D60136808E015F0400F02F104051D60136801D0188000E01860002319
:403C400023610D4616E01A68111D1960156800212846626800F0E8FE08B1401B6060636804E004F1420584F8422001232361002384F84330CDF800803046214603AA3B46FB
:403C8000FFF796FE013002D14FF0FF301FE0304639462A462369C0470130F5D023689B0705D4E068039B9842B8BF18460FE00025E368039A9B1A9D42F3DA3046394604F139
:403CC00019020123C0470130DED00135F0E704B0BDE8F0819C600000AD60000031F0004310B51BD00F4AA1F58014944210D901F1FF410C4A01F5E001914209D9B3F5801F0E
:403D000008D3094A934207D1B0FA80F0400910BD042010BD032010BD002010BD0028E6D1022010BDFFFFDF7F0000F07F0EB400B54FF402719CB0ADF814106FF0004104919A
:403D400007914FF6FF711DABADF81610084953F8042B02900690086802A9019301F052FA029B00221A701CB05DF804EB03B070478481FF1F034613F8012B002AFBD1181AF6
:403D8000013870472DE9F74F03690C698046A3427EDB013C01F114074FEA840E00F1140606EB0E0357F82450019356F824300135B3FBF5F507EB0E09BDB34FF0000A3846A9
:403DC000B446D34650F8043B9AB21B0C02FB05A26B4303EB124392B2C2EB0B0BBCF800204FEA134A5A441FFA83FBDCF800304845CBEB134303EB224392B242EA03424FEA9D
:403E0000234B4CF8042BDDD956F80E306BB9019B043BB3421A4602D8C8F8104005E01268043B002AF8D1013CF3E7404601F01BF800282BDB304601354FF0000E57F8042B4A
:403E4000036891B2C1EB0E0E120C99B27144C2EB134303EB214389B24FEA234E4F4541EA034340F8043BE9D956F8242006EB840362B9043BB3421A4602D8C8F8104005E0AE
:403E80001268043B002AF8D1013CF3E7284600E0002003B0BDE8F08F2DE9F04F456A95B08246219CCDE9022345B9102000F0B4FDCAF82400456085600560C560DAF8243062
:403EC000196859B15A68012393404A608B60504600F0EDFDDAF8243000221A60039BA24A002BBDBF01232360039B0023BCBF23F000430393039FA8BF236027F000431B0DA9
:403F00001B0593421DD142F20F73209A1360029B43B9964A964BC7F31300002814BF1846104600E09248229B002B00F06985C37813B100F1080300E0C31C229A136000F08C
:403F40005FBDDDE90245002220462946002301F0C7FE804658B1209A01231360229B002B00F03C8583481860013800F049BD13AB009312AB0193504622462B4600F0EEFF2F
:403F8000C7F30A5607905EB1C5F3130343F07F51204641F44011A6F2FF36CDF844801DE0139B129E1E446FF482639E42A1BF029A06F2124322FA03F06F4BB7BF6F4B9B1B51
:403FC000029A9B1BAABF9F4002FA03F0384301F0A9FB0123A1F1F871013E11930022684B01F062FA5AA3D3E9002301F011FC5AA3D3E9002301F05AFA044630460D4601F005
:40400000A1FB57A3D3E9002301F002FC02460B462046294601F04AFA04460D4601F092FE2946834600222046002301F063FE58B1584601F087FB02460B462046294601F0AD
:404040004FFE08B90BF1FF3BBBF1160F0DD84D4B03EBCB03D3E90001DDE9022301F068FE30B10BF1FF3B002300E00123109300E01090129B9E1B731E0A9345BF5B420993C1
:40408000002300234CBF0A930993BBF1000F07DB0A9BCDF834B05B440A9300230B9308E0099BCBEB03030993CBF100030B9300230D931E9B092B29D8052BC4BF043B1E93F9
:4040C0001E9BC8BF0025A3F10203D8BF0125032B21D8DFE803F0020E0410002300E001230C931F9B002B20DC0123069305931A4619E0002300E001230C931F9B5B440693F3
:404100000133012B0593B8BF012311E0012500231E930C9501E001230C934FF0FF3306930593002212231F9202E01F9B06930593DAF8244000226260042101F114029A4222
:4041400022D86268490001326260F6E7AFF3008061436F63A787D23FB3C8608B288AC63FFB799F501344D33F0000F07FBE600000C76000009B6000000EFCFFFFEEFBFFFF02
:404180000000F83FD86000005046616800F05AFCDAF8243020601B680893059B0E2B00F24781002D00F04481DDE90223BBF1000FCDE90E2331DDB14A0BF00F034FEA2B1695
:4041C00002EBC303F006D3E900450CD5DDE90E01AB4B06F00F06D3E9082301F043FC0327CDE9020100E00227DFF8948276B1F10708D5D8E900232046294601F009FB04467A
:404200000D460137761008F10808EFE7DDE9020122462B4601F026FC1BE0CBF10004DCB1DDE90E01954B04F00F0203EBC203D3E9002301F0EDFA924D241102274CB1E2074A
:4042400004D5D5E90023013701F0E2FA64100835F4E7CDE9020100E00227109BDBB1DDE90245002220462946864B01F043FD90B1059B83B1069B002B40F3D68029462046B5
:404280000022814B01F0C4FA0BF1FF36CDE902010137069D01E05E46059D3846DDE9028901F050FA42464B4601F0B2FA774B002201F0FCF8CDE90201039BA3F150740394A6
:4042C000CDB9404649460022714B01F0EDF8029A23468046894601F02BFD002840F0408240464946029A04F1004301F003FD002840F0308298E0614B0C996A1E03EBC203BA
:40430000002947D0D3E900230020624901F0AAFBDDE9022301F0C8F8CDE90201089C4946404601F00FFD074601F00CFA02460B464046494601F0B8F8DDE90223303704F811
:40434000017B8046894601F0D5FC002840F0378342464B4600204B4901F0A6F8DDE9022301F0C8FC002840F0D080089BE31AAB425ADADDE902010022434B01F049FA002224
:40438000CDE90201404B4046494601F041FA80468946C4E7D3E90001DDE9022301F038FA089BCDE902015C191D464946404601F0C9FC074601F0C6F902460B4640464946C3
:4043C00001F072F8303705F8017BA5428046894623D100222F4BDDE9020101F067F802460B464046494601F0A3FC002840F08D80DDE902230020274901F056F802460B4667
:404400004046494601F076FC70B114F8013C621E302B40F0D4821446F7E700221A4B01F0F7F980468946C0E7DDE90E23CDE90223139B002BC0F28A80BBF10E0F00F3868034
:404440000E4B03EBCB03D3E900671F9B002B23DA059B002B20DC40F07C81304600220C4B394601F0D5F9DDE9022301F057FC059D2E46002840F06F8174E100BFD860000028
:40448000A06100000000F03F0000244000001C40000014400000E03F089CDDE9028932463B464046494601F0DDFA01F04BFC054601F048F932463B4601F0AAF90B460246F3
:4044C0004946404600F0F0FF05F1300E089B04F801EBC3EB040E059B9E452AD102460B4600F0E4FF32463B468046894601F020FC70B94046494632463B4601F0F1FB002888
:4045000000F05E82EB0703D45AE2B34600E01C4614F8012C631E392A07D1089A9342F6D13023137013460BF1010B1A7801321A7046E20022A34B01F06BF90022002380461A
:40454000894601F0CDFB0028A9D039E20C9A002A32D01E9A012A0ADC119A12B103F2334302E0129BC3F136030B9D099C18E0059B5D1E0B9BAB42B7BF0B9B5D1BEA1A0D9BD4
:40458000BEBF0B959B180D93059BB8BF0025002BB9BF099B059A099C059BBCBF9C1A0023099A50461A4409920A9A01211A440A9200F01FFB064602E00B9D099C0C9E64B19A
:4045C0000A9B002B09DDA342A8BF2346099AE41AD21A09920A9AD31A0A930B9B002B20DD0C9BC3B1002D10DD31462A46504600F099FB0646079A3146504600F003FB0746C1
:404600000799504600F053FA07970B9B5A1B08D05046079902E0504607990B9A00F082FB07905046012100F0E4FA0D9B0546002B0ADD29461A46504600F074FB1E9B05462C
:40464000012B04DD00271BE01E9B012B13DC029B8BB9039BC3F313037BB9039B23F000473F0D3F0557B1099B0127013309930A9B01330A9302E0002700E0029F0D9B43B1F0
:404680002B6905EB8303186900F066FAC0F1200000E001200A9B184410F01F0008D0C0F12003042B02DDC0F11C0002E008D018461C30099B0444034409930A9B03440A93EA
:4046C000099B002B05DD504607991A4600F078FB07900A9B002B05DD294650461A4600F06FFB0546109BEBB10798294600F0BBFB002817DA0023504607990A2200F0EEF94D
:404700000C9B0BF1FF3B0790002B00F06B813146002350460A2200F0E1F9069B0646002B33DC68E1059B002B26DC1E9B022B23DD059B0693069B73B929460522504600F093
:40474000CDF905460798294600F08DFB002809DC01E000252E461F9B089C6FEA030B08E0B3462E46089B089A5C1C312313700BF1010BB14600260FE10C9B23B9059B06939C
:40478000089F079CC9E0059B0693002C05DD31465046224600F014FB0646AFB17168504600F050F90446326906F10C01023292000C30FEF715FE50462146012200F000FBF9
:4047C000814602E000002440B146089F079C29462046FFF7D7FA3146099000F13008204600F041FB4A4605902946504600F057FBC26803463AB919462046079300F033FBB5
:40480000079B024600E0012250461946079200F04EF9079A92B91E9B83B9029B03F0010363B9B8F1390F3B4607943ED0059B7C1C002BC4BF099B03F131083DE0059B002B7B
:4048400004DA002AC446079408DC21E024D11E9B13BB029B03F00103F3B9F2E72146012250460597CDF8088000F0AAFA2946079000F0F9FA0028DDF808C0059B03DC07D16F
:4048800018F0010F04D0B8F1390F0ED008F1010C7C1C87F800C07FE0002A07F101020EDDB8F1390F3B46079403D1392201371A7057E0144608F1010887F800806CE0089B72
:4048C0001746D31A02F8018C069A93423AD021460A220023504600F001F94E450446314650464FF00A024FF0000304D100F0F6F8064681466BE700F0F1F8494606460A22C3
:404900005046002300F0EAF8814660E7214650460A22002300F0E2F8044620462946FFF731FA089B00F1300807F8018B069AFB1A9342EBDB089BB146012AACBF9B180133CA
:404940001F46002621460122504600F039FA2946079000F088FA002803DC15D118F0010F12D03C4614F8013C621E392B09D1089B9A4204D10BF1010B3123089A02E01446F3
:40498000F0E70133137007E03C4614F8013C621E302B01D11446F8E75046294600F087F8B9F1000F0CD02EB14E4503D05046314600F07DF85046494600F079F800E0B346B2
:4049C0005046079900F073F80023209A23700BF101031360229B1BB11C6001E00A480FE008980DE0069B002B3FF7CAAE1E9B022B3FF7A0AEC4E61E9B022B3FF79BAEC4E6F2
:404A000015B0BDE8F08F00BF9A600000AFF30080004870478881FF1F024B0146186800F041BB00BF8481FF1F10B5C9B202449042034605D01C7801308C42F8D1184610BDAD
:404A4000002010BD70B5456A04460E463DB91020FFF7E2FF6062456085600560C560656AEB6843B1636ADB6853F8260078B1026843F8262017E020460421212200F0C0FAEA
:404A8000636AE860DB68002BECD1002070BD012101FA06F56A1D2046920000F0B1FA0028F3D04660856000230361C36070BD70B5446A06460D463CB91020FFF7ADFF7062DF
:404AC000446084600460C4603DB1736A6A68DB6853F82210296043F8225070BD2DE9F04106460C460F69984601F1140E0023DEF80000013385B2010C02FB0585514301EB1F
:404B00001541ADB24FEA1148BB4205EB01414EF8041BECDBB8F1000F1BD0A3689F4212DB616830460131FFF78DFF0546226904F10C01023292000C30FEF752FC214630466A
:404B4000FFF7B5FF2C4604EB87030137C3F8148027612046BDE8F081030C1B0413B90004102300E0002310F07F4F04BF0002083310F0704F04BF0001043310F0404F04BF07
:404B800080000233002803DB420003D5581C70471846704720207047036813F007020BD0D90722D49A074BBF5B089B08036003604CBF01200220704799B209B91B0C1022DF
:404BC00013F0FF0F04BF1B0A0832190704BF1B090432990704BF9B080232D90702D45B0805D00132036010467047002070472020704710B50C460121FFF724FF0122446192
:404C0000026110BD2DE9F74F14460A69236988469A42BEBF0B46A0461C46D8F81070D4F81090D8F80830D8F8041007EB09069E42C8BF0131FFF706FF00F114052B4605EB27
:404C4000860C634503D2002243F8042BF9E704F1140208F1140102EB890301EB87070093009B01929A4257D2B2F800B0BBF1000F23D08946AE464FF0000859F8044BBEF87F
:404C800000A0A3B20BFB03A34FEA144ADEF8004043444FEA14480BFB0A84F24604EB13449BB243EA04434F454FEA14484AF8043B01D9D646E1E7CEF80480019B0432B3F888
:404CC00002A0BAF1000F21D02C4689462B684FF00008B9F800E0B4F802B09BB20AFB0EBEA346F04443EA08434BF8043B59F8043BB4F804E01B0C0AFB03E3B94503EB1843AF
:404D00004FEA134801D25C46E3E763600435A7E75CF8043D13B9013E002EF9DC066103B0BDE8F08F12F003032DE9F04106460F46154607D0214A013B52F823200023FFF7C6
:404D4000CDFE0746AD1035D0746A3CB91020FFF763FE7062446084600460C460D6F82480D8F808407CB9304640F27121FFF741FF0023C8F808000446036004E06D1019D00C
:404D8000206870B10446EB07F8D5394622463046FFF738FF804639463046FFF788FE4746ECE7304621462246FFF72CFF002320600360E7E73846BDE8F08100BFC86100006A
:404DC0002DE9F0470C460746164623694FEA621A0AEB03094968A36809F101059D4202DD01315B00FAE73846FFF72CFE804600F114010023534504DA002241F8232001336C
:404E0000F8E72AEAEA73206901EB830316F01F0204F1140101EB800E14D0C2F1200C00200E689A469640304343F8040B51F8040B714520FA0CF0F3D3CAF8040048B109F10D
:404E4000020506E0043B51F8042B714543F8042FF9D3013D3846C8F810502146FFF727FE4046BDE8F08703690A6910B59B1A11D192001430143183180A4453F8044D52F879
:404E8000041D8C4202D007D3012010BD8342F4D8002010BD184610BD4FF0FF3010BD2DE9F84307460C46084611461546FFF7DBFF061E08D138463146FFF7C4FD0123036194
:404EC0004661BDE8F883BCBF23462C4638466168BABF1D4601260026FFF7B4FD2B69C660266905F1140904F1140101EB860709EB830800F114054FF0000C51F8042B59F802
:404F0000044B93B29C44A3B2240CC3EB0C03C4EB124202EB23429BB24FEA224CC84543EA02428E4645F8042BE7D8BE450ED25EF8043B9AB262441B0C03EB224392B242EAA1
:404F400003424FEA234C45F8042BEEE755F8043D0BB9013EFAE70661BDE8F8832DE9F3411C4601211546089F099EFFF76BFDC4F31302C4F30A5480460CB142F48012019276
:404F8000EDB102A840F8085DFFF706FE009B50B1019AC0F1200102FA01F10B43C240C8F81430019201E0C8F81430019B002B14BF02250125C8F81830C8F8105009E001A8AE
:404FC000FFF7EAFD019B0125C8F81430C8F81050203034B1A4F2334404443C60C0F1350009E0A0F2324008EB850338601869FFF7B3FDC0EB45103060404602B0BDE8F081DD
:4050000038B502FB01F4214600F04CF8054618B100212246FEF7EFF9284638BD30B500293CD051F8042C0B1F1D49002AB8BF9B180A680C4612B95A600B6030BD93420DD24D
:4050400019685818904201BF5A5852181A60426823605A6030BD994203D80A4651680029F9D1146815199D420AD11B682344D0188842136012D10868034413604B680CE072
:4050800002D90C23036030BD1C681819884201BF08684968001918605960536030BD00BFF881FF1F70B5CC1C24F0030408340C2C38BF0C24002C064603DA0C2333600020FC
:4050C00070BD8C42F9D3204A136810461946A1B10A68121B0ED40B2A03D90A608B188C501FE08B420BBF5A684A6802605A6018BF0B4616E00B464968E9E7144D2B681BB9A4
:40510000304600F071F928603046214600F06CF9421C0346D1D0C51C25F0030585420AD11C6003F10B001A1D20F00700821A0AD05142995070BD3046E91A00F055F901302D
:40514000BBD02B46ECE770BDF881FF1FF481FF1F2DE9F0478E688246B3420C469046994640D38A8912F4906F3AD02568096902236F1A656905EB450595FBF3F57B1C4B447A
:405180009D4238BF1D4653050FD52946FFF78AFF064698B121693A46FEF722F9A38923F4906343F08003A38113E02A4600F047F9064670B950462169FFF730FF0C23CAF88F
:4051C0000030A3894FF0FF3043F04003A381BDE8F08726613E4426604E466561ED1BA560B14500D24E4632462068414600F00CF9A36800209B1BA36023681E442660BDE865
:40520000F08700002DE9F0439DB003938B8906461C060D4690460CD50B6953B94021FFF741FF2860286110B90C233360CCE040236B610023099320238DF8293030238DF8F9
:405240002A3043461C4613F8012B1AB9B4EB08090FD002E0252AF5D1F8E73046294642464B46FFF775FF013000F0A980099B4B4409932378002B00F0A28000234FF0FF328E
:4052800004930793059206938DF853301A9304F101084446DFF84891217848460522FFF7C3FB08F10108049B30B1C9EB00000122824013430493ECE7D80644BF20228DF81B
:4052C0005320190744BF2B228DF8532022782A2A02D0079923460EE0039A0134111D12680391002ABBBF524243F0020307920792B8BF04930AE01C4622780133303A092AA7
:4053000003D80A2000FB0121F5E7079123782E2B1AD163782A2B0AD1039B02341A1D1B680392002BB8BF4FF0FF3305930CE0611C00220C4623780131303B092B03D80A20D1
:4053400000FB0232F5E70592DFF89880217840460322FFF769FB38B1049AC8EB00004023834013430493013421781A48062204F101088DF82810FFF757FB88B1164B33B9D0
:40538000039B073323F007030833039313E003AB0093304604A92A46104BFEF7C3F807E003AB0093304604A92A460C4BFEF776FB421C074603D0099B3B44099341E7AB8944
:4053C0005B0601D4099801E04FF0FF301DB0BDE8F08300BFDE6100002535000051510000D4610000DA61000038B5064C002305460846236000F0CEFC431C02D1236803B18F
:405400002B6038BDDC82FF1F814210B501EB020301D3421E0BE09842FBD28118D21AD34204D013F8014D01F8014DF8E710BD994204D011F8014B02F8014FF8E710BDF8B5D0
:40544000074615460E4621B91146BDE8F840FFF729BE1AB9FFF7E2FD2846F8BD00F015F8A8420ED238462946FFF71CFE044650B131462A46FDF7B4FF38463146FFF7CEFD27
:4054800001E03046F8BD2046F8BD51F8040C0028BEBF091851F8043CC01804387047000081F0004102E000BF83F0004330B54FEA41044FEA430594EA050F08BF90EA020F81
:4054C0001FBF54EA000C55EA020C7FEA645C7FEA655C00F0E2804FEA5454D4EB5555B8BF6D420CDD2C4480EA020281EA030382EA000083EA010180EA020281EA0303362DCD
:4055000088BF30BD11F0004F4FEA01314FF4801C4CEA113102D0404261EB410113F0004F4FEA03334CEA133302D0524263EB430394EA050F00F0A780A4F10104D5F1200ED5
:405540000DDB02FA0EFC22FA05F2801841F1000103FA0EF2801843FA05F359410EE0A5F120050EF1200E012A03FA0EFC28BF4CF0020C43FA05F3C01851EBE37101F00045EF
:4055800007D54FF0000EDCF1000C7EEB00006EEB0101B1F5801F1BD3B1F5001F0CD349085FEA30004FEA3C0C04F101044FEA445212F5800F80F09A80BCF1004F08BF5FEA0E
:4055C000500C50F1000041EB045141EA050130BD5FEA4C0C404141EB010111F4801FA4F10104E9D191F0000F04BF01460020B1FA81F308BF2033A3F10B03B3F120020CDAE6
:405600000C3208DD02F1140CC2F10C0201FA0CF021FA02F10CE002F11402D8BFC2F1200C01FA02F120FA0CFCDCBF41EA0C019040E41AA2BF01EB0451294330BD6FEA0404F6
:405640001F3C1CDA0C340EDC04F11404C4F1200220FA04F001FA02F340EA030021FA04F345EA030130BDC4F10C04C4F1200220FA02F001FA04F340EA0300294630BD21FA30
:4056800004F0294630BD94F0000F83F4801306BF81F480110134013D4EE77FEA645C18BF7FEA655C29D094EA050F08BF90EA020F05D054EA000C04BF1946104630BD91EA84
:4056C000030F1EBF0021002030BD5FEA545C05D14000494128BF41F0004130BD14F580043CBF01F5801130BD01F0004545F0FE4141F470014FF0000030BD7FEA645C1ABF34
:40570000194610467FEA655C1CBF0B46024650EA013406BF52EA033591EA030F41F4002130BD00BF90F0000F04BF0021704730B54FF4806404F132044FF000054FF00001FA
:4057400050E700BF90F0000F04BF0021704730B54FF4806404F1320410F0004548BF40424FF000013EE700BF42004FEAE2014FEA31014FEA02701FBF12F07F4393F07F4F79
:4057800081F06051704792F0000F14BF93F07F4F704730B54FF4607401F0004521F0004120E700BF50EA010208BF704730B54FF000050AE050EA010208BF704730B511F0EB
:4057C000004502D5404261EB41014FF4806404F132045FEA915C3FF4DCAE4FF003025FEADC0C18BF03325FEADC0C18BF033202EBDC02C2F1200300FA03FC20FA02F001FAD9
:4058000003FE40EA0E0021FA02F11444C1E600BF70B54FF0FF0C4CF4E06C1CEA11541DBF1CEA135594EA0C0F95EA0C0F00F0DEF82C4481EA030621EA4C5123EA4C5350EA48
:40584000013518BF52EA033541F4801143F4801338D0A0FB02CE4FF00005E1FB02E506F00042E0FB03E54FF00006E1FB03569CF0000F18BF4EF0010EA4F1FF04B6F5007FA7
:4058800064F5407404D25FEA4E0E6D4146EB060642EAC62141EA55514FEAC52040EA5E504FEACE2EB4F1FD0C88BFBCF5E06F1ED8BEF1004F08BF5FEA500E50F1000041EBA2
:4058C000045170BD06F0004646EA010140EA020081EA0301B4EB5C04C2BFD4EB0C0541EA045170BD41F480114FF0000E013C00F3AB8014F1360FDEBF002001F0004170BD4C
:40590000C4F10004203C35DA0C341BDC04F11404C4F1200500FA05F320FA04F001FA05F240EA020001F0004221F0004110EBD37021FA04F642EB06015EEA430E08BF20EA91
:40594000D37070BDC4F10C04C4F1200500FA04F320FA05F001FA04F240EA020001F0004110EBD37041F100015EEA430E08BF20EAD37070BDC4F1200500FA05F24EEA020E6B
:4059800020FA04F301FA05F243EA020321FA04F001F0004121FA04F220EA020000EBD3705EEA430E08BF20EAD37070BD94F0000F0FD101F00046400041EB010111F4801F90
:4059C00008BF013CF7D041EA060195F0000F18BF704703F00046520043EB030313F4801F08BF013DF7D043EA0603704794EA0C0F0CEA135518BF95EA0C0F0CD050EA4106A5
:405A000018BF52EA4306D1D181EA030101F000414FF0000070BD50EA410606BF1046194652EA430619D094EA0C0F02D150EA013613D195EA0C0F05D152EA03361CBF10461B
:405A400019460AD181EA030101F0004141F0FE4141F470014FF0000070BD41F0FE4141F4780170BD70B54FF0FF0C4CF4E06C1CEA11541DBF1CEA135594EA0C0F95EA0C0F9B
:405A800000F0A7F8A4EB050481EA030E52EA03354FEA013100F088804FEA03334FF0805545EA131343EA12634FEA022245EA111545EA10654FEA00260EF000419D4208BF58
:405AC000964244F1FD0404F5407402D25B084FEA3202B61A65EB03055B084FEA32024FF480104FF4002CB6EB020E75EB030E22BFB61A754640EA0C005B084FEA3202B6EBD8
:405B0000020E75EB030E22BFB61A754640EA5C005B084FEA3202B6EB020E75EB030E22BFB61A754640EA9C005B084FEA3202B6EB020E75EB030E22BFB61A754640EADC006A
:405B400055EA060E18D04FEA051545EA16754FEA06164FEAC30343EA52734FEAC2025FEA1C1CC0D111F4801F0BD141EA00014FF000004FF0004CB6E711F4801F04BF0143CA
:405B80000020B4F1FD0C88BFBCF5E06F3FF6AFAEB5EB030C04BFB6EB020C5FEA500C50F1000041EB045170BD0EF0004E4EEA113114EB5C04C2BFD4EB0C0541EA045170BD66
:405BC00041F480114FF0000E013C90E645EA060E8DE60CEA135594EA0C0F08BF95EA0C0F3FF43BAF94EA0C0F0AD150EA01347FF434AF95EA0C0F7FF425AF104619462CE7D2
:405C000095EA0C0F06D152EA03353FF4FDAE1046194622E750EA410618BF52EA43067FF4C5AE50EA41047FF40DAF52EA43057FF4EBAE12E74FF0FF3C06E000BF4FF0010C7E
:405C400002E000BF4FF0010C4DF804CD4FEA410C7FEA6C5C4FEA430C18BF7FEA6C5C1BD001B050EA410C0CBF52EA430C91EA030F02BF90EA020F0020704710F1000F91EA26
:405C8000030F58BF994208BF90422CBFD8176FEAE37040F0010070474FEA410C7FEA6C5C02D150EA013C07D14FEA430C7FEA6C5CD6D152EA033CD3D05DF8040B704700BFA8
:405CC0008446104662468C461946634600E000BF01B5FFF7B7FF002848BF10F1000F01BD4DF808EDFFF7F4FF0CBF012000205DF808FB00BF4DF808EDFFF7EAFF34BF012091
:405D000000205DF808FB00BF4DF808EDFFF7E0FF94BF012000205DF808FB00BF4DF808EDFFF7CEFF94BF012000205DF808FB00BF4DF808EDFFF7C4FF34BF012000205DF84E
:405D400008FB00BF4FEA410212F5001215D211D56FF47873B3EB625212D94FEAC12343F0004343EA505311F0004F23FA02F018BF404270474FF00000704750EA013005D16B
:405D800011F0004008BF6FF0004070474FF00000704700BF044A05491368002B08BF0B461844106018467047FC81FF1FE082FF1F000000000000000025346C64206D56204E
:405DC0000A000000F8010000F0010000E8010000E0010000D8010000D8010000D8010000D8010000E081FF1FE081FF1FE081FF1FE081FF1FE081FF1FE081FF1FE081FF1F08
:405E0000E081FF1FE081FF1FE081FF1FE081FF1FE081FF1FE081FF1FE081FF1FE081FF1FE081FF1FE081FF1FE081FF1FE081FF1FE081FF1FE081FF1FE081FF1F00000048A9
:405E40000800004810000048180000489800004818010048980100481802004898020048180300489803004818040048980400481805004898050048180600489806004890
:405E8000180700489807004818080048980800481809004898090048180A004830313233343536373839414243444546000000001201000202000008B40432F201000104E5
:405EC0008001000009024300020104C032090400000102020002052400100104240202052406000105240100010705810308000A09040100020A0000030705820240000A6C
:405F00000705030240000A00040309042C0343007900700072006500730073002000530065006D00690063006F006E0064007500630074006F007200380343004400430056
:405F4000200043006F006D006D0075006E00690063006100740069006F006E00200049006E00740065007200660061006300650026034300440043002000440061007400CE
:405F80006100200049006E0074006500720066006100630065001A035300410052005F005300500049004D005F005500530042000000000002030000320005010902A10101
:405FC0000901A100050919012903150025019503750181029501750581010501093009311581257F750895028106C0C00000000000008103080002000100820240000A0019
:406000000100030240000A00020A000001000000C45E000003000000F05F000000000000000000000000000000000000000000000860000001000000B05E00000100000017
:406040000C600000010000003460000012034D0053004600540031003000300001000000280000000001040001000000000000000001435955534200000030303030310098
:4060800000000000000000004300494E4600696E66004E414E006E616E00300030313233343536373839414243444546003031323334353637383961626364656600496E7E
:4060C00066696E697479004E614E00504F534958002E000000000000000000000000F03F000000000000244000000000000059400000000000408F40000000000088C34089
:4061000000000000006AF8400000000080842E4100000000D01263410000000084D797410000000065CDCD41000000205FA00242000000E876483742000000A2941A6D42D0
:40614000000040E59C30A2420000901EC4BCD64200003426F56B0C430080E03779C3414300A0D8855734764300C84E676DC1AB43003D9160E458E143408CB5781DAF15441E
:4061800050EFE2D6E41A4B4492D54D06CFF08044F64AE1C7022DB544B49DD9794378EA440080E03779C34143176E05B5B5B89346F5F93FE9034F384D321D30F94877825AA6
:4061C0003CBF737FDD4F157505000000190000007D000000232D302B2000686C4C0065666745464700000000F8B500BFF8BC08BC9E46704725020000FD030000F8B500BF60
:40620000F8BC08BC9E46704701020000206200000881FF1FB800000020010000000000000000000000C2010000000800408AF701E88000002100000000007440000000007C
:406240000000000000000000000000000000000000000000000000000000000088600000000000000000000000000000000000000000000000000000000000000000000036
:40628000000000000000000000000000000000000000000000000000000000002481FF1FD1600000D9610000D9610000D9610000D9610000D9610000D9610000D961000054
:4062C000D9610000D9610000FFFFFFFFFFFFFFFFFFFFFFFFFFFF00000000000000000000000000000000000000000000000000000000000000000000000000000000000038
:40630000000000000000000000000000000000000000000000000000000000000000000000000000000000000000000000000000000000000000000000000000000000005D
:40634000000000000000000000000000000000000000000000000000000000000000000000000000000000000000000000000000000000000000000000000000000000001D
:4063800000000000000000000000000000000000000000000000000000000000000000000000000000000000000000000000000000000000000000000000000000000000DD
:4063C000000000000000000000000000000000000000000000000000000000000000000000000000000000000000000000000000000000000000000000000000000000009D
:020000040003F7
:0200000480007A
:4000000000000000400000000000000000000200AB0000000000000000000000000000000000000000000000000000000000000000000000000000000000000000000000D3
:400040000000000000000040000000000000000000000000000000000000000000000000000000000000000000000000000000000000000000000000000000000000000040
:4000800000000000000000000000000000000000000000000000000000000000000000002000004000004000000000000000000000000000000000000000000000000000A0
:4000C0000000000000000000000000000000000000000000000000000000000000000000000000000000000000000000000000000000000000000000000000000000000000
:40010000000000000000000000000000000000000000000000000000000000000000000000000000000000000000000000004000000000002000000000000000000000005F
:4001400000000004000000000000000000000000000000000000000000000E000000000000000000000000000000000000000000000000000000000000000000000000006D
:40018000000000000000000000000000000000000000000000000000000000000000000000000000000000000000000000000000000000040000000000000000000000003B
:4001C00000000000000000000000000000000000000000000000000000000000000000000000000000000000000000000000000000000000000000000000000000000000FF
:40020000000000000000000000000000000000000000000000000000000000000000000000000000000000000000000000004000000000002000000000000000000000005E
:400240000000000000000000000000000000000000000000000000000000000000000800000000000000000000000000000000000000000000000000000000000000000076
:4002800000000000000000000000000000000000000000000000000000000000200000000000000000000000000000000000400000000000000000000000000000000000DE
:4002C00000000000000000000000000000000000000000000000000000000000000000000000000000000000000000000000000000000000000000000000000000000000FE
:40030000000000000000000000000000000000000000000000000000000040000000000000000000000000000000000000000000000000000000000000000000000000007D
:40034000000000000000000000000000000000000000000000000000000000000000000000000000000000000000000000000000000000000000000000000000000000007D
:40038000000000000000000000000000000000000000000000000000000000000000000000000000000000000000000000000000000000000000000000000000000000003D
:4003C00000000000000000000000000000000000000000000000000000000000000000000000000000000000000000000000000000000000000000000000000000000000FD
:4004000000000000000002000000000000000000000000000000000000000000000000000000000000000000000000000000000000000000000000000000000000000000BA
:40044000000000000000000000000000000000000000000000000000000000000000000000000000000000000000000000000000000000000000000000000000000000007C
:40048000000000000000020000000000000000000000000000000000000000000000000000000000000000000000000000000000000000000000000000000000000000003A
:4004C00000000000000000000000000000000000000000000000000000000000000000000000000000000000000000000000000000000000000000000000000000000000FC
:4005000000000000000004000000000000000000000000000000000000000000000000000000000000000000000000000000000000000000000000000000000000000000B7
:40054000000000000000000000000000000000000000000000000000000000000000000000000000000000000000000000000000000000000000000000000000000000007B
:400580000000000000000400000000000000000000000000000000000000000000000000000000000000000000000000000000000000000000000000000000000000000037
:4005C00000000000000000000000000000000000000000000000000000000000000000000000000000000000000000000000000000000000000000000000000000000800F3
:4006000000000000000000000000000000000000000000000000000000000000000000000000000000000000000000000000000000000000000000000000000000000000BA
:400640000000000000000000000000000000000000000000000000000000000000000000000000000000000000000000000000000000000000000000000000000000080072
:40068000000000000000000000000000000000000000000000000000000000000000000000000000000000000000000000000000000000000000000000000000000000003A
:4006C00000000000000000000000000000000000000000000000000000000000000000000000000000000000000000000000000000000000000000000000040000000000F6
:4007000000000000000000000000000000000000000000000000000000000000000000000000000000000000000000000000000000000000000000000000000000000000B9
:400740000000000000000000000000000000000000000000000000000000000000000000000000000000000000000000000000000000000000000000000004000000000075
:400780000000000000000000000000000000000000000000000000000000000000000000000000000000000000000000000000000000000000000000000000000000000039
:4007C00000000000000040000000000000000000000000000000000000000000000000000000000000000000000000000000000000000000000000000000000000000000B9
:400800000000000000004000000000000000000000000000000000000000000000000000000000000000000000000000000000000000000000000000000000000000400038
:400840000000002000000000000000000000000000000000000000000000000000000000000000000000000000000000000000000000000000000000000000000000000058
:4008800000000000000020000000000000000000000000000000000000000000000000000000000000000000000000000000000000000000000000000000000000004020B8
:4008C00000000000000000000000000000000000000000000000000000000000000000000000000000000000000000000000000000000000000000000000000000000000F8
:400900000000000000000000000000000000000000000000000000000000000000020000000000000000000000000000000000000000000000020000000000000000402053
:400940000000000000000000000000000000000000000000000000000000000000000000000000000000000000000000000000000000000000000000000000000000100067
:400980000000000000000000000000000000000000000000000000000000000000000000000000000000000000000000000000000000000000000000000000000000000037
:4009C0000000000000000000020000200002400000000000000000000000000000000000000000000000000000000000000000000000000000000000000000000000000093
:400A000000000000000000000000000000000000000000000000000002000000000000000000000000000000000000000000000000000000000000000000000000000000B4
:400A4000000000000000000000000000000000000000000000000000000000000000000000000000F000000000000000000000000000000000000000000020000000000066
:400A80000000000000000000000000000000000000000000000000000000000000000000C0000000007F7F000000000000000000000020001100180100000000000000002E
:400AC00000000000000000000000000000000000000000000000000000000000000000000000000000000000000000000000000000000000000000000000000000000000F6
:400B000000000000000000000000000000000000000000000000000000000000000000000000000000000000000000000000000000000000000000000000000000000000B5
:400B40000000000000000000000000000000000000000000000000000000000000000000000000000000000000000000000000000000000000000000000000000000000075
:400B80000000000000000000000000000000000000000000000000000000000000000000000000000000000000000000000000000000000000000000000000000000000035
:0200000490006A
:0400000000004005B7
:0200000490105A
:04000000BC90ACAF55
:0200000490303A
:0200000035F0D9
:0200000490402A
:4000000000000000000000000000000000000000000000000000000000000000000000000000000000000000000000000000000000000000000000000000000000000000C0
:400040000000000000000000000000000000000000000000000000000000000000000000000000000000000000000000000000000000000000000000000000000000000080
:400080000000000000000000000000000000000000000000000000000000000000000000000000000000000000000000000000000000000000000000000000000000000040
:4000C0000000000000000000000000000000000000000000000000000000000000000000000000000000000000000000000000000000000000000000000000000000000000
:0200000490501A
:0C00000000012E12306900012E376659F5
:00000001FF