:400000000080002011000000AD030000AD03000080B500AF024A034B1B68136000F0CAF9BC760040FA46004008000223000008760800032300001076080004230000307662
:40004000050005230000207005000623000030700500FE23000070702000082200000051300009220000305110000A220000C0511000FE220000F05180090C220000000003
:4000800080000D220000000A80040E220000800B80010F2200000014800510220000001600041122000000408000122200000045800013220000004780001422000000494A
:4000C000800015220000004C800016220000004D2000FE2200000050800018230000800A800019230000804D80001A230000804C80001B230000804780001C230000004687
:4001000080001D230000804680001E230000804580001F23000000448000202300008044800021230000801B80002223000080158000232300008009800024230000000B4C
:40014000800025230000804980002623000000488000FE2300008048010000000100000001000000004801400100000000200140010000000020004010B5054C237833B988
:40018000044B13B10448AFF300800123237010BD8881FF1F0000000028230000084B10B51BB108480849AFF300800848036803B910BD074B002BFBD0BDE81040184700BF82
:4001C00000000000282300008C81FF1F0881FF1F0000000080B5ADF50C7D00AF07F114031A464FF40073104600211A4601F07BFC0023C7F81C320023C7F828320023A7F841
:400200001A320023C7F814320023C7F82432002387F823323B1D00221A60043300221A60043300221A60043300221A80023300221A70013362B600F0EFFC00F005FD00F0A4
:40024000D7FF0020002100F0E3FF564801F016F80120082100F0DCFFE42001F037F8562001F028F8002000F0FFFC00F025FDC7F81C02002387F82F320CE097F82F2207F177
:400280001403D7F81C1243F8221097F82F32013387F82F3297F82F325BB2002BEDDAD7F81C32DB01C7F82832D7F81C32C7F82432002000F0D9FC00F0FFFCC7F81C02D7F80A
:4002C0002422D7F81C32D31A002BB8BF5B42A7F81A32B7F91A32B3F57A7F22DD002387F82F320CE097F82F2207F11403D7F81C1243F8221097F82F32013387F82F3297F80D
:400300002F325BB2002BEDDAD7F81C32DB01C7F82832D7F81C32C7F82432002387F823322AE097F8232207F1140353F82230D7F82822D31AC7F82832D7F82822D7F81C3243
:400340001344C7F82832D7F82832DB11C7F8243297F8232207F11403D7F81C1243F8221097F82332013387F8233297F82332802B02D1002387F82332D7F8240200F0F0FC80
:40038000C7F814023B1D18460749D7F8142201F0B3FB0120002100F03BFF3B1D184600F06DFF85E72C2300003C23000080B400AFFEE700BF80B586B000AF214B7B61214BD1
:4003C0003B611F4B7B611F4B3B612FE03B691B68FB603B695B68BB603B699B683B6000237B600AE0BB681A1DBA60FA68111DF96012681A607B6804337B607A683B689A4231
:40040000F0D13B69DB683B6000237B6007E0BB681A1DBA6000221A607B6804337B607A683B689A42F3D13B6910333B617B695A1E7A61002BCAD101F025FBFFF7CBFEFEE735
:40044000010000004424000080B582B000AF174B174A1A60174A174B1B6843F40073136000237B600FE07B68032B04D8124A7B6852F8233000E0114B11497A6841F82230A4
:400480007B6801337B607B682F2BECD90D4B1B78DAB20D4B1A700D4B094A1A6000F01AFA0B4B00221A600837BD4680BD0CED00E00004FA0514ED00E000000000AD030000E8
:4004C0000080FF1FBC7600400481FF1F08ED00E00081FF1F80B584B000AFF860B9607A60F868B9687A6801F0F3FA1037BD4680BD80B483B000AF0346FB71FEE780B483B093
:4005000000AF3D4B00221A603C4B10221A703C4B01221A703B4B00221A703B4B4FF498721A803A4B01221A70394B03221A70394B394A92B21A80394B47F608021A80384BA0
:4005400000221A80374B4FF480421A80364B07221A70364B0B221A70354B17221A70BFF35F8F344B01221A70BFF35F8F00BF264B1B889BB2002BFAD100237B600DE07B689F
:40058000DA002D4B134419462C4A7B6852F823309BB20B807B6801337B607B68252BEED9BFF35F8F234B01221A70BFF35F8F00BF234B1B78DBB203F00103002BF8D100BF27
:4005C000204B1B78DBB203F00103002BF8D100BF1D4B1B78DBB203F00103002BF8D100BF1A4B1B78DBB203F00103002BF8D10C37BD465DF8047B7047A881FF1F0076004056
:4006000010700040197000400078004002780040037800400478004028000000067800400476004006760040297000403970004079700040147000400C7800405023000006
:400640001870004028700040387000407870004080B582B000AF4F4B1B78BB704E4B00221A804E4B50221A704D484E490422FFF731FF4D4B06221A704C4BF3221A70454BEA
:4006800003221A704A4B84221A704A4B05221A70494B7B6006E04FF4F07001F059F97B68013B7B607B68002B06D0424B1B78DBB203F02003002BEED0364ABB7813703F4BFB
:4006C00052221A703E4B3F4A1278D2B21A703E4B4FF4E1621A803D4B41F251221A800023FB7019237B6014E0FB785B00DAB2384B1B78DBB203F00103DBB21343DBB203F0F1
:400700000303FB704FF4F07001F022F97B68013B7B607B68002B02D0FB78032BE4D17B68002B02D10320FFF7E3FE2A4B4FF480721A80284B07221A70274B00221A70274B94
:4007400048221A70234B00221A70254B00221A70244B02221A70244B04221A70234A234B1B78DBB243F00103DBB21370204A204B1B78DBB243F00103DBB213701D4A1D4BC6
:400780001B78DBB263F07F03DBB213700837BD4680BD00BF9846004080400040824000400041004010080048004300400A4300400943004008430040A08601000042004025
:4007C000A14600400F01004922420040204200402542004004400040064000400840004009400040014000400B400040A2430040A1430040A043004080B483B000AF0E4B8A
:400800001B78FB710D4AFB7903F00703DBB213700B4AFB791B09DBB213700A4B20221A70094B02221A70094B44221A700C37BD465DF8047B704700BFCF0100496E580040CE
:400840006F5800406D510040005B00407658004080B483B000AF0346FB71FB79012B0ED8FB79094A52F82330FA79074951F822201178FA790548825C0A43D2B21A700C3702
:40088000BD465DF8047B7047442300004C23000080B483B000AF0346FB71FB79012B10D8FB790A4A52F82330FA79084951F822201178FA790648825CD243D2B20A40D2B23E
:4008C0001A700C37BD465DF8047B7047442300004C23000080B500AF72B6FFF70FFE244B0A221A70234A234B1B78DBB243F00203DBB21370204A204B1B78DBB243F0020323
:40090000DBB213701D4A1D4B1B78DBB243F04003DBB213701A4A1A4B1B78DBB243F01003DBB21370174818490822FFF7D3FD174817490822FFF7CEFD164A164B1B78DBB2B8
:4009400043F00803DBB21370134B01221A70FFF77FFE114B81221A70104B01221A70FFF74BFF0F4805490E22FFF7B4FD80BD00BF835800400350014013500140A0430040EC
:40098000C243004022510040000800486251004008080048224300400048004004000840B043004080B582B002AF324B01221A70314B00221A70102000F0BAFE102000F096
:4009C0009DFF1D20072101F03BF82C4B07221A702B4B00221A702B4B00221A702A4A2A4B1B78DBB243F01803DBB21370274B00221A70274B00221A70264B00221A70264B33
:400A00000A221A70254B00221A70254B00221A70244B5B221A70244B5E221A70234B00221A70234B14221A7001230093022048F6F0514FF40042142300F0A0FA1D4A0D4B34
:400A40001B78DBB2013B1C499B000B449B7813701A4A084B1B78DBB2013B174931F823301380044B1B78DBB2184600F0D5F9BD4680BD00BF0C81FF1FB081FF1F9658004001
:400A8000975800409E580040075B004093580040885B0040895B004080580040815800408358004088580040895800408D580040014E00400E4E0040B481FF1F0C4E0040F3
:400AC00080B582B000AF00F04BFF0346FB71444B1B78BB71434A434B1B78DBB243F00103DBB213703F4A3F4B1B78DBB243F01003DBB213703C4A3C4B1B78DBB243F0010334
:400B0000DBB21370384A384B1B78DBB243F01003DBB21370354A354B1B78DBB243F00203DBB21370324A324B1B78DBB243F00203DBB213702F4A2F4B1B78DBB243F0030316
:400B4000DBB21370032000F041FF284A274B1B78DBB223F00203DBB21370254A244B1B78DBB223F00203DBB21370234A224B1B78DBB243F00603DBB21370204B7A221A70E9
:400B80001F4A1F4B1B78DBB243F00103DBB213701C4A1C4B1B78DBB243F00103DBB21370194A194B1B78DBB243F00103DBB21370164A164B1B78DBB243F00103DBB2137071
:400BC000134B4FF000521A60124B4FF000521A60FB79184600F0C8FE0837BD4680BD00BF0C81FF1FAA430040BA430040F8460040F9460040915800407758004082580040FA
:400C0000A1430040B1430040A2430040B243004080E200E000E100E080B500AF084B1B78002B09D1074B1B78DBB2002B01D1FFF7B9FE034B01221A70FFF742FF80BD00BFE6
:400C4000B281FF1FB381FF1F80B400AF054A054B1B78DBB243F00103DBB21370BD465DF8047B7047004E004080B485B000AF0346FB710E4B1B78DBB2002B03D00C4B1B789E
:400C8000FB7305E00B4B1B78DBB203F00103FB73FB7B012B02D0FB79002BEAD0FB7B18461437BD465DF8047B704700BFB181FF1FB081FF1F014E004080B483B000AF224B1C
:400CC0001B78DBB203F00303FB70FB78012B0BD81E4B1B889BB27B607B681B041C4A128892B213437B6020E0FB78022B12D1174B1B889BB27B607B681B04154A1278D2B224
:400D000013437B60134B1B78DBB21B027A6813437B600AE00E4B1B889BB27B600B4B1B889BB21B047A6813437B600B4B1B78DBB2002B02D0094B00221A707B6818460C3757
:400D4000BD465DF8047B7047144E0040124E0040104E0040114E0040B181FF1FB081FF1F80B487B000AF7860274B1B78DBB2012B02D11423FB7311E0234B1B78DBB2022BF3
:400D800002D11023FB7309E01F4B1B78DBB2032B02D11023FB7301E01023FB73FB7B102B02D0142B06D00CE047F612237B6120233B610BE04FF4FA637B614FF4FA733B61C4
:400DC00004E0124B7B6101233B6100BF104B1A683B6992FBF3F33B617B697A6802FB03F23B6992FBF3F20B4B1B68796901FB03F13B6991FBF3F3D31ABB60BB6818461C375C
:400E0000BD465DF8047B70470C81FF1F40420F00CC81FF1FC881FF1F80B582B000AF0346FB71374B00221A70FB79012B65D1354B78221A70344B00221A70344B09221A7044
:400E4000334B7F221A70334B00221A70324B7F221A70324B00221A70314B00221A70314B00221A70304B01221A70304B50221A702F4B0A221A702F4B2C221A702E4B0022C2
:400E80001A702E4B44221A702D4B48221A702D4B01221A702C4B02221A702C4B12221A702B4B28221A702B4BEB221A70522000F01BF9294B58221A70284B00221A70284B7D
:400EC00005221A70274B02221A70274B00221A70264B00221A70002000F05AFB244B254A1A600120012100F067FB0720012100F049FC1D20204900F07BFD0837BD4680BD89
:400F0000B181FF1F004E0040024E0040034E0040044E0040054E0040064E0040084E0040094E00400A4E0040144E0040845800408558004086580040875800408A580040FA
:400F40008B5800408C5800408E5800408F580040905800409158004094580040955800409A5800409B5800409C5800409D580040CC81FF1F333303006111000090B587B0A3
:400F800000AF0446084611461A462346FB710346BB800B467B801346BB7197F82830002B00F08A8097F82830012B00F28580FB79013B092B4AD801A252F823F0E50F0000F9
:400FC0004D1000004D100000E50F00004D1000004D100000FF0F0000191000004D10000033100000BB790F2B04D9364B1B78DBB2FB752EE0344B1B78DBB2FB7529E0BB79FC
:401000000F2B04D9314B1B78DBB2FB7521E0304B1B78DBB2FB751CE0BB790F2B04D92D4B1B78DBB2FB7514E02B4B1B78DBB2FB750FE0BB790F2B04D9284B1B78DBB2FB75FB
:4010400007E0274B1B78DBB2FB7502E00023FB7500BFBA8897F917305B0113443B617B883A6902FB03F3FB60FB68DB0BBB82BB790D2B11D8BB8ABA79C2F10E021341BB8250
:4010800097F82830013BBA790132D1B2154A9B0013440A469A7007E097F82830013B114A9B0013440F229A7097F82830013B0D49BA8A21F8232002E0002000F059FC1C3734
:4010C000BD4690BD180100491C010049190100491D0100491A0100491E0100491B0100491F010049B481FF1F80B584B000AF0346FB7100F035FC0346FB73164A154B1B7829
:40110000DBB243F00303DBB21370134A124B1B78DBB243F00303DBB21370104AFB791370032000F053FC0B4A0A4B1B78DBB223F00303DBB21370084A074B1B78DBB223F039
:401140000303DBB21370FB7B184600F00DFC1037BD4680BDF8460040F94600409258004080B400AFBD465DF8047B704780B500AF282000F009FC032000F0C2F9052000F069
:4011800003FC032000F0BCF90F2000F0FDFB032000F0B6F9012000F0F7FB022000F0B0F9052000F0F1FB062000F0AAF80E2000F0A7F82C2000F0A4F8082000F0A1F80120B1
:4011C00000F09EF80C2000F09BF8032000F098F8052000F0D9FB80BD80B500AF0C2000F08FF8024B01221A7080BD00BFB881FF1F80B500AF054B1B78002B04D1FFF7B6FFAB
:40120000024B01221A70FFF7E7FF80BDB981FF1F80B582B000AF03460A46FB711346BB71FB79032B26D801A252F823F03D1200004B1200005912000067120000BB79803B84
:40124000DBB2184600F05CF815E0BB79403BDBB2184600F055F80EE0BB796C3BDBB2184600F04EF807E0BB792C3BDBB2184600F047F800E000BF0837BD4680BD80B584B066
:4012800000AF78600123FB737B681B78BB730BE0BB7B184600F01AF8FB7B7A6813441B78BB73FB7B0133FB73BB7B002BF0D11037BD4680BD80B582B000AF0346FB71FB7980
:4012C000184600F003F80837BD4680BD80B584B000AF0346FB7100F02DF8FB791B09FB73FB7B184600F0D2F8FB7903F00F03FB73FB7B184600F0CAF81037BD4680BD00BFFD
:4013000080B584B000AF0346FB7100F013F8FB791B09FB73FB7B184600F0F2F8FB7903F00F03FB73FB7B184600F0EAF81037BD4680BD00BF80B582B000AF4F4A4E4B1B7883
:40134000DBB223F07F03DBB213704C4B1B78DBB223F00F03FB71494AFB7943F00F03DBB21370474B1B78DBB223F00F03FB71444AFB791370434B1B78DBB223F00F03FB7190
:40138000404AFB7913703C4A3B4B1B78DBB223F02003DBB21370384A374B1B78DBB243F04003DBB21370002000F010FB324A324B1B78DBB243F01003DBB21370012000F0F5
:4013C00005FB314B1B78FB712B4A2B4B1B78DBB223F01003DBB21370002000F0F7FAFB7903F00803FB71244A234B1B78DBB243F01003DBB21370012000F0E8FA1E4A1E4B3C
:401400001B78DBB223F01003DBB21370FB79002BC9D1194A184B1B78DBB223F04003DBB21370154A144B1B78DBB223F07F03DBB21370124A114B1B78DBB223F00F03DBB2C4
:4014400013700F4B1B78DBB223F00F03FB710C4AFB7943F00F03DBB213700A4B1B78DBB223F00F03FB71074AFB7943F00F03DBB213700837BD4680BD2051004022510040BC
:4014800023510040245100402151004080B582B000AF0346FB71FFF74DFF184A174B1B78DBB243F02003DBB21370144A134B1B78DBB223F04003DBB21370104A0F4B1B7831
:4014C000DBB223F00F03DBB213700C490B4B1B78DAB2FB791343DBB243F01003DBB20B70012000F073FA054A044B1B78DBB223F01003DBB213700837BD4680BD2051004019
:4015000080B582B000AF0346FB71144A134B1B78DBB223F06003DBB21370104A0F4B1B78DBB223F00F03DBB213700C490B4B1B78DAB2FB791343DBB243F01003DBB20B7006
:40154000012000F043FA054A044B1B78DBB223F01003DBB213700837BD4680BD2051004080B582B000AF0023FB7106E0FB791846FFF78EF9FB790133FB71FB79012BF5D99D
:40158000024BFF221A700837BD4680BD0D81FF1F80B582B000AF0346FB71FFF7E1FFFB791846FFF755F9034AFB7913700837BD4680BD00BF0D81FF1F80B584B000AF0346C2
:4015C0000A46FB8013467B7100F0CCF80346FB7300F0A2F80346BB81FA88BB899A4200F08780454B1B78DBB203F00103FB72FB7B002B20D1BB89002B02D0FB88002B1AD148
:40160000BB89002B0BD13D4AFB8813803C4A3C4B1B78DBB223F04003DBB2137068E0384A374B1B78DBB243F04003DBB21370334AFB8813805CE0FB7A002B33D0314B00222D
:401640001A70314B01221A70304B00221A70304A2F4B1B78DBB203F07F03DBB21370284B1B78DBB203F00803002B02D0FB88002B18D1284ABB891380224B07221A7000BFAA
:40168000204B1B78DBB203F00103002BF8D11A4A194B1B78DBB223F00103DBB21370194B00221A70144B1B78DBB203F00103002B13D0184AFB881380124A7B79002B01D04D
:4016C000032300E00123137000BF0E4B1B78DBB203F00103002BF8D10AE0084AFB8813800549054B1B78DAB2FB7A1343DBB20B701037BD4680BD00BFA243004080400040CD
:4017000082400040014000401040004014400040084000400240004080B400AF034B1B889BB21846BD465DF8047B70478040004080B483B000AF0346FB71094B084A1278F0
:40174000D2B2D1B2FA7922F00702D2B20A43D2B2D2B21A700C37BD465DF8047B704700BF8240004080B400AF054B1B78DBB203F00703DBB21846BD465DF8047B704700BF57
:401780008240004080B584B000AF03460A46FB8013467B7100F0CCF80346FB7300F0A2F80346BB81FA88BB899A4200F08780454B1B78DBB203F00103FB72FB7B002B20D1FD
:4017C000BB89002B02D0FB88002B1AD1BB89002B0BD13D4AFB8813803C4A3C4B1B78DBB223F04003DBB2137068E0384A374B1B78DBB243F04003DBB21370334AFB8813800F
:401800005CE0FB7A002B33D0314B00221A70314B01221A70304B00221A70304A2F4B1B78DBB203F07F03DBB21370284B1B78DBB203F00803002B02D0FB88002B18D1284A21
:40184000BB891380224B07221A7000BF204B1B78DBB203F00103002BF8D11A4A194B1B78DBB223F00103DBB21370194B00221A70144B1B78DBB203F00103002B13D0184A37
:40188000FB881380124A7B79002B01D0032300E00123137000BF0E4B1B78DBB203F00103002BF8D10AE0084AFB8813800549054B1B78DAB2FB7A1343DBB20B701037BD46CA
:4018C00080BD00BFA14300400041004002410040014000401440004010400040084000400240004080B400AF034B1B889BB21846BD465DF8047B70470041004080B483B020
:4019000000AF0346FB71094B084A1278D2B2D1B2FA7922F00702D2B20A43D2B2D2B21A700C37BD465DF8047B704700BF0241004080B400AF054B1B78DBB203F00703DBB22B
:401940001846BD465DF8047B704700BF024100400230800803D000BF01380046FCD17047EFF3108072B6704780F31088704700BF80B483B000AF0346FB7101BE0C37BD4648
:401980005DF8047B704700BF80B582B000AF786008E00C4B1B681846FFF7DAFF7B68A3F500437B607B68B3F5004FF2D8064B1B687A6802FB03F31846FFF7CAFF0837BD46BB
:4019C00080BD00BF1C81FF1F1481FF1F80B582B000AF0346FB80FB88044A127802FB03F31846FFF7B5FF0837BD4680BD1881FF1F80B584B000AF03463960FB710F4B1B68D4
:401A0000FB60FB791F2B02D90020FFF7B1FFFB7903F01F0310339B00FA6813441B68BB60FB7903F01F0310339B00FA6813443A681A60BB6818461037BD4680BD08ED00E015
:401A400080B582B000AF03460A46FB711346BB71BB79072B02D90020FFF78AFFFB791F2B02D90020FFF784FFFB7903F01F0303F1604303F56443BA795201D2B21A70083722
:401A8000BD4680BD0E4B70B51E460E4C0025E41AA410A54204D056F8253098470135F8E700F0BEFC084B094C1E46E41AA4100025A54204D056F8253098470135F8E770BD75
:401AC0002C2400002C2400002C2400003424000010B5431E0A44914204D011F8014B03F8014FF8E710BD03460244934202D003F8011BFAE7704700000EB400B54FF4027125
:401B00009CB0ADF814106FF00041049107914FF6FF711DABADF81610084953F8042B02900690086802A9019300F064F8029B00221A701CB05DF804EB03B070478081FF1FAB
:401B40002DE9F0478E688246B3420C469046994640D38A8912F4906F3AD02568096902236F1A656905EB450595FBF3F57B1C4B449D4238BF1D4653050FD5294600F030FBD7
:401B8000064698B121693A46FFF7A2FFA38923F4906343F08003A38113E02A4600F076FB064670B95046216900F0D6FA0C23CAF80030A3894FF0FF3043F04003A381BDE8CC
:401BC000F08726613E4426604E466561ED1BA560B14500D24E4632462068414600F0A0FAA36800209B1BA36023681E442660BDE8F08700002DE9F0439DB003938B8906460C
:401C00001C060D4690460CD50B6953B9402100F0E7FA2860286110B90C233360CCE040236B610023099320238DF8293030238DF82A3043461C4613F8012B1AB9B4EB080998
:401C40000FD002E0252AF5D1F8E73046294642464B46FFF775FF013000F0A980099B4B4409932378002B00F0A28000234FF0FF3204930793059206938DF853301A9304F1B8
:401C800001084446DFF8489121784846052200F039FA08F10108049B30B1C9EB00000122824013430493ECE7D80644BF20228DF85320190744BF2B228DF8532022782A2A24
:401CC00002D0079923460EE0039A0134111D12680391002ABBBF524243F0020307920792B8BF04930AE01C4622780133303A092A03D80A2000FB0121F5E7079123782E2B1C
:401D00001AD163782A2B0AD1039B02341A1D1B680392002BB8BF4FF0FF3305930CE0611C00220C4623780131303B092B03D80A2000FB0232F5E70592DFF8988021784046E1
:401D4000032200F0DFF938B1049AC8EB00004023834013430493013421781A48062204F101088DF8281000F0CDF988B1164B33B9039B073323F007030833039313E003AB73
:401D80000093304604A92A46104BAFF3008007E003AB0093304604A92A460C4B00F092F8421C074603D0099B3B44099341E7AB895B0601D4099801E04FF0FF301DB0BDE8C3
:401DC000F08300BFF423000000000000411B0000EA230000F02300002DE9F84391461F468A680B6906469342B8BF1346C9F8003091F843200C46DDF8208012B10133C9F8DE
:401E000000302368990642BFD9F800300233C9F80030256815F006051CD094F843302268003318BF012392061FD5E118302081F843005A1C94F845102244023382F8431090
:401E400013E03046394604F119020123C047013007D00135E368D9F800209B1A9D42F0DBDBE74FF0FF30BDE8F8833046394604F14302C0470130F4D02268D9F80050E368F5
:401E800002F00602042A08BF5D1B2269A3680CBF25EAE57500259342C4BF9B1AED184FF00009A9450ADA3046394604F11A020123C0470130D5D009F10109F2E70020BDE8F7
:401EC000F88300002DE9FF410C461746227E98466E2A06460A9B01F1430100F0B08012D8632A23D00AD8002A00F0BD80582A40F0CC8084F84520DFF804E257E0642A1ED013
:401F0000692A1CD0C1E0732A00F0B18009D86F2A2ED0702A40F0B980226842F0200222603FE0752A24D0782A3BD0AEE01A6804F14205111D1960136884F84230A9E020681C
:401F40001A6810F0800F02D0101D186008E010F0400F02F10400186002D0B2F9003000E01368002B3EDA2D225B4284F8432039E020681A6810F0800F02D0101D186007E00D
:401F800010F0400F02F10400186001D0138800E01368227EDFF864E16F2A0CBF08220A221CE07822DFF858E184F845202268186812F0800F00F104051D6003D1550601D588
:401FC000038800E00368D00744BF42F0200222601BB9226822F0200222601022002084F8430002E0DFF814E10A226568002DA8BF2068A560A4BF20F00400206003B965B1A5
:402000000D46B3FBF2F002FB10331EF8033005F8013D03460028F4D100E00D46082A0BD12368DA0708D5236962689A42DEBF302305F8013C05F1FF35491B21612EE0256832
:402040001A6815F0800F606903D0151D1D60136808E015F0400F02F104051D60136801D0188000E01860002323610D4616E01A68111D1960156800212846626800F042F87A
:4020800008B1401B6060636804E004F1420584F8422001232361002384F84330CDF800803046214603AA3B46FFF796FE013002D14FF0FF301FE0304639462A462369C04786
:4020C0000130F5D023689B0705D4E068039B9842B8BF18460FE00025E368039A9B1A9D42F3DA3046394604F119020123C0470130DED00135F0E704B0BDE8F081FB230000EE
:402100000C24000010B5C9B202449042034605D01C7801308C42F8D1184610BD002010BD814210B501EB020301D3421E0BE09842FBD28118D21AD34204D013F8014D01F886
:40214000014DF8E710BD994204D011F8014B02F8014FF8E710BD000030B500293CD051F8042C0B1F1D49002AB8BF9B180A680C4612B95A600B6030BD93420DD219685818AE
:40218000904201BF5A5852181A60426823605A6030BD994203D80A4651680029F9D1146815199D420AD11B682344D0188842136012D10868034413604B680CE002D90C2348
:4021C000036030BD1C681819884201BF08684968001918605960536030BD00BFC081FF1F70B5CC1C24F0030408340C2C38BF0C24002C064603DA0C233360002070BD8C4232
:40220000F9D3204A136810461946A1B10A68121B0ED40B2A03D90A608B188C501FE08B420BBF5A684A6802605A6018BF0B4616E00B464968E9E7144D2B681BB9304600F027
:402240004BF828603046214600F046F8421C0346D1D0C51C25F0030585420AD11C6003F10B001A1D20F00700821A0AD05142995070BD3046E91A00F02FF80130BBD02B46FB
:40228000ECE770BDC081FF1FBC81FF1FF8B5074615460E4621B91146BDE8F840FFF7A0BF1AB9FFF759FF2846F8BD00F025F8A8420ED238462946FFF793FF044650B1314606
:4022C0002A46FFF705FC38463146FFF745FF01E03046F8BD2046F8BD38B5064C002305460846236000F012F8431C02D1236803B12B6038BDD081FF1F51F8040C0028BEBF4B
:40230000091851F8043CC01804387047044A05491368002B08BF0B461844106018467047C481FF1FD881FF1F0000000041444320696E70757420766F6C74000025376C64EA
:4023400000000000035B00402443004040000000700100006801000060010000580100005801000058010000A881FF1FA881FF1FA881FF1FA881FF1FA881FF1FA881FF1FE8
:40238000A881FF1FA881FF1FA881FF1FA881FF1FA881FF1FA881FF1FA881FF1FA881FF1FA881FF1FA881FF1F00000048800000480001004880010048000200488002004821
:4023C000000300488003004800040048800400480005004880050048000600488006004800070048800700484300232D302B2000686C4C006566674546470030313233342F
:402400003536373839414243444546003031323334353637383961626364656600000000F8B500BFF8BC08BC9E4670479D01000049040000F8B500BFF8BC08BC9E467047A9
:4024400079010000582400000881FF1F8000000050000000000000000000000001FF000000366E01C05D0000180000000000E02E0000000000000000000000000000000007
:4024800000000000000000000000000000000000E8230000000000000000000000000000000000000000000000000000000000000000000000000000000000000000000011
:4024C000000000000000000000000000000000002081FF1F00000000000000000000000000000000000000000000000000000000000000000000000000000000000000001D
:40250000000000000000000000000000000000000000000000000000000000000000000000000000000000000000000000000000000000000000000000000000000000009B
:40254000000000000000000000000000000000000000000000000000000000000000000000000000000000000000000000000000000000000000000000000000000000005B
:40258000000000000000000000000000000000000000000000000000000000000000000000000000000000000000000000000000000000000000000000000000000000001B
:4025C00000000000000000000000000000000000000000000000000000000000000000000000000000000000000000000000000000000000000000000000000000000000DB
:020000040003F7
:0200000480007A
:4000000000000000000000000000000000000000000000000000000000000000000000000000000000000000000000000000000000000000000000000200000000000100BD
:40004000000000000000000000000000000000000000000000000000040000000000000100000000000000000000000000000000000000000000000000000000000000007B
:400080000000000000000000000000000000000000000000000000000000000000000000000000000000000000000000000000000000000000080000000000000000000038
:4000C00000000000000000000000000000000000000000000000000000000000000000000000000000000000000000000800000000000000000000000000000000000000F8
:4001000000000000000000000000000000000000000000000000000000000000000000000000000000080000000000000000000000000000000000000000000000000000B7
:40014000000000000000000000000000000000000000000000000000000000000000000000000000000000000000000000000000000000000000000000000000000000007F
:400180000000000000000000000000000000000000000000000000000000000000000000000000000008000000000000000000000000000001000000000000000000000036
:4001C00000000000000000000000000000000000000000000000000000000000000000000000000000000000000000000800000000000000000000000000000000000000F7
:4002000000000000000000000000000000000000000000000000000000000000000000000000000000000000000000000000000000000000000000000000000000000000BE
:400240000000000000080000000000000000000000000000000000000000000000000000000000000000000000000000000000000000000000000000000000000000000076
:40028000000000000000000000000000000000000000000001000000000000000000000000000000000000000000000000000000000000000000000000000000000000003D
:4002C00000000000000000000000000000000000010000000000000000000000000000000000000000000000000000000000000000000000000000000000000000000000FD
:4003000000000000000000000000000000000000000000000100000000000000000000000000000000000000000000000000000000000000000000000000000000000000BC
:40034000000000000000000000000000000000000000000000000000000000000000000000000000000000000000000000000000000000000000000000000000000000007D
:40038000000000000000000000000000000000000000000000000000000000000000000000000000000000000000000000000000000000000000000000000000000000003D
:4003C00000000000000000000000000000000000000000000000000000000000000000000000000000000000000000000000000000000000000000000000000001000000FC
:4004000000000000000000000000000000000000000000000000000000000000000000000000000000000000000000000000000000000000000000000000000000000000BC
:40044000000000000000000000000000000000000000000000000000000000000000010000000000000000000000000000000000000000000000000000000000000000007B
:40048000000000000000000000000000000000000000000000000000000000000000000000000000000000000000000000000000000000000000000000000000000000003C
:4004C00000000000000000000000000000000000000000000000000000000000000000000000000000000000000000001000000000000000000000000000000000000000EC
:4005000000000000000000000000000000000000000000000000000000000000000000000000000000000000000000000000000000000000000000000000000000000000BB
:40054000000000000000000000000000000000000000000000000000000000000000000000000000000000000000000010000000000000000000000000000000000000006B
:400580000000000000000000000000000000000000000000000000000000000000000000000000000000000000000000000000000000000000020000000000000000000039
:4005C00000000000000000000000000000000000000000000000000000000000000000000000000000000000000000000000000000000000000000000000000000000000FB
:4006000000000000000000000000000000000000000000000000000000000000000200000000000000000000000000000000000000000000000000000000000000000000B8
:40064000000000000000000000000000000000000000000000000000000000000000000000000000000000000000000000000000000000000000000000000000000000007A
:40068000000000000000000000000000000000000000000000000000000000000000000000000000000000000000000000000000000000000010000000000000000000002A
:4006C00000000000000000000000000000000000000000000000000000000000000000000000000000000000000000000000000000000000000000000000000000000000FA
:4007000000000000000000000000000000000000000000000000000000000000000000000000000000100000000000000000000000000000000000000000000000000000A9
:400740000000000000000000000000000000000000000000000000000000000000000000000000000000000000000000000000000000000000000000000000000000000079
:400780000000000000000000000000000000000000000000000000000000000000000000000000000000000000000000000000000000000000000000000000000000000039
:4007C00000000000000000002000000000000000000000000000000000000000000000000000000000000000000000000000000000000000000000000000000000000000D9
:40080000007F7F000000000000000000000020000700180100000000000000000000000000000000000000000000000000000000000000000000000000000000000000007A
:400840000000000000000000000000000000000000000000000000000000000000000000000000000000000000000000000000000000000000000000000000000000000078
:400880000000000000000000000000000000000000000000000000000000000000000000000000000000000000000000000000000000000000000000000000000000000038
:4008C00000000000000000000000000000000000000000000000000000000000000000000000000000000000000000000000000000000000000000000000000000000000F8
:4009000000000000000000000000000000000000000000000000000000000000000000000000000000000000000000000000000000000000000000000000000000000000B7
:0200000490006A
:0400000000004005B7
:0200000490105A
:04000000BC90ACAF55
:0200000490303A
:020000003EE9D7
:0200000490402A
:4000000000000000000000000000000000000000000000000000000000000000000000000000000000000000000000000000000000000000000000000000000000000000C0
:400040000000000000000000000000000000000000000000000000000000000000000000000000000000000000000000000000000000000000000000000000000000000080
:400080000000000000000000000000000000000000000000000000000000000000000000000000000000000000000000000000000000000000000000000000000000000040
:4000C0000000000000000000000000000000000000000000000000000000000000000000000000000000000000000000000000000000000000000000000000000000000000
:0200000490501A
:0C00000000012E12306900012E1F6F520B
:00000001FF