:400000000080002011000000390200003902000080B500AF024A034B1B68136000F010F9BC760040FA4600400800022300000876080003230000107608000423000028760E
:4000400008000523000030760500062300002070050007230000307005000823000060700500FE230000707010000A220000105140000B220000305110000C220000C0513D
:400080001000FE220000F05180070E220000000080010F2200000008800010220000000A000411220000000C00081222000000140001132200000040000614220000004419
:4000C000000215220000004C2000FE22000000500C00FE230000004F800018230000800A800019230000800980001A230000800780001B230000000B80001C230000800B8E
:4001000080001D230000004380001E230000804380001F2300000042800020230000804280002123000000418000FE230000804101000000010000000100000000480140BC
:4001400001000000004800400100000000200140010000000020004010B5054C237833B9044B13B10448AFF300800123237010BD2081FF1F00000000E40E0000084B10B5C8
:400180001BB108480849AFF300800848036803B910BD074B002BFBD0BDE81040184700BF00000000E40E00002481FF1F0881FF1F0000000080B500AF00F0BAFA00F0FEFB44
:4001C00000F0D0FA002000F0DFFD00F0EDFD00F0A7FB0020002100F001FC164800F034FC0120002100F0FAFB00F08CFB0346184600F0AEFD0120052100F0F0FB00F074FBE0
:400200000346184600F0A4FD01200A2100F0E6FB00F086FB0346184600F09AFD01200A2100F0DCFB00F07CFB0346184600F090FDF4E700BFE80E000080B400AFFEE700BF15
:4002400080B586B000AF224B7B61224B3B61204B7B6135E03B691B68FB603B695B68BB603B699B683B6000237B600CE0FB681A68BB681A60BB680433BB60FB680433FB609A
:400280007B6804337B607A683B689A42EED13B69DB683B6000237B6008E0BB6800221A60BB680433BB607B6804337B607A683B689A42F2D13B6910333B617B69013B7B61F5
:4002C0007B69002BC6D100F0DBFDFFF773FFFEE701000000B00F000080B582B000AF174B174A1A60174A174B1B6843F40073136000237B600FE07B68032B04D8124A7B68B4
:4003000052F8233000E0114B11497A6841F822307B6801337B607B682F2BECD90D4B1B78DAB20D4B1A700D4B094A1A6000F094F90B4B00221A600837BD4680BD0CED00E0E4
:400340000004FA0514ED00E000000000390200000080FF1FBC7600400481FF1F08ED00E00081FF1F80B584B000AFF860B9607A60F868B9687A6800F0A9FD1037BD4680BD54
:4003800080B483B000AF0346FB71FEE780B483B000AF434B00221A60424B10221A70424B01221A70414B00221A70414B4FF484721A80404B01221A703F4B03221A703F4B38
:4003C0003F4A92B21A803F4B47F608021A803E4B00221A803D4B4FF480421A803C4B09221A703C4B0D221A703B4B16221A703B4B17221A70BFF35F8F394B01221A70BFF32F
:400400005F8F00BF2A4B1B889BB2002BFAD100237B600DE07B68DA00324B13441946324A7B6852F823309BB20B807B6801337B607B68202BEED9BFF35F8F294B01221A705D
:40044000BFF35F8F00BF294B1B78DBB203F00103002BF8D100BF264B1B78DBB203F00103002BF8D100BF234B1B78DBB203F00103002BF8D100BF204B1B78DBB203F00103EA
:40048000002BF8D100BF1D4B1B78DBB203F00103002BF8D10C37BD465DF8047B704700BF4081FF1F007600401070004019700040007800400278004003780040047800407F
:4004C0002800000006780040047600400676004029700040397000406970004079700040147000400C780040F80E0000187000402870004038700040687000407870004046
:4005000080B582B000AF334B00221A80324B58221A70324B40F6B7321A80314B19221A70304B02221A704FF0402308221A702E4B03221A702D4B2E4A1278D2B21A702D4BCC
:4005400008221A802C4B41F251221A800023FB7019237B6014E0FB785B00DAB2274B1B78DBB203F00103DBB21343DBB203F00303FB704FF4F07000F023FC7B68013B7B6004
:400580007B68002B02D0FB78032BE4D17B68002B02D10320FFF7F4FE194B4FF480721A80174B07221A70174B00221A70164B48221A70134B00221A70144B02221A70144AF9
:4005C000134B1B78DBB243F00303DBB213700837BD4680BD804000408240004084400040864000400043004000420040A1460040080100492242004020420040254200403E
:4006000004400040064000400840004001400040A243004080B483B000AF0B4B1B78FB710A4AFB7903F00703DBB21370084AFB791B09DBB21370074B44221A700C37BD46C0
:400640005DF8047B704700BFCF0100496E5800406F5800407658004080B500AF72B6274A264B1B78DBB243F00403DBB21370FFF78DFE234A224B1B78DBB243F00203DBB264
:400680001370204A1F4B1B78DBB243F00203DBB213701D4A1C4B1B78DBB243F04003DBB213701A4A194B1B78DBB243F01003DBB21370174817490822FFF754FE16481749DA
:4006C0000822FFF74FFE164A154B1B78DBB243F00803DBB21370134B00221A70FFF710FF104B80221A70104B01221A70FFF792FF0E4805490E22FFF735FE80BDE846004092
:400700000350014013500140A0430040C2430040025100408C0500482251004094050048224300400048004004000840B043004080B400AF094A094B1B78DBB243F002038B
:40074000DBB21370064A064B1B78DBB243F00203DBB21370BD465DF8047B7047A2430040B243004080B500AF054B1B78002B04D100F008F8024B01221A7000F061F880BD41
:400780004881FF1F80B582B000AF284A274B1B78DBB243F00203DBB21370254B1B78DBB223F07003FB71224AFB7943F03003DBB21370204A1F4B1B78DBB223F03003DBB251
:4007C00013701C4A1B4B1B78DBB243F03003DBB21370184A174B1B78DBB223F00F03DBB21370144A134B1B78DBB243F00F03DBB21370FF2000F048F87F2000F055F800207F
:4008000000F062F80C4A0C4B1B78DBB243F00103DBB21370094A094B1B78DBB243F00103DBB213700837BD4680BD00BF004F0040024F00400B4F0040A3430040014F00409E
:4008400080B400AF0D4A0D4B1B78DBB243F00103DBB213700A4A0A4B1B78DBB243F00103DBB21370074A074B1B78DBB243F00103DBB21370BD465DF8047B7047A3430040B1
:40088000B3430040004F004080B483B000AF0346FB71044BFA7992B21A800C37BD465DF8047B7047044F004080B483B000AF0346FB71044BFA7992B21A800C37BD465DF89E
:4008C000047B7047064F004080B483B000AF0346FB71044AFB7913700C37BD465DF8047B704700BF034F004080B400AF044B1B889BB2DBB21846BD465DF8047B704700BFA1
:40090000064F004080B400AF044B1B889BB2DBB21846BD465DF8047B704700BF044F004080B400AF034B1B78DBB21846BD465DF8047B70476B64004080B500AF282000F0CD
:400940006BFA032000F0D4F9052000F065FA032000F0CEF90F2000F05FFA032000F0C8F9012000F059FA022000F0C2F9052000F053FA062000F0AAF80E2000F0A7F82C2044
:4009800000F0A4F8082000F0A1F8012000F09EF80C2000F09BF8032000F098F8052000F03BFA80BD80B500AF0C2000F08FF8024B01221A7080BD00BF4981FF1F80B500AF31
:4009C000054B1B78002B04D1FFF7B6FF024B01221A70FFF7E7FF80BD4A81FF1F80B582B000AF03460A46FB711346BB71FB79032B26D801A252F823F0090A0000170A0000F9
:400A0000250A0000330A0000BB79803BDBB2184600F05CF815E0BB79403BDBB2184600F055F80EE0BB796C3BDBB2184600F04EF807E0BB792C3BDBB2184600F047F800E0FA
:400A400000BF0837BD4680BD80B584B000AF78600123FB737B681B78BB730BE0BB7B184600F01AF8FB7B7A6813441B78BB73FB7B0133FB73BB7B002BF0D11037BD4680BD60
:400A800080B582B000AF0346FB71FB79184600F003F80837BD4680BD80B584B000AF0346FB7100F02DF8FB791B09FB73FB7B184600F0E2F8FB7903F00F03FB73FB7B1846EE
:400AC00000F0DAF81037BD4680BD00BF80B584B000AF0346FB7100F013F8FB791B09FB73FB7B184600F004F9FB7903F00F03FB73FB7B184600F0FCF81037BD4680BD00BF7A
:400B000080B582B000AF4FF4CA737B60554A554B1B78DBB223F07F03DBB21370524B1B78DBB223F00F03FB704F4AFB7843F00F03DBB213704D4B1B78DBB223F00F03FB704A
:400B40004A4AFB7813704A4B1B78DBB223F00F03FB70474AFB781370424A424B1B78DBB223F02003DBB213703E4A3E4B1B78DBB243F04003DBB21370002000F06FF9394AEE
:400B8000384B1B78DBB243F01003DBB21370012000F064F9374B1B78FB70324A314B1B78DBB223F01003DBB21370002000F056F9FB7803F00803FB702A4A2A4B1B78DBB2BC
:400BC00043F01003DBB21370012000F047F9254A244B1B78DBB223F01003DBB21370FB78002B02D10A2000F039F97B68013B7B60FB78002B02D07B68002BBDD1194A194B90
:400C00001B78DBB223F04003DBB21370154A154B1B78DBB223F07F03DBB21370124A124B1B78DBB223F00F03DBB213700F4B1B78DBB223F00F03FB700C4AFB7843F00F0384
:400C4000DBB213700A4B1B78DBB223F00F03FB70074AFB7843F00F03DBB213700837BD4680BD00BF205100402251004023510040245100402151004080B582B000AF03462A
:400C8000FB711A4A194B1B78DBB243F02003DBB21370164A154B1B78DBB223F04003DBB21370002000F0DAF8104A104B1B78DBB223F00F03DBB213700C490C4B1B78DAB27D
:400CC000FB791343DBB243F01003DBB20B70012000F0C4F8054A054B1B78DBB223F01003DBB213700837BD4680BD00BF2051004080B582B000AF0346FB71144A134B1B7884
:400D0000DBB223F06003DBB21370104A0F4B1B78DBB223F00F03DBB213700C490B4B1B78DAB2FB791343DBB243F01003DBB20B70012000F093F8054A044B1B78DBB223F0BB
:400D40001003DBB213700837BD4680BD2051004080B582B000AF0346FB71FB791B09DBB21A46084B9B5C1846FFF78AFEFB7903F00F03044AD35C1846FFF782FE0837BD469E
:400D800080BD00BF7C0F000080B483B000AF0346FB71044AFB7913700C37BD465DF8047B704700BF7B64004080B400AF034B1B78DBB21846BD465DF8047B70477B64004091
:400DC000142816D902B4012114381049097811F0C001890904B40E4A515C04BC00BF00BF00BF8841FDD500BF00BF02BC704700BF00BF70F10400FCD570470B050709EFF3C1
:400E0000108072B6704780F31088704700480040FA0D0000AFF3008080B582B000AF786008E00C4B1B681846FFF7CAFF7B68A3F500437B607B68B3F5004FF2D8064B1B68F2
:400E40007A6802FB03F31846FFF7BAFF0837BD4680BD00BF1881FF1F1081FF1F80B582B000AF0346FB80FB88044A127802FB03F31846FFF7A5FF0837BD4680BD1481FF1F9A
:400E80000E4B70B51E460E4C0025E41AA410A54204D056F8253098470135F8E700F076F8084B094C1E46E41AA4100025A54204D056F8253098470135F8E770BD980F000066
:400EC000980F0000980F0000A00F000010B5431E0A44914204D011F8014B03F8014FF8E710BD00000000000050574D2042415349432054455354000050010000480100001E
:400F00004001000038010000300100003001000030010000300100004081FF1F4081FF1F4081FF1F4081FF1F4081FF1F4081FF1F4081FF1F4081FF1F4081FF1F4081FF1FBD
:400F40004081FF1F4081FF1F4081FF1F000000480C0000488C0000480C0100488C0100480C0200488C0200480C0300488C0300480C0400488C0400480C0500483031323391
:400F8000343536373839414243444546F8B500BFF8BC08BC9E4670477D010000D9020000F8B500BFF8BC08BC9E46704759010000C00F00000881FF1F1800000030000000E6
:400FC0000000000000366E01C05D0000180000000000E02E000000000000000000000000000000000000000000000000000000000000000000000000000000000000000009
:4010000000000000000000000000000000000000000000000000000000000000000000000000000000000000000000000000000000000000000000000000000000000000B0
:401040000000000000000000000000000000000000000000000000000000000000000000000000000000000000000000000000000000000000000000000000000000000070
:401080000000000000000000000000000000000000000000000000000000000000000000000000000000000000000000000000000000000000000000000000000000000030
:4010C00000000000000000000000000000000000000000000000000000000000000000000000000000000000000000000000000000000000000000000000000000000000F0
:020000040003F7
:0200000480007A
:40000000001000000000000000008D000000000000000000000000000000000000000000000000000000000000000000000000000000000000000000000000000000000023
:400040000000000002000000000001000000000000000000000000000000000000000000000000000400000400000001000000000000000000000000000000000000000074
:40008000000000000000000000000000000000800000000000000000000000000000000000000000000000000000008000000000000000000000000300000000000000003D
:4000C0000000000000000000000000000000000000000000000000000000000000000000000000000000000000000000000000000000000000000000000000000000000000
:4001000000000000000000000000000000000000000000000000000000000000000000000000000000000000000000000000000000000000000000000000000000000000BF
:400140000000000000000000000000000000000000000000000000000000000000000000000000000000000000000000010000000000000000000400000004000000000076
:40018000000000000000000000000000000000000000000000000000000000000000000000000000000000000000000100000000000000000000000000000000000000003E
:4001C000000000000000000000000000000000000000000000000000000000000000000000000000000000000000008000000000000000000000000000000002000000007D
:4002000000000000000000000000000000000000000000000000000000000000000000000000000000000000000000000000000000000000000000000000000000000000BE
:40024000000000000000000000000000000000000000000000000000000000000000000000001000000000000000000000000000000000000000000000000000000000006E
:40028000000000000000000000000000000000000000000000000000000000000000000000000000000010000000000000000000000000000000000000000000000000002E
:4002C00000000000000000000000000000000000000000000000000000000000000000000000000000000000000000000001000000000000000000000000000000000000FD
:4003000000000000000000000000000000001000000000000000000000000000000000000000000000010000000000000000000000000000080100000000000000000000A3
:40034000000000000000000000000000000000000000100000000000000000000000000000000000400000000000000080000000000000000000200000002000000000006D
:4003800000000000000000000000000000000000000000000000000000000000000080000000000000000000000000000000000000000000000000000000000000000000BD
:4003C00000000000000000000000000000000000000000000000000000000000000000000000000008000000000000000000000000000000000000000000000000000000F5
:40040000000000000000000000000000000000000000000000000000000000000000000000000000000000000000000000000000000080000000000000000000000000003C
:40044000000000000000000000000000000000001000000000000000000000000000000000004000000000000000000000000000000000000000000000000000000000002C
:40048000000000000000000000000000000000000000000000000000000000000000000000000000000000000000000000000000000000000000000000000000000000003C
:4004C000000000000000000000000000000000000000000000000000000000000000800000000000000000000000000000000000000000000000000000000000000000007C
:4005000000000000000000000000000000000000000000000000000000000000000000000000000000000000000000000000000000000000000000000000000000000000BB
:40054000000000000000000000000000000000000000000000000000000000000000000020000000000000000000000000000000000000000000000000000000000000005B
:400580000000000000000000000000000001010001000000007F7F00000000000000000000000000000000000000000000000000000000000000000000000000000000003A
:4005C00000000000000000000000000000000000000000000000000000000000000000000000000000000000000000000000000000000000000000000000000000000000FB
:4006000000000000000000000000000000000000000000000000000000000000000000000000000000000000000000000000000000000000000000000000000000000000BA
:40064000000000000000000000000000000000000000000000000000000000000000000000000000000000000000000000000000000000000000000000000000000000007A
:40068000000000000000000000000000000000000000000000000000000000000000000000000000000000000000000000000000000000000000000000000000000000003A
:0200000490006A
:0400000000004005B7
:0200000490105A
:04000000BC90ACAF55
:0200000490303A
:02000000A9163F
:0200000490402A
:4000000000000000000000000000000000000000000000000000000000000000000000000000000000000000000000000000000000000000000000000000000000000000C0
:400040000000000000000000000000000000000000000000000000000000000000000000000000000000000000000000000000000000000000000000000000000000000080
:400080000000000000000000000000000000000000000000000000000000000000000000000000000000000000000000000000000000000000000000000000000000000040
:4000C0000000000000000000000000000000000000000000000000000000000000000000000000000000000000000000000000000000000000000000000000000000000000
:0200000490501A
:0C00000000012E12306900012E17D97F7C
:00000001FF