:400000000080002011000000F9000000F900000080B500AF024A034B1B68136000F070F8BC760040FA46004010B5054C237833B9044B13B10448AFF300800123237010BDBD
:400040003081FF1F0000000020250000084B10B51BB108480849AFF300800848036803B910BD074B002BFBD0BDE81040184700BF00000000202500003481FF1F0881FF1F67
:400080000000000080B582B000AF0023FB7162B6174801F0B3F90020012100F043FA00BF00F0E4FB0346002BFAD001201149032200F0E8FB00BF012000F060FC0346002B39
:4000C000F9D001200B49032200F0DCFBFB790133FB71FB79802B03D1064B05225A7005E0FB79FF2B02D1034BFB225A70E2E700BF0C81FF1F4C81FF1F80B400AFFEE700BF5D
:4001000080B586B000AF224B7B61224B3B61204B7B6135E03B691B68FB603B695B68BB603B699B683B6000237B600CE0FB681A68BB681A60BB680433BB60FB680433FB60DB
:400140007B6804337B607A683B689A42EED13B69DB683B6000237B6008E0BB6800221A60BB680433BB607B6804337B607A683B689A42F2D13B6910333B617B69013B7B6136
:400180007B69002BC6D102F091F9FFF77BFFFEE701000000F426000080B582B000AF174B174A1A60174A174B1B6843F40073136000237B600FE07B68032B04D8124A7B68DE
:4001C00052F8233000E0114B11497A6841F822307B6801337B607B682F2BECD90D4B1B78DAB20D4B1A700D4B094A1A6000F00EF90B4B00221A600837BD4680BD0CED00E0AC
:400200000004FA0514ED00E000000000F90000000080FF1FBC7600400481FF1F08ED00E00081FF1F80B582B000AF78603960786800213A6802F06BF90837BD4680BD00BFFC
:4002400080B584B000AFF860B9607A60F868B9687A6802F051F91037BD4680BD80B483B000AF0346FB71FEE780B487B000AF7860396000233B6100237B6127E07B699B0076
:400280007A6813441B68BB60BB68FB73BB6823F0FF03BB6014E03B695B003A6813441B781A46BB68134419463B695B003A6813445B780B703B6901333B61FB7B013BFB73F1
:4002C000FB7B002BE7D17B6901337B617B690B2BD4D91C37BD465DF8047B704780B582B000AF2B482B490422FFF7AAFF2A4B06221A702A4B52221A70294B2A4A1278D2B2B7
:400300001A70294B40F20B721A80284B41F251221A800023FB7019237B6014E0FB785B00DAB2234B1B78DBB203F00103DBB21343DBB203F00303FB704FF4F07001F0E4FF00
:400340007B68013B7B607B68002B02D0FB78032BE4D17B68002B02D10320FFF77FFF154B4FF480721A80134B07221A70124B00221A70124B48221A700E4B00221A70104BDB
:4003800000221A700F4B02221A700837BD4680BD00410040640000480043004000420040A14600400F010049224200402042004025420040044000400640004008400040D9
:4003C000094000400140004080B483B000AF0B4B1B78FB710A4AFB7903F00703DBB21370084AFB791B09DBB21370074B44221A700C37BD465DF8047B704700BFCF010049CE
:400400006E5800406F5800407658004080B582B000AF72B6354A354B1B78DBB243F00403DBB213700023FB7113E0FA7913465B0013445B002E4A13443B603B681A683B686D
:400440009B889BB210461946FFF7ECFEFB790133FB71FB79072BE8D94FF090402549FFF703FF254A244B1B78DBB243F00203DBB21370224A214B1B78DBB243F00203DBB284
:4004800013701F4A1E4B1B78DBB243F04003DBB213701C4A1B4B1B78DBB243F01003DBB21370194819490A22FFF7CAFE184819490822FFF7C5FE184A174B1B78DBB243F096
:4004C0000803DBB21370154B00221A70FFF706FF124B80221A70FFF777FF114808490E22FFF7AEFE0837BD4680BD00BFE846004024250000300000480350014013500140C4
:40050000A0430040C2430040F051004050000048125100405C0000482243004000480040B043004080B582B000AF03460A46FB711346BB71084B1B78002B04D100F00EF817
:40054000054B01221A70FA79BB791046194600F0C1F80837BD4680BD5081FF1F80B582B000AF01F0F0FE0346FB714B4A4A4B1B78DBB243F00103DBB21370484A474B1B7819
:40058000DBB243F00103DBB21370454B01221A70444B02221A70444A434B1B78DBB203F07F03DBB21370002001F0E6FE3F4A3F4B1B78DBB223F00603DBB213703C4A3C4BCB
:4005C0001B78DBB223F02003DBB21370374A374B1B78DBB243F00103DBB21370012001F0CBFE282001F0C8FE324A324B1B78DBB203F07F03DBB213702E4A2E4B1B78DBB2A2
:4006000023F04003DBB21370284A284B1B78DBB243F00203DBB21370022001F0ADFE234A224B1B78DBB243F00403DBB21370224B00221A70214B00221A70FB79184601F011
:4006400086FE1720072101F0D1FE17201C4901F0A5FE1820072101F0C9FE1820194901F09DFE1520072101F0C1FE1520164901F095FE0020072101F0B9FE0020134901F0E7
:400680008DFE0C20072101F0B1FE0C20104901F085FE0837BD4680BDA5430040B54300409D60004009600040106000409443004012600040F85100408460004085600040B2
:4006C0003D100000BD09000031100000DD0F0000F113000080B584B000AF03460A46FB711346BB710023FB7306E0FB7B2F4A0121D154FB7B0133FB73FB7B002BF5D02C4A73
:40070000FB7913702B4B00221A702B4B00221A702A4B00221A702A4B00221A70294B00221A70294B00221A70284B00221A70284B4FF400021A60264B4FF080721A60244B20
:400740004FF400121A60224B01221A60BB79002B02D0012B09D011E01E4A1E4B1B78DBB223F00103DBB2137011E01A4A194B1B78DBB243F00103DBB2137008E0154A154B9A
:400780001B78DBB243F00103DBB2137000BF124B03221A70114B80221A70012001F0B4FD0F4B04221A701037BD4680BD0082FF1F7481FF1F7A81FF1F7881FF1F7981FF1F30
:4007C0007581FF1F6081FF1F7781FF1FF081FF1F00E100E00960004028600040086000401260004080B483B000AF0023FB7106E0FB79144A0121D154FB790133FB71FB7989
:40080000002BF5D0104B00221A70104B00221A700F4B00221A700F4B00221A700E4B00221A700E4B00221A700D4B00221A700D4B03221A700C4B80221A700C37BD465DF87B
:40084000047B70470082FF1F7A81FF1F7881FF1F7981FF1F7581FF1F6081FF1F7781FF1FF081FF1F286000400860004080B400AF034B1B78DBB21846BD465DF8047B7047F5
:400880007981FF1FB0B485B000AF03463960FB711346BB80FB79002B66D0FB79082B63D8B988FA79324813465B0013449B000344DB889BB2C3F5007399420BD9FA792C49A2
:4008C00013465B0013449B000B44DB889BB2C3F50073BB80274CF979BB881B0A9BB2D8B2FA79234D13465B0013449B002B44DB78DBB20343DAB20B0123441A701D4AFB7947
:40090000B988C9B21B0113440A465A703B68002B13D00023FB810CE01748FB79FA8939680A4412781B01034408331A70FB890133FB81FA89BB889A42EED3FA790C49134683
:400940005B0013449B000B4400225A700948F979FA79074C13465B0013449B0023445B79DAB20B0103449A701437BD46B0BC70478481FF1FFC5F00407060004080B485B0F4
:4009800000AF0346FB710023FB73FB79002B0BD0FB79082B08D8084AFB791B0113449B78DBB203F01003FB73FB7B18461437BD465DF8047B704700BFFC5F004080B582B086
:4009C00000AF374B1B78BB71BB7903F01003002B63D00123FB71BB795BB2002B13DABB7903F00F03012B02D00023FB711DE000F061F82C4B1B78DBB2DBB25BB2002B14DA30
:400A00000023FB7111E0BB7903F04003002B02D000F094F809E0BB7903F02003002B02D000F0B2F801E00023FB71FB79002B34D01B4B1B78BB71BB795BB2002B2DDB1A4B78
:400A40001B78DAB2194B1B78DBB21343BB71184ABB791370164B1B78DBB2BA799A421CD1104B1B78FB710E4B1B78DBB223F07F03BB71BB79002B0AD1094B0A4A1278D2B237
:400A80001A70074B1B78DBB203F00F03FB71054B1B78DBB2FA799A42E2D10837BD4680BD286000406181FF1F7681FF1FF181FF1F2960004080B582B000AF1D4B1B78FB7125
:400AC0001B4AFB7913701A4B1B78FB71FB795BB2002B03DA174AFB79137025E0022000F043FA154B1B78DBB203F06003202B08D0402B0BD0002B0ED100F0A2FC0346FB7175
:400B00000CE001F095FC0346FB7107E001F0C0FB0346FB7102E00023FB7100BFFB79002B02D1044B03221A700837BD4680BD00BF286000406181FF1F0060004080B500AF20
:400B4000104B1B78DBB2062B19D801A252F823F07F0B00007F0B00006D0B00007F0B0000730B00007F0B0000790B000000F0FAF806E000F0A9F903E000F0D2F900E000BF9F
:400B800080BD00BF7A81FF1F80B500AF124B1B78DBB2062B1DD801A252F823F0D30B0000D30B0000B90B0000D30B0000BF0B0000D30B0000C50B000000F0DAF80AE000F027
:400BC00029F907E0032000F0CFF9044B03221A7000E000BF80BD00BF7A81FF1F6181FF1F80B483B000AF0023FB71294B1B78DBB29AB2284B1B889BB213449AB2254B1A80CA
:400C000015E02549FB79254A52681278D2B2CA54224B5B680133214A5360FB790133FB711E4B1B889BB2013B9AB21C4B1A801B4B1B889BB2002B02D0FB79072BE1D9144BFE
:400C40001B78DBB2082B02D0FB79002B0FD0144B1B78DBB283F07F03DB43DAB2104B1A70104B0F221A70104B02221A7005E00D4B02221A700C4B02221A700C4AFB79137072
:400C8000034AFB7913700C37BD465DF8047B7047F081FF1FF681FF1F006000406881FF1F7681FF1F6181FF1F7A81FF1FF181FF1F80B582B000AF164B1B889BB2002B02D131
:400CC00000F02EF81EE0134B02221A70124B00221A7000F069F9114BDB79DBB29BB21B029AB20E4B9B79DBB29BB21343FB80084B1B889BB2FA889A4202D2054AFB88138094
:400D0000FFF76EFF012318460837BD4680BD00BF6881FF1F7A81FF1F7681FF1F0060004080B400AF0A4B02221A700A4B80221A70094B0F221A70094B00221A70084B0022D0
:400D40001A7001231846BD465DF8047B704700BF7A81FF1F7681FF1F6181FF1FF081FF1FF181FF1F80B500AFFFF73AFF80BD00BF80B500AF0A4B1B78DBB29AB2094B1B8822
:400D80009BB213449AB2074B1A80074B00221A70012000F0E9F8054B03221A7080BD00BFF081FF1FF681FF1F7A81FF1F6181FF1F80B582B000AF124B04221A70114B80220E
:400DC0001A7000F0F1F8104BDB79DBB29BB21B029AB20D4B9B79DBB29BB21343FB800B4B1B889BB2FA889A4202D2084AFB881380074B0B221A70012318460837BD4680BD9D
:400E00007A81FF1F7681FF1F006000406881FF1F6181FF1F80B483B000AF0023BB71234B1B78DBB203F00F03DBB2023BFB71FB799AB21F4B1B889BB213449AB21C4B1A80F1
:400E400018E01C4B5B681C49BA798A5CD2B21A70184B5B680133174A5360BB790133BB71FB79013BFB71134B1B889BB2013B9AB2104B1A800F4B1B889BB2002B02D0FB7920
:400E8000002BDED10D4AFB7913700D4B1B78DBB283F07F03DB43DAB2094B1A70094B0B221A700C37BD465DF8047B704729600040F681FF1F6881FF1F00600040F181FF1FA4
:400EC0007681FF1F6181FF1F80B500AF044B00221A70012000F048F8024B03221A7080BD7A81FF1F6181FF1F80B400AF084B06221A70084B06221A70074B80221A70074B9E
:400F000000221A7001231846BD465DF8047B70477A81FF1F6181FF1F7681FF1FF181FF1F80B500AF0C4B1B78DBB2002B0AD00B4A094B1B78DBB263F07F03DBB21370064BD8
:400F400000221A70064B00221A70012000F00CF8044B03221A7080BD6081FF1F086000407A81FF1F6181FF1F80B483B000AF0346FB710B4B9B68002B0CD0094B9B68FA79C3
:400F80001A70074B9B68074A128892B25A80044B00229A600C37BD465DF8047B704700BF6881FF1FF681FF1F80B400AF094B00221A80094B9B68002B07D0074B9B680022EF
:400FC0001A70054B9B6800225A80BD465DF8047B704700BFF681FF1F6881FF1F80B400AF104A104B1B78DBB223F00103DBB213700D4B9B7C0D4B1B7BDBB203F00303012B41
:4010000008D00A4BDB7BDBB283F07F03DB43DAB2064BDA73054B01225A73BD465DF8047B704700BF0B600040FC5F00408481FF1F80B400AFBD465DF8047B704780B500AF18
:40104000FFF7D0FB80BD00BF80B582B000AF0023FB716C4B1B79BB716A4B1B78DBB2DBB25BB2002B6DDA674B5B78DBB2013B052B65D801A252F823F0D7100000F110000013
:401080001D1100003F1100003F110000911000005C4BDB78DBB2212B0BD100F0BDF85A4B1B889BB2002B15D0FFF702FE0346FB7146E0544BDB78DBB2222B0BD100F0EAF87D
:4010C000514B1B889BB2002B04D0FFF7F1FD0346FB7135E034E000F025F94B4B1B889BB2002B04D0FFF7E4FD0346FB7128E027E0BB79002B11D1434B9B78DBB2002B0CD1FE
:40110000414B01221A80BB79404A13443E4A5360FFF7CEFD0346FB7112E011E0BB79002B0CD1394B01221A80BB79394A1344364A5360FFF7BDFD0346FB7101E000E000BF1A
:401140005AE0304B5B78DBB20A2B11D00B2B3FD0092B00D050E000F0E5F82B4B1B889BB2002B04D0FFF724FE0346FB7144E043E0BB79002B2BD1234B9B78DBB2002B26D1FA
:40118000BB79204AD278D1B2204AD154BB791F4AD35CDAB2BB791F49CB5CDBB29A4204D2BB791C4A0021D1540CE0BB79194AD35CDBB2012B06D9BB79BA7914498A5CD1B284
:4011C000144AD154FFF790FE0346FB7114E013E0BB79002B0FD10B4B9B78DBB2012B0AD8BB79084A9278D1B2094AD154FFF77CFE0346FB71FFE700BFFB7918460837BD46A0
:4012000080BD00BF006000406881FF1FF881FF1F0082FF1FFC81FF1F80B584B000AF194B1B78DBB2013BDBB2184600F091FEF860154B1B79FB72FB7A0233DB00FA68134400
:40124000FB60FB685B68FB60FB7A104AD35CDBB2DB00FA681344FB60FB685B68FB60FB682033FB60FB685B687B607B681B78DBB29AB2074B1A80064A7B6853601037BD461A
:4012800080BD00BF7981FF1F006000406481FF1F6881FF1F80B584B000AF1E4B1B78DBB2013BDBB2184600F053FEF8601A4B1B79FB72FB7A0233DB00FA681344FB60FB68AD
:4012C0005B68FB60FB7A154AD35CDBB2DB00FA681344FB60FB685B68FB60FB681833FB60FB685B687B607B6801331B78DBB29BB21B029AB27B681B78DBB29BB213439AB2E7
:40130000074B1A807B680233054A53601037BD4680BD00BF7981FF1F006000406481FF1F6881FF1F80B584B000AF2D4B00221A802C4B1B78DBB2013BDBB2184600F008FE9F
:40134000F860294BDB78FB72274B1B79BB72BB7A0233DB00FA681344FB60FB685B68FB60BB7A002B38D1BB7A204AD35CDBB2DB00FA681344FB60FB685B68FB60FB7A002B00
:401380002AD0FB7A032B27D8FB7A03F10053013BDB00FA681344FB60134B9B78FB72FB681B78FA7A9A4217D8FB685B687B60FA7A13465B0013449B001A467B6813447B6007
:4013C0007B685B68064A53607B681A88044B1A807B689B68024A93601037BD4680BD00BF6881FF1F7981FF1F006000406481FF1F80B500AF00F076FF80BD00BF80B483B0FD
:4014000000AF78600C4B00221A707B68002B0ED07B681B78012B0AD97B6801331B78032B05D1064A7B681360034B01221A700C37BD465DF8047B70475881FF1F5481FF1FA7
:4014400080B586B000AF0023FB75A04B1B78FB7100233B619E4B00221A80FB795BB2002B80F20A81994B5B78DBB20A2B00F2028101A252F823F000BFCD15000075160000AE
:4014800075160000751600007516000075160000A5140000751600003F1600007516000055160000894BDB78DBB2012B0ED100F079FDB860BB685B68854A5360844B1222C9
:4014C0001A80FFF7F5FB0346FB757EE07F4BDB78DBB2022B24D17D4B9B78DBB2184600F037FDB860BB68002B6FD0BB685B68784A5360774B5B6803331B78DBB29BB21B025A
:401500009AB2734B5B6802331B78DBB29BB213439AB26F4B1A80FFF7CBFB0346FB75AAE06A4BDB78DBB2032B4AD10023FB73694B3B6109E03B691B78BB71BB793A6913440E
:401540003B61FB7B0133FB73604B9B78DBB2FA7B9A4204D23B691B78DBB2002BEAD15B4B9B78DBB2EE2B01D15B4B3B61574B9B78DBB2002B11D0554B9B78DAB2574B1B7C62
:401580009A420AD1564B1B78DBB2002B03D0554B1B683B6101E0544B3B613B691B78DBB2002B12D03B691B78DBB29AB2484B1A80474A3B695360FFF77BFB0346FB755AE085
:4015C00000F036FF0346FB7555E054E0FB7903F00303002B1FD0022B00D02FE03C4B02221A803A4B1B79DBB203F07F023F4913465B0013449B000B449B78DAB23C4B1A7085
:401600003B4B00225A70324B394A5A60FFF750FB0346FB7512E02E4B02221A80354B1B78DAB2334B1A70324B00225A70284B304A5A60FFF73DFB0346FB7500BF1BE0244B94
:4016400001221A80224B2C4A5A60FFF731FB0346FB7510E01E4B01221A801C4B1B79DBB21A46264B13441A4A5360FFF721FB0346FB7500E000BF1DE1144B5B78DBB2013BF5
:401680000A2B00F2168101A252F823F09F170000B318000029180000B3180000B9160000B3180000B3180000B318000005170000B31800005B170000044B9B78DAB2104B0D
:4016C0001A70FFF711FC0346FB75F3E0006000406881FF1F8C25000094260000542500005881FF1F5481FF1FCC2500008481FF1F5C81FF1F7781FF1F7981FF1F6481FF1F1C
:401700006081FF1F6E4B9B787B717B79002B06D07B79013BDBB2184600F01AFCB8607B79002B02D0BB68002B02D17B79002B13D1644B1B78DBB27A799A4208D0614A7B799A
:401740001370614B01221A70012000F057F9FFF7CBFB0346FB75ADE0ACE000F061FD0346002B1BD0564B1B793B71554B1B79DAB2564B1A703B79564AD35CDAB23B795549C4
:40178000CB5CDBB29A4204D04F4B01221A7000F0C1FAFFF7A9FB0346FB758BE08AE0FB7903F00303012B22D0012B0DD3022B00D039E0434B9B78DBB2002B04D100F098FC4C
:4017C0000346FB752FE02EE03D4B9B78DBB2012B0CD1414B1B78DBB223F00203DAB23E4B1A70FFF781FB0346FB751CE01BE0344B1B79DBB2002B15D1314B9B78DBB2DB4372
:40180000DBB22F4A1279D2B211461046334A125CD2B21340DAB2314B5A54FFF765FB0346FB75FFE700BF45E0FB7903F00303012B22D0012B0DD3022B00D039E0204B9B786A
:40184000DBB2002B04D100F0E5FB0346FB752FE02EE01B4B9B78DBB2012B0CD11E4B1B78DBB243F00203DAB21B4B1A70FFF73CFB0346FB751CE01BE0114B1B79DBB2002B64
:4018800015D10F4B9B78DBB2DB43DBB20C4A1279D2B211461046114A125CD2B21340DAB20E4B5A54FFF720FB0346FB75FFE700BF00E000BFFB7D18461837BD4680BD00BF26
:4018C000006000407981FF1F7881FF1F7581FF1FF481FF1F6481FF1F7781FF1F7C81FF1F90B482B000AF0123FB7174E03F4AFB791B0113440C221A70FA793D4913465B0060
:4019000013449B000B445B79DBB2002B1AD0FA79374913465B0013449B000B441B79DBB2DBB25BB2002B06DA324AFB791B0113440C229A700CE02F4AFB791B011344082231
:401940009A7005E02B4AFB791B01134480229A702648F979FA79264C13465B0013449B002344DB889BB2DAB20B0103449A711F48F979FA791E4C13465B0013449B00234441
:40198000DB889BB21B0A9BB2DAB20B010344DA711648F979FA79164C13465B0013449B002344DB889BB2DAB20B0103441A710F48F979FA790E4C13465B0013449B0023446C
:4019C000DB889BB21B0A9BB2DAB20B0103445A71FB790133FB71FB79082B87D9064BFF221A700837BD4690BC704700BF706000408481FF1FFC5F00400A60004080B588B01B
:401A000000AF0346FB7100237B830023FB7743E0FA7FA54913465B0013449B000B4400221A70FA7FA04913465B0013449B000B4400229A70FA7F9C4913465B0013449B00DA
:401A40000B440022DA70FA7F974913465B0013449B000B44083300221A80FA7F924913465B0013449B000B44083300229A70FA7F8D4913465B0013449B000B4400225A7086
:401A8000FA7F894913465B0013449B000B4400225A71FB7F0133FB77FB7F082BB8D9FB79002B10D000237B770AE07B7F7F4A0021D1547B7F7E4A0021D1547B7F01337B77EC
:401AC0007B7F002BF1D07B4B1B78DBB2002B00F01C81784B1B78DBB2013BDBB2184600F037FA38613B695B68FB60FB6807331B7803F04003002B08D06F4B1B78DBB243F066
:401B00000103DAB26C4B1A7007E06B4B1B78DBB223F00103DAB2684B1A703B6908333B613B691B78FB7701237B7790E03B695B687B610023BB7782E07A7F7B699B7803F0B0
:401B40007F039A4275D17A7F574913465B0013449B000B4408331B889AB27B699B889A420BD27A7F7B6998884F4913465B0013449B000B44083302461A807B691B781A46CB
:401B80004A4B9B5CDAB27B695B789A4251D17A7F7B699878444913465B0013449B000B4402461A717A7F7B69D8783F4913465B0013449B000B4402461A707B69DB7803F070
:401BC0000303FB727B699B78DBB25BB2002B18DA7A7FFB7A012B01D1072000E00D20324913465B0013449B000B4402465A717A7F2D4913465B0013449B000B4401225A7050
:401C000017E07A7FFB7A012B01D1052000E00920254913465B0013449B000B4402465A717A7F214913465B0013449B000B4400225A707B6908337B61BB7F0133BB77BA7F85
:401C4000FB7F9A42FFF478AF7B7F01337B777B7F082B7FF66BAF3B695B687B6100237B7714E07B699B7803F07F027B6918780E4913465B0013449B000B44083302469A7014
:401C80007B6908337B617B7F01337B777A7FFB7F9A42E6D300F098F90246084B1A6000237B830123FB772BE08481FF1F6481FF1FF481FF1F7981FF1F7781FF1F8081FF1FA3
:401CC000FA7F134913465B0013449B000B447A8BDA80FA7F0E4913465B0013449B000B4408331B889AB27B8B13447B837B8B03F001039AB27B8B13447B83FB7F0133FB77AD
:401D0000FB7F082BDCD9FFF7EBFD2037BD4680BD8481FF1F90B585B000AF874B1B78DBB2002B00F00681844B1B78DBB2013BDBB2184600F00DF978607B6808337B607B682C
:401D40001B78FB707B685B68BB607C4B1B78BB700023FB73E8E0BB681B78BA789A4240F0DD80BB78764AD35CDAB2BB685B789A4240F0D480BB689B7803F07F037B70BB68B8
:401D8000DB7803F003033B707A786E4913465B0013449B000B440022DA707A78BB689878684913465B0013449B000B4402461A717A78BB68D878634913465B0013449B00CD
:401DC0000B4402461A707A78BB6898885D4913465B0013449B000B44083302461A80BB689B78DBB25BB2002B18DA7A783B78012B01D1072000E00D20524913465B0013446B
:401E00009B000B4402465A717A784E4913465B0013449B000B4401225A7017E07A783B78012B01D1052000E00920464913465B0013449B000B4402465A717A784149134606
:401E40005B0013449B000B4400225A703E4A7B781B01134401229A703B4879787A78394C13465B0013449B00234408331B889BB21B0A9BB2DAB20B0103441A703248797856
:401E80007A78304C13465B0013449B00234408331B889BB2DAB20B0103445A702B4879787A78284C13465B0013449B002344DB889BB2DAB20B0103449A71244879787A7813
:401EC000204C13465B0013449B002344DB889BB21B0A9BB2DAB20B010344DA711B4879787A78184C13465B0013449B002344DB889BB2DAB20B0103441A71144879787A780D
:401F0000104C13465B0013449B002344DB889BB21B0A9BB2DAB20B0103445A71BB680833BB60FB7B0133FB73FA7BFB789A42FFF412AF1437BD4690BD7981FF1F7581FF1F9C
:401F40006481FF1F8481FF1FFC5F00407060004080B485B000AF0346FB71104B1B78DBB20F4ADB0013445B68FB60FB681033FB60FB681B78FA799A4202D30023FB6005E021
:401F8000FB79DB00FA6813445B68FB60FB6818461437BD465DF8047B704700BF7481FF1F8C26000080B400AF054B1B78DBB2054ADB0013445B681846BD465DF8047B70475A
:401FC0007481FF1F8C26000080B584B000AF104B1B78DBB2013BDBB21846FFF7B9FFB860BB68002B0DD0BB685B681B79FB71FB790233DB00BA681344BB60BB685B68FB6032
:4020000001E00023FB60FB6818461037BD4680BD7981FF1F80B582B000AF0023FB71314B1B79DBB203F07F03BB71BB79002B53D0BB79082B50D8BA79B9792B480B465B0069
:402040000B449B0003449B78DBB243F00103D8B2254913465B0013449B000B4402469A70BA79214913465B0013449B000B440022DA70BA79B9791C480B465B000B449B00BC
:4020800003445B78DBB243F00203D8B2164913465B0013449B000B4402465A70BA79124913465B0013449B000B441B79DBB2DBB25BB2002B06DA0D4ABB791B0113448D225B
:4020C0009A7005E0094ABB791B01134489229A70FEF70AFF0346FB71FB7918460837BD4680BD00BF006000408481FF1FFC5F004080B582B000AF0023FB71464B1B79DBB2CA
:4021000003F07F03BB71BB79002B7DD0BB79082B7AD8BA79B97940480B465B000B449B0003449B78DBB223F00103D8B23A4913465B0013449B000B4402469A70BA79364912
:4021400013465B0013449B000B440022DA70334ABB791B0113447F221A70BA79B9792E480B465B000B449B0003445B78DBB223F00203D8B2284913465B0013449B000B448F
:4021800002465A70BA79244913465B0013449B000B441B79DBB2DBB25BB2002B18DABA791D4913465B0013449B000B445B78DBB2012B06D1194ABB791B0113440C229A706D
:4021C0001EE0164ABB791B0113440D229A7017E0BA79114913465B0013449B000B445B78DBB2012B06D10D4ABB791B01134408229A7005E0094ABB791B01134409229A707F
:40220000FEF772FE0346FB71FB7918460837BD4680BD00BF006000408481FF1FFC5F004080B584B000AF0023FB73154B1B79BB73144B1B78DBB2013BDBB21846FFF788FE29
:40224000B860BB685B681B79FB71BA7BFB799A4202D9BB7B012B0ED8BB7BBA7B0A498A5CD1B20A4AD154BB7B054A9278D1B2064AD1540123FB73FB7B18461037BD4680BDA4
:40228000006000407981FF1F6481FF1FF481FF1F80B582B000AF0023FB710F4B1B78DBB2DBB25BB2002B12DA0B4B5B78DBB2012B00D00CE0094B0A4A5A60094B1B789AB2CD
:4022C000064B1A80FEF7F4FC0346FB7100BFFB7918460837BD4680BD006000406881FF1FA826000080B400AF054B1B78DBB203F040039B09DBB21846BD465DF8047B70472E
:402300008F45004000000000142816D902B4012114381049097811F0C001890904B40E4A515C04BC00BF00BF00BF8841FDD500BF00BF02BC704700BF00BF70F10400FCD510
:4023400070470B050709EFF3108072B6704780F3108870470048004042230000AFF3008080B483B000AF0346FB7101BE0C37BD465DF8047B704700BF80B582B000AF0346EB
:40238000FB80FB88044A127802FB03F31846FFF7BBFF0837BD4680BD2481FF1F80B584B000AF03463960FB710F4B1B68FB60FB791F2B02D90020FFF7D3FFFB7903F01F035C
:4023C00010339B00FA6813441B68BB60FB7903F01F0310339B00FA6813443A681A60BB6818461037BD4680BD08ED00E080B582B000AF03460A46FB711346BB71BB79072B89
:4024000002D90020FFF7ACFFFB791F2B02D90020FFF7A6FFFB7903F01F0303F1604303F56443BA795201D2B21A700837BD4680BD80B582B000AF1A4B1B78DBB203F0030346
:40244000012B02D0022B04D012E0154B1B79BB7111E0134B1B79DBB203F07F02114913465B0013449B000B4408339B78BB7102E00023BB7100BF0C4B1A68BB7913441B78B7
:40248000032B04D1FEF7E0FD0346FB7102E00023FB7100BFFB7918460837BD4680BD00BF006000408481FF1F8081FF1F0E4B70B51E460E4C0025E41AA410A54204D056F854
:4024C000253098470135F8E700F002F9084B094C1E46E41AA4100025A54204D056F8253098470135F8E770BDDC260000DC260000DC260000E426000010B5431E0A449142EF
:4025000004D011F8014B03F8014FF8E710BD03460244934202D003F8011BFAE77047000000000000005100401000205100405000C0510040100000000140001000140140ED
:40254000000800400140000A004C014000020050014020001201000200000008B4041DF2000001028001000009022200010101801909040000010300000009211101000109
:402580002236000705810308000A0000040309042C0343007900700072006500730073002000530065006D00690063006F006E0064007500630074006F0072000C034D001A
:4025C0006F007500730065000000000002030000360005010902A1010901A10005090509050919012903150025019503750181029501750581010501093009311581257F05
:40260000750895028106C0C000000000040000000882FF1F0482FF1F000000000C2600000000000000000000000000000000000001000000D0250000010000007A25000067
:402640000100000018260000000081030800030003000000010000006825000001000000482600000100000040260000000000005026000001000000542500000000000035
:40268000000000000100000054260000010000007426000012034D00530046005400310030003000010000002800000000010400010000000000000000014359555342006E
:4026C00000003030303031000000000000000000F8B500BFF8BC08BC9E4670474D00000099010000F8B500BFF8BC08BC9E46704729000000082700000881FF1F28000000DD
:40270000E000000000000000000000000E034600570053004E00300031000000408AF701E8800000210000000000744000000000000000000000000000000000000000000A
:402740000000000000000000000000000000000000000000000000000000000000000000000000000000000000000000000000000000000000000000000000000000000059
:402780000000000000000000000000000000000000000000000000000000000000000000000000000000000000000000000000000000000000000000000000000000000019
:4027C00000000000000000000000000000000000000000000000000000000000000000000000000000000000000000000000000000000000000000000000000000000000D9
:402800000000000000000000000000000000000000000000000000000000000000000000000000000000000000000000000000000000000000000000000000000000000098
:020000040003F7
:0200000480007A
:4000000001450040015200400117014001190140024001400141014001420140014301400247014002480140014C0140015101407E027C40EE08EE083380CC10A780A780A9
:40004000A7800808C208AF80EE10AC08000200004000000000000000C000000000040000000000000200100100000000000000000000000000000000000000000000000085
:400080000000000000000000000000000000000000000000000000000000000000000000000000000000000000000000000000000000000000000000000000000000000040
:4000C0000000000000000000000000000000000000000000000000000000000000000000000000000000000000000000000000000000000000000000000000000000000000
:4001000000000000000000000000000000000000000000000000000000000000000000000000000000000000000000000000000000000000000000000000000000000000BF
:40014000000000000000000000000000000000000000000000000000000000000000000000000000000000000000000000000000000000000000000000000000000000007F
:0200000490006A
:040000000800C0052F
:0200000490105A
:04000000BC90ACAF55
:0200000490303A
:02000000C70730
:0200000490402A
:4000000000000000000000000000000000000000000000000000000000000000000000000000000000000000000000000000000000000000000000000000000000000000C0
:400040000000000000000000000000000000000000000000000000000000000000000000000000000000000000000000000000000000000000000000000000000000000080
:400080000000000000000000000000000000000000000000000000000000000000000000000000000000000000000000000000000000000000000000000000000000000040
:4000C0000000000000000000000000000000000000000000000000000000000000000000000000000000000000000000000000000000000000000000000000000000000000
:0200000490501A
:0C00000000012E12306900012E20F77064
:00000001FF