:400000000080002011000000F1000000F100000008B5044B1A6803F53F5302331A6000F07FF800BFFA46004010B5054C237833B9044B13B10448AFF300800123237010BD1E
:400040008881FF1F0000000064120000084B10B51BB108480849AFF300800848036803B910BD074B002BFBD0BDE81040184700BF00000000641200008C81FF1F0881FF1F55
:400080000000000030B585B0684600210F2200F0CDFC62B600F000FA00F0F0FB00F0FCFB00F01EFB0020012100F028FB0E4800F0BEFA08240025002000F0F6FB00F006FC09
:4000C000013C14F0FF040544F5D1ED1007492A46684600F0B3FCE8B200F0A8F90120214600F00CFB6846E2E76812000077120000FEE70000084908B50B68084A1844821ACF
:40010000802A01DC086005E000F064FC0C2303604FF0FF33184608BD0C81FF1FC081FF1F08B51148114AC8B1A2F1100132C9234604391E1BAE4204D051F8046F43F8046BD9
:40014000F7E71D4652F8041C5C1B8C4203D0002443F8044BF8E701381032E4E700F040FCFFF790FFFEE700BF010000002813000008B5114A114B1A60114A136843F40073EA
:4001800013600023032B98BF0E4A4FEA830094BF52F823100C490D4A0133302B1150F1D10B4B19780B4B19700B4B1A6000F018F80A4B00221A6008BD0004FA050CED00E0BA
:4001C00014ED00E000000000F10000000080FF1FBC7600400481FF1F08ED00E00081FF1FF8B572B66B4B00241C706B4B03211A686A4B19251A60022283F8002208224FF0D8
:4002000040231A7083F80012654B66491B78DBB20B70654B1A8041F2512223F8022C634B78201B7803F0010343EA440400F068FB013D04F0030425D0032CF0D15C4B4FF471
:4002400080721A8007221A705A4A002548211570917002221D7003F8032C0422DA71564A564C137843F0010313702378802243F080032370474B1A70514A137843F00403B2
:40028000137000E0FEE74F4A062303FB0523002118689A88013500F0C9FB0A2DF3D14A48002550F8041F05F1105303F1120221F0FF061333C9B20B4452005B0002329A4200
:4002C00006D012F8027C12F801EC06F807E0F5E73E4B0D449842E4D13D4A3E4D13783E4E43F002031370137C6FF42B7C43F0020313742378A2F5863243F040032370413AD5
:40030000137843F010031370344B03CBC2F8400DC2F8441D03CBC2F8600DC2F8641D03CBC2F8900DC2F8941DA03A13782C4843F0080313702B4B01221A702B4B1B780278FA
:40034000DBB22978D2B203F007071B093770C9B2737042F0030303706FF4EC6741F003032B703E441023214F337040263E70BE701F4E33701F4B20261E7029706344027064
:4003800044221A706FF452731D4494E80F0007C52B80F8BD00480040540000480041004008010049A146004022420040254200400440004006400040A1430040A043004053
:4003C000E846004083120000FCFFFF472000004803500140F94600406E5800403C000048F846004004000840CF01004901590040205B0040235B0040044A137843F00803A7
:400400001370137C43F0080313747047A8430040054B00F002001A7802F0FD021A701A7810431870704700BF2C580040014B1870704700BF835B0040064B074A1B78C3F3BA
:40044000810303F19243063393F83831DBB21370704700BF2C5800400B460040054B00F00C001A7802F0F3021A701A7810431870FFF7E2BF2C58004008B5064A002313705D
:4004800004205370FFF7EAFFBDE808400220FFF7BFBF00BF2C58004010B5064C23781BB9FFF7EAFF01232370FFF7A6FF024BC8221A7010BDA481FF1F835B004010B50B4CAE
:4004C000237803F09F032370237803F0F0032370237843F0100318432070012000F052FA237803F0EF03237010BD00BF205100402DE9F843314C324F2378324E03F08003CC
:40050000DBB223703B78304D03F0F00343F00F033B70337803F0F00333702B7803F0F0032B70237803F0DF032370237843F040032370002000F026FA2378012043F0100364
:40054000237000F01FFA214B002093F8009023785FFA89F903F0EF03237000F013FA2378012043F01003237000F00CFA237819F0080F03F0EF03DFF844802370D9D198F8BA
:40058000003003F0BF0388F8003098F8003003F08003DBB288F800303B7803F0F0033B70337803F0F00343F00F0333702B7803F0F00343F00F032B70BDE8F883205100403C
:4005C0002251004023510040245100402151004038B505460E4CFFF78BFF237843F020032370237803F0BF032370237803F0F0032370237843F0100345EA030020700120DC
:4006000000F0C0F9237803F0EF03237038BD00BF2051004010B50446FFF76AFF2009FFF7D7FF04F00F00BDE81040FFF7D1BF38B505460078012428B1FFF7ECFF285D01346F
:40064000E4B2F8E738BD10B50446FFF751FF2009FFF734FF04F00F00BDE81040FFF72EBF08B5282000F07AF90320FFF727FF052000F074F90320FFF721FF0F2000F06EF9A6
:400680000320FFF71BFF012000F068F90220FFF715FF052000F062F90620FFF7D4FF0E20FFF7D1FF2C20FFF7CEFF0820FFF7CBFF0120FFF7C8FF0C20FFF7C5FF0320FFF742
:4006C000C2FFBDE80840052000F048B908B50C20FFF7B9FF014B01221A7008BDA581FF1F10B5054C63781BB9FFF7BAFF01236370BDE81040FFF7EABFA581FF1F032811D846
:40070000DFE800F00205080B81F0800008E0A1F1400004E0A1F16C0001E0A1F12C00C0B2FFF791BF7047000010B500F008F9214A044613780A2043F001031370137C43F0B1
:400740000103137412F80A3C43F0010302F80A3C937943F00103937102F5AA521832137843F003031370144B18221A7013F8012C42F0400203F8012C13F8012C02F0DF025A
:4007800003F8012CC82203F8062CA3F597530222123B1A70094A137843F00803137000F0F1F8074B01222046BDE810401A6000F0CAB800BFAB43004006590040275B0040FB
:4007C00080E200E00A2810B5044605D00C2808D0082803D1442305E0842303E0002000F0BBF8C423124A0A2C137006D00C2C0CD0082C05D14FF4807209E04FF4806206E0DF
:40080000002000F0A9F8002201E04FF48052094B0021198042F21073534341F2883203F6C41393FBF2F3044A1360044B198010BD02590040B681FF1FB081FF1FB481FF1F5C
:4008400008B5102000F050F80020072100F0B2F80749002000F09EF8064A0820137843F006031370FFF7AEFF034B00221A8008BDE508000001590040B881FF1F10B5054C53
:4008800023781BB9FFF7DCFF01232370BDE81040FFF74ABFA781FF1F024A137843F00103137070470059004038B5074D2C7814F0010403D10028F8D0002403E0204600F017
:4008C00061F82B78204638BD01590040034A044B1B881088181A00B2704700BFB481FF1FA05B004070470000034A00F0F800137803431370704700BF02410040000000000F
:40090000142816D902B4012114381049097811F0C001890904B40E4A515C04BC00BF00BF00BF8841FDD500BF00BF02BC704700BF00BF70F10400FCD570470B050709EFF385
:40094000108072B6704780F310887047004800403A090000AFF3008001BE704710B50446B4F5004F064B05D91868FFF7C9FFA4F50044F5E758686043BDE81040FFF7C0BFE9
:400980001081FF1F024B1B7A5843FFF7B9BF00BF1081FF1F064B1F281A6800D901BE00F01F0000F1100352F8230042F82310704708ED00E0072900D901BE1F2800D901BE5D
:4009C00000F01F0000F16040490100F56440C9B201707047014B1868704700BF8081FF1F0E4B70B51E460E4C0025E41AA410A54204D056F8253098470135F8E700F07AFCA5
:400A0000084B094C1E46E41AA4100025A54204D056F8253098470135F8E770BD0013000000130000001300000813000003460244934202D003F8011BFAE770470EB400B5A4
:400A40004FF402719CB0ADF814106FF00041049107914FF6FF711DABADF81610084953F8042B02900690086802A9019300F064F8029B00221A701CB05DF804EB03B07047E5
:400A80008081FF1F2DE9F0478E688246B3420C469046994640D38A8912F4906F3AD02568096902236F1A656905EB450595FBF3F57B1C4B449D4238BF1D4653050FD52946A4
:400AC00000F03AFB064698B121693A4600F0CAFAA38923F4906343F08003A38113E02A4600F080FB064670B95046216900F0E0FA0C23CAF80030A3894FF0FF3043F0400310
:400B0000A381BDE8F08726613E4426604E466561ED1BA560B14500D24E4632462068414600F0ABFAA36800209B1BA36023681E442660BDE8F08700002DE9F0439DB0039368
:400B40008B8906461C060D4690460CD50B6953B9402100F0F1FA2860286110B90C233360CCE040236B610023099320238DF8293030238DF82A3043461C4613F8012B1AB9AF
:400B8000B4EB08090FD002E0252AF5D1F8E73046294642464B46FFF775FF013000F0A980099B4B4409932378002B00F0A28000234FF0FF3204930793059206938DF853307B
:400BC0001A9304F101084446DFF8489121784846052200F039FA08F10108049B30B1C9EB00000122824013430493ECE7D80644BF20228DF85320190744BF2B228DF8532041
:400C000022782A2A02D0079923460EE0039A0134111D12680391002ABBBF524243F0020307920792B8BF04930AE01C4622780133303A092A03D80A2000FB0121F5E70791F2
:400C400023782E2B1AD163782A2B0AD1039B02341A1D1B680392002BB8BF4FF0FF3305930CE0611C00220C4623780131303B092B03D80A2000FB0232F5E70592DFF89880DD
:400C800021784046032200F0DFF938B1049AC8EB00004023834013430493013421781A48062204F101088DF8281000F0CDF988B1164B33B9039B073323F0070308330393C6
:400CC00013E003AB0093304604A92A46104BAFF3008007E003AB0093304604A92A460C4B00F092F8421C074603D0099B3B44099341E7AB895B0601D4099801E04FF0FF3065
:400D00001DB0BDE8F08300BFCB12000000000000850A0000C1120000C71200002DE9F84391461F468A680B6906469342B8BF1346C9F8003091F843200C46DDF8208012B1AC
:400D40000133C9F800302368990642BFD9F800300233C9F80030256815F006051CD094F843302268003318BF012392061FD5E118302081F843005A1C94F845102244023339
:400D800082F8431013E03046394604F119020123C047013007D00135E368D9F800209B1A9D42F0DBDBE74FF0FF30BDE8F8833046394604F14302C0470130F4D02268D9F894
:400DC0000050E36802F00602042A08BF5D1B2269A3680CBF25EAE57500259342C4BF9B1AED184FF00009A9450ADA3046394604F11A020123C0470130D5D009F10109F2E7F2
:400E00000020BDE8F88300002DE9FF410C461746227E98466E2A06460A9B01F1430100F0B08012D8632A23D00AD8002A00F0BD80582A40F0CC8084F84520DFF804E257E09A
:400E4000642A1ED0692A1CD0C1E0732A00F0B18009D86F2A2ED0702A40F0B980226842F0200222603FE0752A24D0782A3BD0AEE01A6804F14205111D1960136884F8423082
:400E8000A9E020681A6810F0800F02D0101D186008E010F0400F02F10400186002D0B2F9003000E01368002B3EDA2D225B4284F8432039E020681A6810F0800F02D0101D2C
:400EC000186007E010F0400F02F10400186001D0138800E01368227EDFF864E16F2A0CBF08220A221CE07822DFF858E184F845202268186812F0800F00F104051D6003D12B
:400F0000550601D5038800E00368D00744BF42F0200222601BB9226822F0200222601022002084F8430002E0DFF814E10A226568002DA8BF2068A560A4BF20F00400206016
:400F400003B965B10D46B3FBF2F002FB10331EF8033005F8013D03460028F4D100E00D46082A0BD12368DA0708D5236962689A42DEBF302305F8013C05F1FF35491B2161CC
:400F80002EE025681A6815F0800F606903D0151D1D60136808E015F0400F02F104051D60136801D0188000E01860002323610D4616E01A68111D19601568002128466268DA
:400FC00000F042F808B1401B6060636804E004F1420584F8422001232361002384F84330CDF800803046214603AA3B46FFF796FE013002D14FF0FF301FE0304639462A46C0
:401000002369C0470130F5D023689B0705D4E068039B9842B8BF18460FE00025E368039A9B1A9D42F3DA3046394604F119020123C0470130DED00135F0E704B0BDE8F08149
:40104000D2120000E312000010B5C9B202449042034605D01C7801308C42F8D1184610BD002010BD10B5431E0A44914204D011F8014B03F8014FF8E710BD814210B501EBD2
:40108000020301D3421E0BE09842FBD28118D21AD34204D013F8014D01F8014DF8E710BD994204D011F8014B02F8014FF8E710BD30B500293CD051F8042C0B1F1D49002A64
:4010C000B8BF9B180A680C4612B95A600B6030BD93420DD219685818904201BF5A5852181A60426823605A6030BD994203D80A4651680029F9D1146815199D420AD11B68EB
:401100002344D0188842136012D10868034413604B680CE002D90C23036030BD1C681819884201BF08684968001918605960536030BD00BFAC81FF1F70B5CC1C24F00304A1
:4011400008340C2C38BF0C24002C064603DA0C233360002070BD8C42F9D3204A136810461946A1B10A68121B0ED40B2A03D90A608B188C501FE08B420BBF5A684A68026003
:401180005A6018BF0B4616E00B464968E9E7144D2B681BB9304600F04BF828603046214600F046F8421C0346D1D0C51C25F0030585420AD11C6003F10B001A1D20F00700D0
:4011C000821A0AD05142995070BD3046E91A00F02FF80130BBD02B46ECE770BDAC81FF1FA881FF1FF8B5074615460E4621B91146BDE8F840FFF7A0BF1AB9FFF759FF2846E6
:40120000F8BD00F025F8A8420ED238462946FFF793FF044650B131462A46FFF723FF38463146FFF745FF01E03046F8BD2046F8BD38B5064C0023054608462360FEF75AFF41
:40124000431C02D1236803B12B6038BDBC81FF1F51F8040C0028BEBF091851F8043CC018043870470000000041444320696E70757420766F6C74002020202025346C6420E9
:401280006D5600105100401000305100402000605100401000C05100401000F0510040100000000140001000140140000800400140000A004C01400002005001402000432A
:4012C00000232D302B2000686C4C006566674546470030313233343536373839414243444546003031323334353637383961626364656600F8B500BFF8BC08BC9E4670477C
:401300004D00000071010000F8B500BFF8BC08BC9E46704729000000281300000881FF1F800000003800000000000000C081FF1F0000E02EC05D00001800000000366E0165
:401340000000000000000000000000000000000000000000000000000000000000000000BF120000000000000000000000000000000000000000000000000000000000009C
:4013800000000000000000000000000000000000000000000000000000000000000000002081FF1F000000000000000000000000000000000000000000000000000000006E
:4013C00000000000000000000000000000000000000000000000000000000000000000000000000000000000000000000000000000000000000000000000000000000000ED
:4014000000000000000000000000000000000000000000000000000000000000000000000000000000000000000000000000000000000000000000000000000000000000AC
:40144000000000000000000000000000000000000000000000000000000000000000000000000000000000000000000000000000000000000000000000000000000000006C
:40148000000000000000000000000000000000000000000000000000000000000000000000000000000000000000000000000000000000000000000000000000000000002C
:020000040003F7
:0200000480007A
:40000000010701400109014002400140014101400142014002430140024601400147014001510140EE04EE043320CC10A720A720AB20EE201B04C608AB040003000000005E
:4000400000001000007F7F00000000000000000000000100100018010000000000000000000000000000000000000000000000000000000000000000000000000000000048
:400080000000000000000000000000000000000000000000000000000000000000000000000000000000000000000000000000000000000000000000000000000000000040
:4000C0000000000000000000000000000000000000000000000000000000000000000000000000000000000000000000000000000000000000000000000000000000000000
:4001000000000000000000000000000000000000000000000000000000000000000000000000000000000000000000000000000000000000000000000000000000000000BF
:40014000000000000000000000000000000000000000000000000000000000000000000000000000000000000000000000000000000000000000000000000000000000007F
:0200000490006A
:0400000000004004B8
:0200000490105A
:04000000BC90ACAF55
:0200000490303A
:020000001ED010
:0200000490402A
:4000000000000000000000000000000000000000000000000000000000000000000000000000000000000000000000000000000000000000000000000000000000000000C0
:400040000000000000000000000000000000000000000000000000000000000000000000000000000000000000000000000000000000000000000000000000000000000080
:400080000000000000000000000000000000000000000000000000000000000000000000000000000000000000000000000000000000000000000000000000000000000040
:4000C0000000000000000000000000000000000000000000000000000000000000000000000000000000000000000000000000000000000000000000000000000000000000
:0200000490501A
:0C00000000012E12306900012E194F394A
:00000001FF