:400000000080002011000000410100004101000080B500AF024A034B1B68136000F0BCF8BC760040FA46004010B5054C237833B9044B13B10448AFF300800123237010BDDF
:400040008881FF1F00000000E0180000084B10B51BB108480849AFF300800848036803B910BD074B002BFBD0BDE81040184700BF00000000E01800008C81FF1F0881FF1F51
:400080000000000080B588B000AF00237B610023FB770023BB6100233B613B4600221A60043300221A60043300221A60043300221A80023300221A70013300F015FB0420A3
:4000C00000F046FB00F08CFD00F05EFE00F0DCFB0020012100F0E8FB174800F01BFC002000F062FE00F080FE03467B61BA697B691344BB61FB7F0133FB77FB7F082B19D194
:40010000BB69DB103B610023BB610023FB773B4618460A493A6900F0D9FF3B69DBB2184600F036FB0120002100F0BEFB3B46184600F0F0FBD3E700BFE4180000F4180000CD
:4001400080B400AFFEE700BF80B584B000AF78600F4B1A687B6813441A460E4BD31A802B09DC0B4B1B68FB60094B1A687B681344074A136007E000F069FF02460C2313608B
:400180004FF0FF33FB60FB6818461037BD4680BD0C81FF1FC081FF1F80B586B000AF224B7B61224B3B61204B7B6135E03B691B68FB603B695B68BB603B699B683B600023F0
:4001C0007B600CE0FB681A68BB681A60BB680433BB60FB680433FB607B6804337B607A683B689A42EED13B69DB683B6000237B6008E0BB6800221A60BB680433BB607B68B8
:4002000004337B607A683B689A42F2D13B6910333B617B69013B7B617B69002BC6D100F01BFFFFF72FFFFEE7010000009419000080B582B000AF174B174A1A60174A174B8C
:400240001B6843F40073136000237B600FE07B68032B04D8124A7B6852F8233000E0114B11497A6841F822307B6801337B607B682F2BECD90D4B1B78DAB20D4B1A700D4B80
:40028000094A1A6000F064F90B4B00221A600837BD4680BD0CED00E00004FA0514ED00E000000000410100000080FF1FBC7600400481FF1F08ED00E00081FF1F80B582B026
:4002C00000AF78603960786800213A6800F0F5FE0837BD4680BD00BF80B584B000AFF860B9607A60F868B9687A6800F0DBFE1037BD4680BD80B483B000AF0346FB71FEE754
:4003000080B487B000AF7860396000233B6100237B6127E07B699B007A6813441B68BB60BB68FB73BB6823F0FF03BB6014E03B695B003A6813441B781A46BB68134419467B
:400340003B695B003A6813445B780B703B6901333B61FB7B013BFB73FB7B002BE7D17B6901337B617B69082BD4D91C37BD465DF8047B704780B582B000AF3548354904227A
:40038000FFF7AAFF344B02221A704FF0402308221A70324B03221A70314B324A1278D2B21A70314B08221A80304B41F251221A800023FB7019237B6014E0FB785B00DAB271
:4003C0002B4B1B78DBB203F00103DBB21343DBB203F00303FB704FF4F07000F081FD7B68013B7B607B68002B02D0FB78032BE4D17B68002B02D10320FFF77CFF1D4B4FF43B
:4004000080721A801B4B07221A701B4B00221A701A4B48221A70174B00221A70184B02221A70184B04221A70174A174B1B78DBB243F00103DBB21370144A144B1B78DBB273
:4004400063F07F03DBB213700837BD4680BD00BF00410040540000480043004000420040A1460040080100492242004020420040254200400440004006400040084000403F
:40048000014000400B400040A1430040A043004080B483B000AF214B1B78FB71204B1B78BB71204B1B787B711F4AFB7903F00703DBB213701D4AFB791B09DBB21370184AF9
:4004C000BB7943F00303DBB21370164A7B7943F00303DBB21370164B01221A70154B20221A70154B40221A70144B40221A70144B01221A70134B02221A70134B20221A70CF
:40050000084A7B791370064ABB7913700F4B44221A700C37BD465DF8047B7047CF010049F8460040F94600406E5800406F5800405D5100406D51004001590040035900408B
:400540008C5A0040205B0040235B00407658004080B582B000AF72B6394A394B1B78DBB243F00403DBB213700023FB7113E0FA7913465B0013445B00324A13443B603B68B3
:400580001A683B689B889BB210461946FFF796FEFB790133FB71FB79082BE8D94FF090402949FFF7ADFE294A284B1B78DBB243F00203DBB21370264A254B1B78DBB243F048
:4005C0000203DBB21370234A224B1B78DBB243F04003DBB21370204A1F4B1B78DBB243F01003DBB213701D481D490822FFF774FE1C481D490822FFF76FFE1C481C49082275
:40060000FFF76AFE1B4A1B4B1B78DBB243F00803DBB21370184B00221A70FFF7ABFE164B80221A70154B01221A70FFF731FF144808490E22FFF750FE0837BD4680BD00BF56
:40064000E846004000190000240000480350014013500140A0430040C2430040225100403C0000485251004044000048625100404C00004822430040004800400400084041
:40068000B043004080B500AF084B14221A70084B00221A70064B064A1278D2B21A70022000F036F800F084F880BD00BF245800402558004080B400AF094A094B1B78DBB20D
:4006C00043F00203DBB21370064A064B1B78DBB243F00203DBB21370BD465DF8047B7047A8430040B843004080B500AF074B1B78002B04D1FFF7C6FF044B01221A70FFF73F
:40070000D9FF642000F044F880BD00BFA481FF1F80B483B000AF0346FB710C4A0B4B1B78DBB223F00203DBB213700849074B1B78DAB2FB7903F00203DBB21343DBB20B701A
:400740000C37BD465DF8047B704700BF2458004080B582B000AF0346FB710C4A0B4B1B78DBB223F00C03DBB213700849074B1B78DAB2FB7903F00C03DBB21343DBB20B7041
:4007800000F016F80837BD4680BD00BF2458004080B483B000AF0346FB71044AFB7913700C37BD465DF8047B704700BF815B004080B483B000AF104B1B78DBB203F00C03F2
:4007C0005B08FB710D4B1B78DBB203F00403DBB2002B02D0FB790133FB71094AFB7903F1924303F598731B78DBB213700C37BD465DF8047B704700BF2458004025580040DB
:400800000946004080B500AF282000F0A1FB032000F0B6F9052000F09BFB032000F0B0F90F2000F095FB032000F0AAF9012000F08FFB022000F0A4F9052000F089FB0620DA
:4008400000F09EF80E2000F09BF82C2000F098F8082000F095F8012000F092F80C2000F08FF8032000F08CF8052000F071FB80BD80B500AF0C2000F083F8024B01221A70C8
:4008800080BD00BFA581FF1F80B500AF054B1B78002B04D1FFF7B6FF024B01221A70FFF7E7FF80BDA681FF1F80B582B000AF03460A46FB711346BB71FB79032B26D801A24B
:4008C00052F823F0D5080000E3080000F1080000FF080000BB79803BDBB2184600F050F815E0BB79403BDBB2184600F049F80EE0BB796C3BDBB2184600F042F807E0BB7908
:400900002C3BDBB2184600F03BF800E000BF0837BD4680BD80B584B000AF78600123FB737B681B78BB730BE0BB7B184600F00EF8FB7B7A6813441B78BB73FB7B0133FB7301
:40094000BB7B002BF0D11037BD4680BD80B584B000AF0346FB7100F02DF8FB791B09FB73FB7B184600F0D2F8FB7903F00F03FB73FB7B184600F0CAF81037BD4680BD00BFA5
:4009800080B584B000AF0346FB7100F013F8FB791B09FB73FB7B184600F0F2F8FB7903F00F03FB73FB7B184600F0EAF81037BD4680BD00BF80B582B000AF4F4A4E4B1B780D
:4009C000DBB223F07F03DBB213704C4B1B78DBB223F00F03FB71494AFB7943F00F03DBB21370474B1B78DBB223F00F03FB71444AFB791370434B1B78DBB223F00F03FB711A
:400A0000404AFB7913703C4A3B4B1B78DBB223F02003DBB21370384A374B1B78DBB243F04003DBB21370002000F0B4FA324A324B1B78DBB243F01003DBB21370012000F0DB
:400A4000A9FA314B1B78FB712B4A2B4B1B78DBB223F01003DBB21370002000F09BFAFB7903F00803FB71244A234B1B78DBB243F01003DBB21370012000F08CFA1E4A1E4BDA
:400A80001B78DBB223F01003DBB21370FB79002BC9D1194A184B1B78DBB223F04003DBB21370154A144B1B78DBB223F07F03DBB21370124A114B1B78DBB223F00F03DBB24E
:400AC00013700F4B1B78DBB223F00F03FB710C4AFB7943F00F03DBB213700A4B1B78DBB223F00F03FB71074AFB7943F00F03DBB213700837BD4680BD205100402251004046
:400B000023510040245100402151004080B582B000AF0346FB71FFF74DFF184A174B1B78DBB243F02003DBB21370144A134B1B78DBB223F04003DBB21370104A0F4B1B78BA
:400B4000DBB223F00F03DBB213700C490B4B1B78DAB2FB791343DBB243F01003DBB20B70012000F017FA054A044B1B78DBB223F01003DBB213700837BD4680BD20510040FE
:400B800080B582B000AF0346FB71144A134B1B78DBB223F06003DBB21370104A0F4B1B78DBB223F00F03DBB213700C490B4B1B78DAB2FB791343DBB243F01003DBB20B7090
:400BC000012000F0E7F9054A044B1B78DBB223F01003DBB213700837BD4680BD2051004080B500AF054B1B78002B04D100F008F8024B01221A7000F025F880BDA781FF1F9F
:400C000080B500AF102000F04FF90020072100F0FBF90020084900F0CFF9084A074B1B78DBB243F00603DBB21370082000F084F8034B00221A8080BD9D0E000001590040E3
:400C4000B881FF1F80B582B000AF00F068F90346FB712E4A2D4B1B78DBB243F00103DBB213702B4A2A4B1B78DBB243F00103DBB21370284A274B1B78DBB243F00103DBB291
:400C80001370254A244B1B78DBB243F00103DBB21370224B1B78BB71BB7943F00203BB71BB7943F00103BB711C4ABB7913701C4B18221A701B4A1B4B1B78DBB243F0400368
:400CC000DBB21370174A174B1B78DBB223F02003DBB21370144BC8221A70144B02221A70134A134B1B78DBB243F00803DBB213700A2000F04FF90F4B01221A60FB79184687
:400D000000F011F90837BD4680BD00BFAB430040BB430040A1430040B14300400359004006590040055900400059004014460040275B004080E200E080B584B000AF034646
:400D4000FB71FB790A2B07D00C2B02D0082B06D008E0C423FB730BE08423FB7308E04423FB7305E0C423FB73002000F0E5F800BF044AFB7B1370FB79184600F04FF81037FE
:400D8000BD4680BD0259004080B400AF054A054B1B78DBB243F00103DBB21370BD465DF8047B70470059004080B584B000AF0346FB710C4B1B78DBB203F00103FB73FB7B29
:400DC000012B02D0FB79002BF3D0FB7B012B04D1012000F0DFF8034B1B78FB7B18461037BD4680BD0159004080B483B000AF094B1B88FB80084B1B889BB29BB2FA88D31AD7
:400E00009BB29BB21BB218460C37BD465DF8047B704700BFA05B0040B481FF1F80B584B000AF0346FB71FB790A2B08D00C2B02D0082B08D00BE04FF48053FB600DE04FF4E1
:400E40008063FB6009E04FF48073FB6005E00023FB60002000F070F800BF0C4B00221A80FB6842F2107202FB03F303F6C413084A82FB0312D212DB17D31A064A1360064B76
:400E800000221A801037BD4680BD00BFB681FF1FAD8BDB68B081FF1FB481FF1F80B400AFBD465DF8047B704780B483B000AF0346FB71094B084A1278D2B2D1B2FA7922F0C6
:400EC0000702D2B20A43D2B2D2B21A700C37BD465DF8047B704700BF0241004000000000142816D902B4012114381049097811F0C001890904B40E4A515C04BC00BF00BFFB
:400F000000BF8841FDD500BF00BF02BC704700BF00BF70F10400FCD570470B050709EFF3108072B6704780F310887047004800401A0F0000AFF3008080B483B000AF034694
:400F4000FB7101BE0C37BD465DF8047B704700BF80B582B000AF786008E00C4B1B681846FFF7BEFF7B68A3F500437B607B68B3F5004FF2D8064B1B687A6802FB03F31846B1
:400F8000FFF7AEFF0837BD4680BD00BF1C81FF1F1481FF1F80B582B000AF0346FB80FB88044A127802FB03F31846FFF799FF0837BD4680BD1881FF1F80B584B000AF034637
:400FC0003960FB710F4B1B68FB60FB791F2B02D90020FFF7B1FFFB7903F01F0310339B00FA6813441B68BB60FB7903F01F0310339B00FA6813443A681A60BB681846103793
:40100000BD4680BD08ED00E080B582B000AF03460A46FB711346BB71BB79072B02D90020FFF78AFFFB791F2B02D90020FFF784FFFB7903F01F0303F1604303F56443BA79F7
:401040005201D2B21A700837BD4680BD014B1868704700BF8081FF1F0E4B70B51E460E4C0025E41AA410A54204D056F8253098470135F8E700F07CFC084B094C1E46E41A58
:40108000A4100025A54204D056F8253098470135F8E770BD7C1900007C1900007C1900008419000010B5431E0A44914204D011F8014B03F8014FF8E710BD034602449342B1
:4010C00002D003F8011BFAE7704700000EB400B54FF402719CB0ADF814106FF00041049107914FF6FF711DABADF81610084953F8042B02900690086802A9019300F064F82A
:40110000029B00221A701CB05DF804EB03B070478081FF1F2DE9F0478E688246B3420C469046994640D38A8912F4906F3AD02568096902236F1A656905EB450595FBF3F564
:401140007B1C4B449D4238BF1D4653050FD5294600F030FB064698B121693A46FFF7A2FFA38923F4906343F08003A38113E02A4600F076FB064670B95046216900F0D6FAEB
:401180000C23CAF80030A3894FF0FF3043F04003A381BDE8F08726613E4426604E466561ED1BA560B14500D24E4632462068414600F0A0FAA36800209B1BA36023681E448A
:4011C0002660BDE8F08700002DE9F0439DB003938B8906461C060D4690460CD50B6953B9402100F0E7FA2860286110B90C233360CCE040236B610023099320238DF829308C
:4012000030238DF82A3043461C4613F8012B1AB9B4EB08090FD002E0252AF5D1F8E73046294642464B46FFF775FF013000F0A980099B4B4409932378002B00F0A2800023A6
:401240004FF0FF3204930793059206938DF853301A9304F101084446DFF8489121784846052200F039FA08F10108049B30B1C9EB00000122824013430493ECE7D80644BF83
:4012800020228DF85320190744BF2B228DF8532022782A2A02D0079923460EE0039A0134111D12680391002ABBBF524243F0020307920792B8BF04930AE01C4622780133FD
:4012C000303A092A03D80A2000FB0121F5E7079123782E2B1AD163782A2B0AD1039B02341A1D1B680392002BB8BF4FF0FF3305930CE0611C00220C4623780131303B092BBA
:4013000003D80A2000FB0232F5E70592DFF8988021784046032200F0DFF938B1049AC8EB00004023834013430493013421781A48062204F101088DF8281000F0CDF988B1BC
:40134000164B33B9039B073323F007030833039313E003AB0093304604A92A46104BAFF3008007E003AB0093304604A92A460C4B00F092F8421C074603D0099B3B4409934D
:4013800041E7AB895B0601D4099801E04FF0FF301DB0BDE8F08300BF4419000000000000151100003A190000401900002DE9F84391461F468A680B6906469342B8BF1346F4
:4013C000C9F8003091F843200C46DDF8208012B10133C9F800302368990642BFD9F800300233C9F80030256815F006051CD094F843302268003318BF012392061FD5E1184A
:40140000302081F843005A1C94F845102244023382F8431013E03046394604F119020123C047013007D00135E368D9F800209B1A9D42F0DBDBE74FF0FF30BDE8F88330461F
:40144000394604F14302C0470130F4D02268D9F80050E36802F00602042A08BF5D1B2269A3680CBF25EAE57500259342C4BF9B1AED184FF00009A9450ADA3046394604F155
:401480001A020123C0470130D5D009F10109F2E70020BDE8F88300002DE9FF410C461746227E98466E2A06460A9B01F1430100F0B08012D8632A23D00AD8002A00F0BD80ED
:4014C000582A40F0CC8084F84520DFF804E257E0642A1ED0692A1CD0C1E0732A00F0B18009D86F2A2ED0702A40F0B980226842F0200222603FE0752A24D0782A3BD0AEE0F7
:401500001A6804F14205111D1960136884F84230A9E020681A6810F0800F02D0101D186008E010F0400F02F10400186002D0B2F9003000E01368002B3EDA2D225B4284F8EB
:40154000432039E020681A6810F0800F02D0101D186007E010F0400F02F10400186001D0138800E01368227EDFF864E16F2A0CBF08220A221CE07822DFF858E184F8452076
:401580002268186812F0800F00F104051D6003D1550601D5038800E00368D00744BF42F0200222601BB9226822F0200222601022002084F8430002E0DFF814E10A226568C2
:4015C000002DA8BF2068A560A4BF20F00400206003B965B10D46B3FBF2F002FB10331EF8033005F8013D03460028F4D100E00D46082A0BD12368DA0708D5236962689A4268
:40160000DEBF302305F8013C05F1FF35491B21612EE025681A6815F0800F606903D0151D1D60136808E015F0400F02F104051D60136801D0188000E01860002323610D460E
:4016400016E01A68111D1960156800212846626800F042F808B1401B6060636804E004F1420584F8422001232361002384F84330CDF800803046214603AA3B46FFF796FE1A
:40168000013002D14FF0FF301FE0304639462A462369C0470130F5D023689B0705D4E068039B9842B8BF18460FE00025E368039A9B1A9D42F3DA3046394604F119020123AA
:4016C000C0470130DED00135F0E704B0BDE8F0814B1900005C19000010B5C9B202449042034605D01C7801308C42F8D1184610BD002010BD814210B501EB020301D3421EBD
:401700000BE09842FBD28118D21AD34204D013F8014D01F8014DF8E710BD994204D011F8014B02F8014FF8E710BD000030B500293CD051F8042C0B1F1D49002AB8BF9B18EC
:401740000A680C4612B95A600B6030BD93420DD219685818904201BF5A5852181A60426823605A6030BD994203D80A4651680029F9D1146815199D420AD11B682344D0183F
:401780008842136012D10868034413604B680CE002D90C23036030BD1C681819884201BF08684968001918605960536030BD00BFAC81FF1F70B5CC1C24F0030408340C2CF6
:4017C00038BF0C24002C064603DA0C233360002070BD8C42F9D3204A136810461946A1B10A68121B0ED40B2A03D90A608B188C501FE08B420BBF5A684A6802605A6018BF60
:401800000B4616E00B464968E9E7144D2B681BB9304600F04BF828603046214600F046F8421C0346D1D0C51C25F0030585420AD11C6003F10B001A1D20F00700821A0AD064
:401840005142995070BD3046E91A00F02FF80130BBD02B46ECE770BDAC81FF1FA881FF1FF8B5074615460E4621B91146BDE8F840FFF7A0BF1AB9FFF759FF2846F8BD00F030
:4018800025F8A8420ED238462946FFF793FF044650B131462A46FFF705FC38463146FFF745FF01E03046F8BD2046F8BD38B5064C0023054608462360FEF746FC431C02D166
:4018C000236803B12B6038BDBC81FF1F51F8040C0028BEBF091851F8043CC018043870470000000041444320696E70757420766F6C7400002020202025346C64206D5600D2
:40190000005100402000305100402000C05100401000F0510040100000000140001000140140000800400140000A004C0140000200500140200000004300232D302B20009C
:40194000686C4C006566674546470030313233343536373839414243444546003031323334353637383961626364656600000000F8B500BFF8BC08BC9E4670474D00000073
:4019800031020000F8B500BFF8BC08BC9E46704729000000A81900000881FF1F80000000380000000000000000000000C081FF1F00366E01C05D0000180000000000E02EE5
:4019C0000000000000000000000000000000000000000000000000000000000000000000381900000000000000000000000000000000000000000000000000000000000096
:401A000000000000000000000000000000000000000000000000000000000000000000002081FF1F00000000000000000000000000000000000000000000000000000000E7
:401A40000000000000000000000000000000000000000000000000000000000000000000000000000000000000000000000000000000000000000000000000000000000066
:401A80000000000000000000000000000000000000000000000000000000000000000000000000000000000000000000000000000000000000000000000000000000000026
:401AC00000000000000000000000000000000000000000000000000000000000000000000000000000000000000000000000000000000000000000000000000000000000E6
:401B000000000000000000000000000000000000000000000000000000000000000000000000000000000000000000000000000000000000000000000000000000000000A5
:020000040003F7
:0200000480007A
:40000000010701400109014002400140014101400142014002430140024601400147014001510140EE04EE043320CC10A720A720AB20EE201B04C608AB040003007F7F0060
:400040000000000000000000000001000000000000002000100018010000000000000000000000000000000000000000000000000000000000000000000000000000000036
:400080000000000000000000000000000000000000000000000000000000000000000000000000000000000000000000000000000000000000000000000000000000000040
:4000C0000000000000000000000000000000000000000000000000000000000000000000000000000000000000000000000000000000000000000000000000000000000000
:4001000000000000000000000000000000000000000000000000000000000000000000000000000000000000000000000000000000000000000000000000000000000000BF
:40014000000000000000000000000000000000000000000000000000000000000000000000000000000000000000000000000000000000000000000000000000000000007F
:0200000490006A
:0400000000004005B7
:0200000490105A
:04000000BC90ACAF55
:0200000490303A
:02000000D388A3
:0200000490402A
:4000000000000000000000000000000000000000000000000000000000000000000000000000000000000000000000000000000000000000000000000000000000000000C0
:400040000000000000000000000000000000000000000000000000000000000000000000000000000000000000000000000000000000000000000000000000000000000080
:400080000000000000000000000000000000000000000000000000000000000000000000000000000000000000000000000000000000000000000000000000000000000040
:4000C0000000000000000000000000000000000000000000000000000000000000000000000000000000000000000000000000000000000000000000000000000000000000
:0200000490501A
:0C00000000012E12306900012E1C03F1DB
:00000001FF